:020000040000FA
:100000000C9445010C9476010C9476010C947601C5
:100010000C9476010C9476010C9476010C94760184
:100020000C9476010C9476010C9476010C94760174
:100030000C9476010C9476010C9476010C94760164
:100040000C9476010C9476010C9476010C94760154
:100050000C9476010C9476010C9476010C949A061B
:100060000C9476010C9476010C9476010C94760134
:100070000C9476010C9476010C9476010C94760124
:100080000C9476010C9476010C9476010C94760114
:100090000C9476010C9476010C9476010C94E40691
:1000A0000C9476010C9476010C9476010C947601F4
:1000B0000C9476010C9476010C9476010C947601E4
:1000C0000C9476010C9476010C9476010C947601D4
:1000D0000C9476010C9476010C9476010C947601C4
:1000E0000C9476010C949D020C9458020C947901A6
:1000F0000C945E020C945B050C947D020C94CA0275
:100100000C9477020C9473020C9404050C9405056E
:100110000C943B030C9414050C9485020C9462021D
:100120000C9478010C948F020C942E050C9481028F
:100130000C9427050C940D020C9408080C94990259
:100140000C9430060C94A2050C948B020C9466025D
:100150000C9493020C946A020C9498020C94FB0287
:100160000C946D020C9496030000210024002700DB
:100170002A002D00300033000101000004010701B6
:100180000A0100002200250028002B002E0031006B
:10019000340002010000050108010B0100002000ED
:1001A0002300260029002C002F003200000100004F
:1001B00003010601090105050505070508080808EA
:1001C000020202020A0A08080404040401010101EF
:1001D00001010101030303030303030304070707EA
:1001E0000C0C0C0C0C0C0C0C02020202060606068F
:1001F000060606060B0B0B0B0B0B0B0B010210205C
:10020000200808102040102040800201020108044C
:1002100002010102040810204080804020100804E0
:100220000201800402018040201008040201080439
:10023000020101020408102040800102040810207D
:10024000408000000A0B02090C0D0E080703040190
:10025000000000000000000000000000000000009E
:10026000000000000000000000000000000012116B
:10027000100000000000000000000000000000006E
:100280000000000000000000080811241FBECFEF8E
:10029000D1E2DEBFCDBF00E00CBF12E0A0E0B2E0D3
:1002A000E8E3F8E100E00BBF02C007900D92A0392F
:1002B000B107D9F723E0A0E9B2E001C01D92A53E45
:1002C000B207E1F711E0C5E4D1E000E006C02197F4
:1002D0000109802FFE010E94120CC434D10780E076
:1002E0000807A9F70E947E080C941A0C0C940000D1
:1002F0000895089596E0899FD0011124A659BC4F16
:1003000090967C936E935F9791E091969C939197D2
:10031000E091D703F091D8039091D603992339F057
:10032000309751F0811108C080918603199430975D
:1003300019F05C968C91FACF0895CF92DF92EF92EC
:10034000FF920F931F9396E0899FF0011124E659C5
:10035000FC4F11A2278D30A12130310551F178F0E9
:100360002230310509F451C02330310509F452C05F
:100370001F910F91FF90EF90DF90CF90089566232B
:10038000B9F361E070E00E947A012FB7F894809190
:10039000040390910503A0910603B09107032FBFBA
:1003A0008093C2039093C303A093C403B093C50387
:1003B000DFCF9FB7F894C0900403D0900503E0907E
:1003C0000603F09007039FBF0091C2031091C3037F
:1003D0002091C4033091C503C01AD10AE20AF30A7E
:1003E0000091D4031091D50330E020E00C151D05D9
:1003F0002E053F0550F462E070E01F910F91FF90D1
:10040000EF90DF90CF900C947A016111B1CF63E04F
:1004100070E0F3CF70E060E0F0CFAF92BF92CF9288
:10042000DF92EF92FF920F931F93CF93DF936C01B4
:100430007B018B01040F151FEB015E01AE18BF0895
:10044000C017D10759F06991D601ED91FC91019047
:10045000F081E02DC6011995892B79F7C501DF914F
:10046000CF911F910F91FF90EF90DF90CF90BF90B1
:10047000AF9008958150823108F05AC0E82FF0E023
:100480008827EA5BFD4F8F4F0C94120C66026A02BC
:1004900058025E02620298026D02730277027D02C8
:1004A000810285028B028F029802930299029D02BB
:1004B000809180008F7780938000089580918000E4
:1004C0008F7DF9CF80918000877FF5CF84B58F77BE
:1004D00084BD089584B58F7DFBCF8091B0008F7768
:1004E0008093B00008958091B0008F7DF9CF809106
:1004F00090008F77809390000895809190008F7D79
:10050000F9CF80919000877FF5CF8091A0008F7701
:100510008093A00008958091A0008F7DF9CF8091F5
:10052000A000877FF5CF809120018F7780932001F5
:100530000895809120018F7DF9CF80912001877FE0
:10054000F5CFCF93DF93282F30E0F901EE5BFD4F1D
:100550008491F901E450FE4FD491F901EA54FE4F21
:10056000C491CC23A1F081110E943A02EC2FF0E05B
:10057000EE0FFF1FE456FE4FA591B491EC91ED23D1
:1005800081E090E009F480E0DF91CF91089580E070
:1005900090E0FACF862F0C94A1021F93CF93DF93A4
:1005A000282F30E0F901EE5BFD4F8491F901E45012
:1005B000FE4FD491F901EA54FE4FC491CC23A9F027
:1005C000162F81110E943A02EC2FF0E0EE0FFF1F70
:1005D000EE57FE4FA591B4918FB7F894EC9111119D
:1005E00008C0D095DE23DC938FBFDF91CF911F91A0
:1005F0000895DE2BF8CF862F642F0C94CD02CF9375
:10060000DF9390E0FC01E450FE4F24918A549E4F0A
:10061000FC0184918823C9F090E0880F991FFC01A8
:10062000E859FE4FA591B491FC01EE57FE4FC591DC
:10063000D49161110DC09FB7F8948C9120958223BD
:100640008C938881282328839FBFDF91CF910895C1
:10065000623051F49FB7F8943C91822F80958323A8
:100660008C93E8812E2BEFCF8FB7F894EC912E2B43
:100670002C938FBFEACF862F642F0C94FF023FB7D5
:10068000F8948091D7029091D802A091D902B091AC
:10069000DA0226B5A89B05C02F3F19F00196A11DCF
:1006A000B11D3FBFBA2FA92F982F8827BC01CD01BC
:1006B000620F711D811D911D42E0660F771F881F1B
:1006C000991F4A95D1F708958F929F92AF92BF924A
:1006D000CF92DF92EF92FF924B015C010E943F03A9
:1006E0006B017C010E943F036C197D098E099F09F3
:1006F000683E734081059105A8F321E0821A9108B4
:10070000A108B10888EEC80E83E0D81EE11CF11CD8
:1007100081149104A104B10429F7FF90EF90DF90B8
:10072000CF90BF90AF909F908F90089508952091A3
:10073000B302260F3327331F21323105ECF4209109
:100740003403FC0190E080E0243069F082E00895F9
:10075000A091B3022191AC014D565D4FA40FB52F6E
:10076000B11D2C930196861798F38091B302680F00
:100770006093B30280E0089581E0089510923403FD
:1007800081E08093330310920E0361E084E10E94C4
:10079000CD0261E085E10E94CD02E9EBF0E08081CD
:1007A0008E7F808380818D7F808388E48093B800F2
:1007B00085E48093BC00089510920D0310920C0301
:1007C00010923B0310925D030E94BE0388E791E004
:1007D00090930B0380930A0389E791E090930903B8
:1007E000809308030895CF93DF9391E09093920252
:1007F0008823B9F0C091B800D091BA008091BC00B4
:100800008A7B8093BC0060E084E10E94CD0260E0BE
:1008100085E10E94CD020E94BE03D093BA00C0932E
:10082000B800DF91CF9108958F929F92AF92BF92BF
:10083000CF92DF92EF92FF920F931F93CF93DF93AC
:10084000D0915D03D13208F0D7C0182FC0915C035E
:100850000E943F036B017C018091340381116BC0C6
:1008600082E080933403109333038FEF809332033D
:1008700010923103D0933003ACE3B3E0E0E1F3E056
:1008800080E0D81391C010920F0380910F03CC0F1A
:10089000C82BC0930F0380910E03813009F088C0EC
:1008A00010920E030E943F036B017C0180910F03A5
:1008B0008093BB008091360390913703A091380359
:1008C000B0913903892B8A2B8B2BA1F00E943F0317
:1008D000009136031091370320913803309139038A
:1008E0006C197D098E099F09061717072807390714
:1008F00008F442C08091BC0083FDD8CF85EC809382
:10090000BC000E943F036B017C0180913403823064
:1009100009F450C0809132038F3F09F46FC0809179
:100920003203803209F46CC080913203803309F4C1
:1009300069C084E026C08091360390913703A0916E
:100940003803B0913903892B8A2B8B2B09F484CF80
:100950000E943F038090360390903703A0903803A5
:10096000B09039036C197D098E099F098616970688
:10097000A806B90608F070CF809135030E94F303F2
:1009800085E010923B0310925D0310923A03DF91D1
:10099000CF911F910F91FF90EF90DF90CF90BF907C
:1009A000AF909F908F9008959D9191938F5F69CFA5
:1009B00085EEA5CF8091360390913703A09138033F
:1009C000B0913903892B8A2B8B2B09F49ECF0E947F
:1009D0003F03009136031091370320913803309183
:1009E00039036C197D098E099F0906171707280717
:1009F000390708F08ACFC0CF81E0C3CF80E0C1CFF4
:100A000082E0BFCF83E0BDCF0895E0910D038091D8
:100A10000C03E81730F4F0E0E552FD4F808190E0E0
:100A200008958FEF9FEF089590910D0380910C032F
:100A30002FEF3FEF981748F4E92FF0E0E552FD4F14
:100A4000208130E09F5F90930D03C901089580914C
:100A50000C0390910D03891B990B0895CF92DF929F
:100A6000EF92FF920F931F93CF93DF937C01CB0103
:100A70008A0120913A03222389F0EB016B01C40E15
:100A8000D51ECC15DD0569F06991D701ED91FC917A
:100A90000190F081E02DC7011995F3CF642F0E94DA
:100AA0009703C801DF91CF911F910F91FF90EF90B5
:100AB000DF90CF900895CF93DF931F92CDB7DEB72D
:100AC000698320913A032223F9F020915D032032BB
:100AD00058F021E030E0FC013383228390E080E095
:100AE0000F90DF91CF91089580913B03E82FF0E0C4
:100AF000E45CFC4F998190838F5F80933B038093EC
:100B00005D0381E090E0ECCF61E0CE0101960E94B0
:100B10009703F7CF682F8EE593E00C945B05FC01FB
:100B2000248131E030933A0320935C0310923B031D
:100B300010925D038385862B90E00E948A0581E0F8
:100B40000C94140490E080E00895CF93DF93EC01BF
:100B500064E670E080E090E00E946403D09391022C
:100B6000C093900281E080933A0380935C031092DB
:100B70003B0310925D03CE010E948A0581E0DF9164
:100B8000CF910C9414040F931F93CF938C01C62F15
:100B90000E948F056C2F6460C8010E948F056C2F26
:100BA0006B7FC8010E948F0583EC90E00197F1F7FD
:100BB000CF911F910F9108950F931F93CF93DF93C0
:100BC0008C01D62FC42F607F642B0E94C30580E167
:100BD000D89FB00111246C2BC801DF91CF911F91D8
:100BE0000F910C94C305CF93DF9300D000D01F92D8
:100BF0001F92CDB7DEB798E0E8E1F2E0DE01119692
:100C000001900D929A95E1F79091E103961710F4F7
:100C10006FEF690F262F30E0220F331F41E050E0C5
:100C20004C0F5D1F240F351FF9016081680F60684C
:100C300040E089ED93E028960FB6F894DEBF0FBE32
:100C4000CDBFDF91CF910C94DC0540E061E089EDF0
:100C500093E00E94DC058BE39FE10197F1F7089593
:100C600041E00E94DC0581E090E00895FF920F933F
:100C70001F93CF93DF93EC01F62E80E00E94F305E3
:100C80008E01FE0101900020E9F73197EC1BFD0B6E
:100C9000C8018C1B9D0B8E179F0770F4F8016191A2
:100CA0008F0141E089ED93E00E94DC056F2D802FDC
:100CB0008C1B0E94F305E5CFDF91CF911F910F911F
:100CC000FF90089585ED8093BC008091360390914C
:100CD0003703A0913803B09139030796A11DB11DC8
:100CE00023E0B695A795979587952A95D1F72091FA
:100CF000BC0024FD03C010923403089540913603D4
:100D0000509137036091380370913903452B462B7E
:100D1000472B69F30097A105B10541F025E32A951A
:100D2000F1F700000197A109B109E1CF80913503E6
:100D30000C94F3031F920F920FB60F9211242F936E
:100D40003F938F939F93AF93BF93809104039091B0
:100D50000503A0910603B09107033091D60223E06A
:100D6000230F2D3758F50196A11DB11D2093D602F2
:100D70008093040390930503A0930603B0930703A5
:100D80008091D7029091D802A091D902B091DA0255
:100D90000196A11DB11D8093D7029093D802A09314
:100DA000D902B093DA02BF91AF919F918F913F9199
:100DB0002F910F900FBE0F901F90189526E8230FCC
:100DC0000296A11DB11DD2CF1F920F920FB60F92A6
:100DD00011240BB60F922F933F934F935F936F9312
:100DE0007F938F939F93AF93BF93EF93FF938091E4
:100DF000B900887F803609F44DC008F040C08832C1
:100E000009F4A9C028F5803109F49DC0C8F48823ED
:100E100009F4FBC0883009F496C0FF91EF91BF91AF
:100E2000AF919F918F917F916F915F914F913F9182
:100E30002F910F900BBE0F900FBE0F901F90189523
:100E4000883109F488C0803241F78093320314C09E
:100E5000803409F49DC040F48033B9F38833E9F657
:100E60008093320385ECB0C0803509F485C08835A5
:100E700009F496C0883489F60E946206CECF88397C
:100E800009F48CC038F5883729F050F4883611F011
:100E9000803719F683E0809334031092D50257C04F
:100EA000883809F47BC0803919F0803809F0B5CF53
:100EB0008091D502803208F071C0E091D50281E0C6
:100EC0008E0F8093D5028091BB00F0E0EB54FD4F74
:100ED00080833DC0803B39F0E0F4803A09F479C06A
:100EE000883A09F09ACF84E0809334031092B402D8
:100EF0001092B302E0910A03F0910B0319958091CF
:100F0000B30281110FC081E08093B302109293026B
:100F100009C0803C09F4A6CF883C09F4A3CF883BE4
:100F200009F07BCFE091B40281E08E0F8093B40290
:100F3000F0E0ED56FD4F80818093BB009091B402AC
:100F40008091B30229C080910F038093BB0085EC90
:100F50008093BC0062CF9091310380913003981749
:100F600058F5E091310381E08E0F80933103F0E07A
:100F7000E05FFC4F8081E9CFE091310381E08E0F8B
:100F8000809331038091BB00F0E0E05FFC4F8083F1
:100F900090913103809130039817C8F285E8D8CF3B
:100FA000E091310381E08E0F809331038091BB008B
:100FB000F0E0E05FFC4F80838091330381115CCFD0
:100FC00081E080930E0384EA8093BC001092340386
:100FD00024CF85EC8093BC00109234038091D5021D
:100FE000803230F4E091D502F0E0EB54FD4F1082F6
:100FF0006091D50270E0E0910803F091090385EB60
:1010000092E019951092D50208CF1092320334CF96
:10101000109261031092600388EE93E0A0E0B0E0CC
:101020008093620390936303A0936403B09365037A
:101030008AE292E090935F0380935E031092DC0358
:101040001092DB0386E492E09093DA038093D90355
:1010500087E28093DD0384E18093E20384E0809360
:10106000E3031092E40310926C0310927003109249
:101070006F03109271038CE392E090936B03809363
:101080006A03E6E8F3E01082148213821582369632
:1010900083E0E23CF807B9F784E092E09093CD0357
:1010A0008093CC0380E092E09093CF038093CE03B3
:1010B00084E08093D0038093D10388E092E0909302
:1010C000CB038093CA038AE090E09093D30380938C
:1010D000D20384EF91E09093D5038093D4031092D0
:1010E000D8031092D7031092C6031092C703109230
:1010F000C8031092C9031092D6030895789484B55A
:10110000826084BD84B5816084BD85B5826085BD03
:1011100085B5816085BD80916E00816080936E0091
:101120001092810080918100826080938100809183
:101130008100816080938100809180008160809334
:1011400080008091B10084608093B1008091B000F4
:1011500081608093B00080919100826080939100C3
:1011600080919100816080939100809190008160D6
:10117000809390008091A10082608093A100809173
:10118000A10081608093A1008091A0008160809384
:10119000A000809121018260809321018091210132
:1011A00081608093210180912001816080932001E2
:1011B00080917A00846080937A0080917A008260C6
:1011C00080937A0080917A00816080937A00809188
:1011D0007A00806880937A001092C1000E94DC033C
:1011E0001092DE038091E303823018F098E0909330
:1011F000DE038093E10362E370E080E090E00E9410
:1012000064036091E40389ED93E00E948F0568EE2A
:1012100073E080E090E00E94640360E389ED93E076
:101220000E94C305CBE4D6E4CE010197F1F760E359
:1012300089ED93E00E94C3052197F1F760E389ED02
:1012400093E00E94C30583E592E00197F1F760E225
:1012500089ED93E00E94C3056091DE03606240E087
:1012600089ED93E00E94DC0584E08093DF0340E099
:101270006CE089ED93E00E94DC050E94250682E087
:101280008093E00340E066E089ED93E00E94DC0596
:1012900040E062E089ED93E00E94DC058BE39FE192
:1012A0000197F1F788E08093E40360E089ED93E033
:1012B0000E948F0560E081E00E94F3054AE050E063
:1012C0006EE472E089ED93E00E940D0261E081E03E
:1012D0000E94F30548E050E069E572E089ED93E093
:1012E0000E940D020E94DC030E94DC0381E08093D7
:1012F0003A0388E480935C0310923B0310925D03F1
:101300008CEA90E00E948A0590E080E00E948A05C5
:1013100010923B0310925D038EEE90E00E948A05CE
:1013200081E00E941404812C912C5401839440E0AC
:10133000242E40E0342E58E4452E77247394709286
:10134000D6038FB7F8944091040350910503609140
:101350000603709107038FBF8091C6039091C70366
:10136000A091C803B091C903481B590B6A0B7B0BB2
:101370008091D2039091D303B0E0A0E08417950749
:10138000A607B70708F02FC1C0E08091D003C817A7
:1013900060F4E091CC03F091CD03EC0FF11D62E01D
:1013A00080810E94FF02CF5FF0CF612C8091D1033A
:1013B000681608F05FC0062D10E0E091CE03F091B2
:1013C000CF03E00FF11F61E080810E94FF02E091F6
:1013D000CE03F091CF03E00FF11F60E080810E9407
:1013E000CD02D501C401062C04C0880F991FAA1F85
:1013F000BB1F0A94D2F76C017C01E094F094512C4D
:101400008091D0035816F8F4C52DD0E0E091CC03BC
:10141000F091CD03EC0FFD1F80810E94A102249664
:10142000CC0FDD1FC659DC4F892B41F4888199818F
:101430008C299D29998388835394E2CF888199814F
:101440008E219F21F7CFE091CE03F091CF03E00FE3
:10145000F11F61E080810E94CD028091CE039091C6
:10146000CF03080F191F60E0F80180810E94FF027E
:1014700063949CCFCAE6D3E0FE01878D90A1892BAF
:1014800031F4148E8FEF9FEF968F858F11A23696D1
:1014900093E0E63AF90789F710E08091D003181736
:1014A00008F053C000E0E12EF12CEE0CFF1CF70118
:1014B000EE58FC4F7F012091D103021708F043C082
:1014C000F70160817181002E02C0769567950A94BC
:1014D000E2F7129F90011124200F311DEAE6F3E09C
:1014E00080E0458D568D2417350709F47CC18F5F48
:1014F00036968A30B1F760FF24C0EAE6F3E090E068
:1015000080E0448D411118C0E091CA03F091CB03F3
:10151000E20FF31F608146E0489FF001499FF00D04
:101520001124E659FC4F648F368F258F10A2178E39
:1015300061E00E949D0105C0019636968A309105B2
:1015400001F70F5FB8CF1F5FA8CF80E099A191117D
:10155000892F269693E0C63AD907C1F79FB7F8942A
:1015600040910403509105036091060370910703B5
:101570009FBF4093C6035093C7036093C803709303
:10158000C903882381F180918B03882361F18091C5
:10159000890390918A03019731F5209186032332C4
:1015A00009F4A2C02A3209F0B8C0E0E2F2E0ADEFDF
:1015B000B2E091918D91981318C186E292E08E1756
:1015C0009F07B9F7709203030E94250670E060E060
:1015D00082E692E00E94360661E070E08EE692E0DC
:1015E0000E94360602C01092D6038091030388231E
:1015F00009F4F6C070923A0340925C0310923B03E8
:1016000010925D038AEA90E00E948A0580E00E94C1
:1016100014040E943F036B017C018091340381110B
:1016200080C070923403709233039FEF9093320323
:10163000109231031092300370920F0380910F03C8
:10164000806980930F0380910E03813009F0A0C060
:1016500010920E030E943F036B017C0180910F03E7
:101660008093BB008091360390913703A09138039B
:10167000B0913903892B8A2B8B2BA1F00E943F0359
:1016800000913603109137032091380330913903CC
:101690006C197D098E099F09061717072807390756
:1016A00008F460C08091BC0083FDD8CF85EC8093A6
:1016B000BC000E943F036B017C01809134038130A8
:1016C00009F46AC080913103811188C0809131038F
:1016D000A0E1B3E0EBEDF2E090E0981709F447C029
:1016E0002D9121939F5FF9CF109203038091FB020C
:1016F0009091FC02FC01E350FD4F208301969093F2
:10170000FC028093FB02069709F06FCF109203034F
:101710001092FC021092FB0268CF222309F465CFDD
:10172000E5CF8091360390913703A0913803B091B3
:101730003903892B8A2B8B2B09F46FCF0E943F032F
:10174000009136031091370320913803309139030B
:101750006C197D098E099F09061717072807390795
:1017600008F05BCF809135030E94F30380E0109274
:101770000D0380930C038EE593E00E9414050E94F4
:10178000A5052114310409F4DACD0E940000D5CD5D
:10179000E5EEE093BC008DCF809136039091370346
:1017A000A0913803B0913903892B8A2B8B2B09F434
:1017B00084CF0E943F03009136031091370320919C
:1017C0003803309139036C197D098E099F0906177A
:1017D00017072807390708F070CFC4CF81E078CF0A
:1017E00090E080E0CCCF6170A4CE109203030E9401
:1017F000250670E060E086E792E00E94360661E030
:1018000070E080E892E00E94360668EB7BE080E0C2
:1018100090E00E9464030E94250661E070E08DEF75
:1018200092E0DECEEE0FFF1F881F8BBF0790F69170
:10183000E02D1994F894FFCF090807060D0C0B0A48
:101840003132334134353642373839432A30234434
:1018500000004000140054003230323130310000BA
:1018600000005B052E05A2050405270514050505E6
:10187000000000003B03FB02CA020000000030062B
:101880000D02A2059603434153412041435945317E
:1018900000422D4730312D5332004249454E5645C6
:1018A0004E49444F200041204341534120004552BE
:1018B000524F5220454E2000434F4E545241534503
:0818C0004E4941203A200000CE
:10E000000D9489F10D94B2F10D94B2F10D94B2F129
:10E010000D94B2F10D94B2F10D94B2F10D94B2F1F0
:10E020000D94B2F10D94B2F10D94B2F10D94B2F1E0
:10E030000D94B2F10D94B2F10D94B2F10D94B2F1D0
:10E040000D94B2F10D94B2F10D94B2F10D94B2F1C0
:10E050000D94B2F10D94B2F10D94B2F10D94B2F1B0
:10E060000D94B2F10D94B2F10D94B2F10D94B2F1A0
:10E070000D94B2F10D94B2F10D94B2F10D94B2F190
:10E080000D94B2F10D94B2F10D94B2F10D94B2F180
:10E090000D94B2F10D94B2F10D94B2F10D94B2F170
:10E0A0000D94B2F10D94B2F10D94B2F10D94B2F160
:10E0B0000D94B2F10D94B2F10D94B2F10D94B2F150
:10E0C0000D94B2F10D94B2F10D94B2F10D94B2F140
:10E0D0000D94B2F10D94B2F10D94B2F10D94B2F130
:10E0E0000D94B2F141546D656761323536300041AF
:10E0F000726475696E6F206578706C6F72657220DE
:10E1000073746B3530305632206279204D4C530099
:10E11000426F6F746C6F616465723E004875683F52
:10E1200000436F6D70696C6564206F6E203D200048
:10E130004350552054797065202020203D20005FF9
:10E140005F4156525F415243485F5F3D2000415658
:10E1500052204C696243205665723D20004743437C
:10E160002056657273696F6E203D20004350552024
:10E1700049442020202020203D20004C6F7720663D
:10E18000757365202020203D20004869676820665F
:10E190007573652020203D200045787420667573D6
:10E1A00065202020203D20004C6F636B2066757336
:10E1B000652020203D20004D617220203720323024
:10E1C000313300312E362E3800342E332E350056A2
:10E1D00023202020414444522020206F7020636F70
:10E1E00064652020202020696E73747275637469E1
:10E1F0006F6E2061646472202020496E74657272B3
:10E20000757074006E6F20766563746F7200726A49
:10E210006D702020006A6D70200057686174207056
:10E220006F72743A00506F7274206E6F7420737541
:10E2300070706F72746564004D7573742062652030
:10E2400061206C6574746572002000577269747483
:10E25000696E672045450052656164696E672045B7
:10E26000450045452065727220636E743D00504F35
:10E27000525400303D5A65726F2061646472003FF1
:10E280003D43505520737461747300403D454550C3
:10E29000524F4D207465737400423D426C696E6B41
:10E2A000204C454400453D44756D70204545505215
:10E2B0004F4D00463D44756D7020464C415348001B
:10E2C000483D48656C70004C3D4C69737420492F83
:10E2D0004F20506F72747300513D51756974005234
:10E2E0003D44756D702052414D00563D73686F7707
:10E2F00020696E7465727275707420566563746FF0
:10E30000727300593D506F727420626C696E6B00BD
:10E310002A0011241FBECFEFD1E2DEBFCDBF01E046
:10E320000CBF12E0A0E0B2E0EEE1FDEF03E00BBFB6
:10E3300002C007900D92A030B107D9F712E0A0E01B
:10E34000B2E001C01D92AE30B107E1F70F9460F367
:10E350000D948DFE01E20EBF0FEF0DBF11241FBE05
:10E360000D9460F30D9400F020E030E040ED57E0B4
:10E3700005C0FA013197F1F72F5F3F4F2817390792
:10E38000C0F308959C01260F311DC901A0E0B0E043
:10E390002F5F3F4FABBFFC018791882361F08093D3
:10E3A000C6008091C00086FFFCCF8091C0008064D1
:10E3B0008093C000EACF08958DE08093C6008091DD
:10E3C000C00086FFFCCF8091C00080648093C000B5
:10E3D0008AE08093C6008091C00086FFFCCF8091C8
:10E3E000C00080648093C00008950F94C2F10F9420
:10E3F000DCF10895FC019081992359F09093C600B7
:10E400008091C00086FFFCCF8091C0008064809323
:10E41000C0003196992379F70895282F982F929567
:10E420009F70892F805D8A3308F0895F8093C600D2
:10E430008091C00086FFFCCF8091C00080648093F3
:10E44000C000822F8F70982F905D9A3308F0995FEB
:10E450009093C6008091C00086FFFCCF8091C000E1
:10E4600080648093C00008959C01FB01853691056E
:10E470001CF46330710594F0C90164E670E00F94F8
:10E480002EFE605D7F4F6093C6008091C00086FFC6
:10E49000FCCF8091C00080648093C0002B30310598
:10E4A00014F43297B4F0C90164E670E00F942EFEC4
:10E4B0006AE070E00F942EFE605D7F4F6093C600AF
:10E4C0008091C00086FFFCCF8091C0008064809363
:10E4D000C000C9016AE070E00F942EFEC0968093E0
:10E4E000C6008091C00086FFFCCF8091C000806490
:10E4F0008093C00008951F93182F8EE692EE60E07F
:10E500000F94C2F11093C6008091C00086FFFCCF2B
:10E510008091C00080648093C0000F94DCF11F9153
:10E5200008952F923F924F925F926F927F928F92B7
:10E530009F92AF92BF92CF92DF92EF92FF920F9392
:10E540001F93DF93CF93CDB7DEB762970FB6F894E2
:10E55000DEBF0FBECDBF382E622ECA01DB015C01CB
:10E560006D01772420E2222E2E010894411C511CBB
:10E570008BC081E0A81680E0B80681E0C80680E084
:10E58000D80628F0C601AA27BB270F940DF2BB2797
:10E59000AD2D9C2D8B2D0F940DF28A2D0F940DF225
:10E5A0002092C6008091C00086FFFCCF8091C00001
:10E5B00080648093C0009DE29093C6008091C0006B
:10E5C00086FFFCCF8091C00080648093C0002092C1
:10E5D000C6008091C00086FFFCCF8091C00080649F
:10E5E0008093C00019828601750188249924A1E0D6
:10E5F0003A1651F03A1620F0B2E03B1661F409C029
:10E600000BBFF701779007C0C7010F9477FE782EF4
:10E6100002C0F7017080872D0F940DF22092C60082
:10E620008091C00086FFFCCF8091C0008064809301
:10E63000C000872D8052F401EF70F0708F3520F408
:10E64000E40DF51D708204C0E40DF51D8EE280839B
:10E650000894E11CF11C011D111D0894811C911CE2
:10E6600090E18916910409F0C2CF80E190E0A0E02A
:10E67000B0E0A80EB91ECA1EDB1E198AC2010F9493
:10E68000FAF10F94DCF16A94662009F072CF629679
:10E690000FB6F894DEBF0FBECDBFCF91DF911F91B3
:10E6A0000F91FF90EF90DF90CF90BF90AF909F9031
:10E6B0008F907F906F905F904F903F902F90089534
:10E6C0002F923F924F925F926F927F928F929F9282
:10E6D000AF92BF92CF92DF92EF92FF920F931F9370
:10E6E000DF93CF93CDB7DEB7CD53D1400FB6F894BB
:10E6F000DEBF0FBECDBF01E20EBF0FEF0DBF94B75F
:10E70000F894A89514BE80916000886180936000A1
:10E7100010926000789493FF05C0E0910002F091A0
:10E7200001021995279A2F9A8091C00082608093E8
:10E73000C00080E18093C40088E18093C1000000A4
:10E74000EE24FF24870144E0A42EB12CCC24DD2448
:10E7500024C0C5010197F1F70894E11CF11C011DCB
:10E76000111D21E2E2162EE4F20620E0020720E06D
:10E77000120718F031E0C32ED12CC801B70127ECE5
:10E780003BE140E050E00F9441FE611571058105C9
:10E79000910519F485B1805885B98091C00087FD35
:10E7A00003C0C114D104A9F2A6014F5F5F4FC25E3E
:10E7B000DE4F59834883CE51D140C25EDE4F8881FF
:10E7C0009981CE51D140019711F00D9410FEC05D9A
:10E7D000DE4F19821882C053D14060E0C15DDE4F28
:10E7E0001882CF52D14088249924C35DDE4F19820C
:10E7F0001882CD52D140C05EDE4F188219821A8233
:10E800001B82C052D140CE5CDE4F188219821A8220
:10E810001B82C253D140EE24FF2487010BBFF701B6
:10E8200007911691C45CDE4F19830883CC53D14005
:10E830000D940BFEC25EDE4F28813981CE51D1404E
:10E840002130310509F52091C600C25EDE4F1982E4
:10E850001882CE51D14022C02F5F3F4F4F4F5F4FA4
:10E86000213082E138078AE7480780E0580780F0C6
:10E87000C45CDE4FE881F981CC53D140EF5FFF4F9C
:10E8800019F0EE27FF27099420E030E040E050E047
:10E890008091C00087FFE0CF2091C600C35DDE4FAE
:10E8A00048815981CD52D1404F5F5F4FC35DDE4FEC
:10E8B00059834883CD52D140213209F063C64A3092
:10E8C000510508F05FC60894811C911C53E0851621
:10E8D000910409F059C600E010E018C081E280936D
:10E8E000C6008091C00086FFFCCF8091C00080648C
:10E8F0008093C0002F5F3F4F2931310579F70F9486
:10E90000DCF10F5F1F4F0530110519F020E030E0FA
:10E91000E5CF10920A0210920B0210920C02109294
:10E920000D02109206021092070210920802109235
:10E930000902109202021092030210920402109235
:10E9400005028FEE90EE60E00F94F5F180E191EE1C
:10E9500060E00F94C2F18091C00087FFFCCF9091DE
:10E96000C600903608F09F759032B8F09093C600BC
:10E970008091C00086FFFCCF8091C00080648093AE
:10E98000C000A0E2A093C6008091C00086FFFCCF2B
:10E990008091C00080648093C000983409F4D7C18E
:10E9A0009934B8F4923409F459C1933458F490333B
:10E9B00019F1903308F4E3C59F33A1F1903409F0C5
:10E9C000DEC5BDC0953409F470C1963409F0D7C5D1
:10E9D00098C1923509F42BC2933538F49C3409F46C
:10E9E000F5C1913509F0CBC518C2963509F445C279
:10E9F000993509F0C4C567C483E792EE62E00F94CD
:10EA0000F5F110920602109207021092080210927D
:10EA1000090210920A0210920B0210920C0210923C
:10EA20000D0213C18FE792EE62E00F94F5F18FEEC5
:10EA300090EE60E00F94F5F181E291EE60E00F94CA
:10EA4000C2F187EB91EE60E00F94F5F180E391EE77
:10EA500060E00F94C2F184EE90EE60E00F94F5F167
:10EA60008FE391EE60E00F94C2F186E090E061E008
:10EA700070E00F9434F20F94DCF18DE591EE60E0DC
:10EA80000F94C2F189EC91EE60E00F94F5F18EE401
:10EA900091EE60E00F94C2F183EC91EE60E00F9490
:10EAA000F5F18CE691EE60E00F94C2F18EE10F94E7
:10EAB0000DF288E90F940DF281E00F940DF20F949E
:10EAC000DCF18BE791EE60E00F94C2F119E0E0E039
:10EAD000F0E010935700E4918E2F0F940DF20F94F5
:10EAE000DCF18AE891EE60E00F94C2F1E3E0F0E03F
:10EAF00010935700E4918E2F0F940DF20F94DCF1D8
:10EB000089E991EE60E00F94C2F1E2E0F0E0109349
:10EB10005700E4918E2F0F940DF20F94DCF188EAE8
:10EB200091EE60E00F94C2F1E1E0F0E01093570045
:10EB30001491812F0F940DF20F94DCF107CF8BE825
:10EB400092EE62E00F94F5F18BE492EE60E00F94A8
:10EB5000F5F10F94DCF100E010E019C0C8016F2D51
:10EB60000F947FFEFF2031F489E492EE60E00F9471
:10EB7000C2F10BC0F092C6008091C00086FFFCCFAE
:10EB80008091C00080648093C0000F5F1F4FC80158
:10EB900081519F41A0E0B0E0ABBFFC01F790BAE229
:10EBA000FB1621F0E2E000301E07C1F60F94DCF105
:10EBB0000F94DCF187E592EE60E00F94F5F10F948D
:10EBC000DCF1CC24DD2400E010E01EC0C8010F946D
:10EBD00077FEF82E882331F489E492EE60E00F94FA
:10EBE000C2F10BC08093C6008091C00086FFFCCFAD
:10EBF0008091C00080648093C000FE1419F00894D6
:10EC0000C11CD11C0F5F1F4FC80181519F41A0E063
:10EC1000B0E0ABBFFC01E790FAE2EF1621F022E092
:10EC20000030120799F60F94DCF10F94DCF182E6C4
:10EC300092EE60E00F94C2F1C60161E070E00F94C3
:10EC400034F20F94DCF10F94DCF110920202109276
:10EC50000302109204021092050278CE89E992EE26
:10EC600062E00F94F5F1279A2F9A16C02F9880E052
:10EC700090E0E0EDF7E03197F1F7019684369105E9
:10EC8000C1F72F9A80E090E0E0EDF7E03197F1F7DF
:10EC9000019684369105C1F78091C00087FFE6CFC9
:10ECA0008091C00087FFFCCF64C485EA92EE62E0E9
:10ECB0000F94F5F140910202509103026091040219
:10ECC0007091050281E020E10F9491F2809102029F
:10ECD00090910302A0910402B091050280509F4FD1
:10ECE000AF4FBF4F8093020290930302A0930402A0
:10ECF000B093050280509041A040B04008F426CE69
:10ED0000A4CF83EB92EE62E00F94F5F140910602FE
:10ED100050910702609108027091090280E020E1A1
:10ED20000F9491F28091060290910702A09108023F
:10ED3000B091090280509F4FAF4FBF4F80930602A2
:10ED400090930702A0930802B0930902FFCD80ECD4
:10ED500092EE62E00F94F5F183E792EE60E00F949B
:10ED6000F5F18FE792EE60E00F94F5F18BE892EE0B
:10ED700060E00F94F5F189E992EE60E00F94F5F10F
:10ED800085EA92EE60E00F94F5F183EB92EE60E09D
:10ED90000F94F5F180EC92EE60E00F94F5F187ECC2
:10EDA00092EE60E00F94F5F188ED92EE60E00F9442
:10EDB000F5F18FED92EE60E00F94F5F18AEE92EEB0
:10EDC00060E00F94F5F183E093EEBDCD87EC92EE19
:10EDD00062E00F94F5F181E40F947BF282E40F94EA
:10EDE0007BF283E40F947BF284E40F947BF285E45E
:10EDF0000F947BF286E40F947BF287E40F947BF20E
:10EE000088E40F947BF28AE40F947BF28BE40F94F6
:10EE10007BF28CE40F947BF299CD88ED92EE62E068
:10EE20000F94F5F1772473948824992409C48FED05
:10EE300092EE62E00F94F5F140910A0250910B02BC
:10EE400060910C0270910D0282E020E10F9491F22A
:10EE500080910A0290910B02A0910C02B0910D02D8
:10EE600080509F4FAF4FBF4F80930A0290930B0289
:10EE7000A0930C02B0930D0269CD8AEE92EE62E08F
:10EE80000F94F5F184EE90EE60E00F94F5F18FECC5
:10EE900091EE60E00F94F5F1662477244301CC5D98
:10EEA000DE4F19821882C452D140D401C301B695F5
:10EEB000A79597958795CA5DDE4F88839983AA8326
:10EEC000BB83C652D140CC5DDE4FA881B981C4520C
:10EED000D1401196CC5DDE4FB983A883C452D14096
:10EEE000CD0162E070E00F9434F2B0E2B093C6005E
:10EEF0008091C00086FFFCCF8091C0008064809329
:10EF0000C000EDE2E093C6008091C00086FFFCCF18
:10EF10008091C00080648093C000F0E2F093C6004E
:10EF20008091C00086FFFCCF8091C00080648093F8
:10EF3000C000CA5DDE4FE880F9800A811B81C6529D
:10EF4000D140BB27A12F902F8F2D0F940DF2CA5DBA
:10EF5000DE4F8881C652D1400F940DF2B0E2FB2EF5
:10EF6000F092C6008091C00086FFFCCF8091C00067
:10EF700080648093C0000DE30093C6008091C000C0
:10EF800086FFFCCF8091C00080648093C00010E2B7
:10EF90001093C6008091C00086FFFCCF8091C00016
:10EFA00080648093C0008BBEF3012791C65DDE4F65
:10EFB0002883CA52D140A22EBB24CC24DD2408943D
:10EFC000611C711C811C911C8BBEF3018791282E42
:10EFD0003324442455240894611C711C811C911C09
:10EFE0008BBEF3013791C55DDE4F3883CB52D140E4
:10EFF0000894611C711C811C911C8BBEF30147910C
:10F00000C45DDE4F4883CC52D140ADEFEA2EAFEF66
:10F01000FA2EAFEF0A2FAFEF1A2F6E0C7F1C801E57
:10F02000911E142D032DF22CEE24EA0CFB1C0C1D5A
:10F030001D1D0F940DF220E22093C6008091C000A8
:10F0400086FFFCCF8091C00080648093C000C65DC5
:10F05000DE4F8881CA52D1400F940DF230E23093D6
:10F06000C6008091C00086FFFCCF8091C000806404
:10F070008093C000C45DDE4F8881CC52D1400F9494
:10F080000DF240E24093C6008091C00086FFFCCFA5
:10F090008091C00080648093C000C55DDE4F888190
:10F0A000CB52D1400F940DF250E25093C6008091A4
:10F0B000C00086FFFCCF8091C00080648093C000B8
:10F0C0008FEFE8168FEFF80680E0080780E018075A
:10F0D00031F484E092EE60E00F94C2F1DFC0D80119
:10F0E000C7018070907CA070B0708050904CA040A0
:10F0F000B040D1F52FEF3FE340E050E0E222F322B1
:10F1000004231523CA5DDE4FA880B980CA80DB8046
:10F11000C652D140AE0CBF1CC01ED11EAA0CBB1CD7
:10F12000CC1CDD1C8EE092EE60E00F94C2F1BB2798
:10F13000A12F902F8F2D0F940DF28E2D0F940DF285
:10F1400030E23093C6008091C00086FFFCCF8091F2
:10F15000C00080648093C0004EE34093C60080915D
:10F16000C00086FFFCCF87C08EE09EEFA0E0B0E03D
:10F17000E822F9220A231B239CE0E91694E9F90608
:10F1800090E0090790E0190709F088C0C45DDE4FE0
:10F19000A881CC52D140EA2EFF2400E010E0102FCD
:10F1A0000F2DFE2CEE24C55DDE4FB881CB52D14031
:10F1B000EB0EF11C011D111DD601C501817090706F
:10F1C000A070B070DC0199278827E80EF91E0A1F8D
:10F1D0001B1F20EF30E040E050E0A222B322C42207
:10F1E000D52241E1AA0CBB1CCC1CDD1C4A95D1F7F1
:10F1F000EA0CFB1C0C1D1D1D81E090E0A0E0B0E0BE
:10F20000282239224A225B2235E1220C331C441C7D
:10F21000551C3A95D1F7E20CF31C041D151D57013E
:10F220006801AA0CBB1CCC1CDD1C85E192EE60E0E1
:10F230000F94C2F1C801AA27BB270F940DF2BB2778
:10F24000A12F902F8F2D0F940DF28E2D0F940DF274
:10F2500090E29093C6008091C00086FFFCCF809121
:10F26000C00080648093C000AEE3A093C60080918C
:10F27000C00086FFFCCF8091C00080648093C000F6
:10F28000C601AA27BB270F940DF2BB27AD2D9C2DDD
:10F290008B2D0F940DF28A2D0F940DF20F94DCF14B
:10F2A000CC5DDE4FE881F981C452D140F99709F471
:10F2B0004DCBF4E0EF2EF12C012D112D6E0C7F1CA7
:10F2C000801E911EF2CD83E093EE62E00F94F5F183
:10F2D0008AE192EE60E00F94C2F18091C00087FF56
:10F2E000FCCF1091C6001F751093C6008091C0001E
:10F2F00086FFFCCF8091C00080648093C0000F9493
:10F30000DCF1812F81548A3108F036C1163409F4BA
:10F3100095C0173490F4133409F44EC0143430F40B
:10F320001134F1F0123409F01DC130C0143409F465
:10F3300059C0153409F016C16BC01A3409F4C4C0A1
:10F340001B3438F4173409F48FC0183409F00AC19B
:10F35000A1C01B3409F4D2C01C3409F003C1E8C0B9
:10F360008FEF81B90DC082B1809582B980E090E0C5
:10F37000E0EDF7E03197F1F70196883C9105C1F790
:10F380008091C00087FFEFCF12B8EFC08FEF84B934
:10F390000DC085B1809585B980E090E0E0EDF7E0A3
:10F3A0003197F1F70196883C9105C1F78091C00033
:10F3B00087FFEFCF15B8D9C08FEF87B90DC088B1DF
:10F3C000809588B980E090E0E0EDF7E03197F1F7C3
:10F3D0000196883C9105C1F78091C00087FFEFCF6F
:10F3E00018B8C3C08FEF8AB90DC08BB180958BB9A7
:10F3F00080E090E0E0EDF7E03197F1F70196883C8E
:10F400009105C1F78091C00087FFEFCF1BB8ADC059
:10F410008FEF8DB90DC08EB180958EB980E090E0F0
:10F42000E0EDF7E03197F1F70196883C9105C1F7DF
:10F430008091C00087FFEFCF1EB897C08FEF80BBD1
:10F440000DC081B3809581BB80E090E0E0EDF7E0F6
:10F450003197F1F70196883C9105C1F78091C00082
:10F4600087FFEFCF11BA81C08FEF83BB0DC084B38C
:10F47000809584BB80E090E0E0EDF7E03197F1F714
:10F480000196883C9105C1F78091C00087FFEFCFBE
:10F4900014BA6BC08FEF809301010FC080910201FD
:10F4A00080958093020180E090E0E0EDF7E03197F5
:10F4B000F1F70196883C9105C1F78091C00087FF64
:10F4C000EDCF1092020151C08FEF809304010FC065
:10F4D0008091050180958093050180E090E0E0ED4A
:10F4E000F7E03197F1F70196883C9105C1F78091DB
:10F4F000C00087FFEDCF1092050137C08FEF8093DA
:10F5000007010FC08091080180958093080180E079
:10F5100090E0E0EDF7E03197F1F70196883C910536
:10F52000C1F78091C00087FFEDCF109208011DC088
:10F530008FEF80930A010FC080910B01809580931B
:10F540000B0180E090E0E0EDF7E03197F1F70196F4
:10F55000883C9105C1F78091C00087FFEDCF1092E4
:10F560000B0103C085E292EEEEC98091C00087FFD7
:10F57000FCCF8091C600EAC988E392EEE4C98CE131
:10F5800091EEE1C988249924933011F1943028F444
:10F59000913089F09230B8F408C0953061F195301F
:10F5A000F0F0963009F048C043C02B3109F042C951
:10F5B00091E06BE13FC96227C15DDE4F2883CF52E6
:10F5C000D14092E037C9B22FA0E0622793E032C960
:10F5D000822F90E0A82BB92B622794E02BC92E3004
:10F5E00009F039C3622795E0C05DDE4F19821882A9
:10F5F000C053D1401FC9E1E0F0E0EC0FFD1FC05D3A
:10F60000DE4F08811981C053D140E00FF11F2083E4
:10F610000F5F1F4FC05DDE4F19830883C053D14079
:10F6200062270A171B0709F005C9D80196E002C92D
:10F63000261709F010C303C0973009F0FBC87724E0
:10F640009981933109F412C19431C8F4963009F4C8
:10F65000D8C0973050F4923009F406C1933009F4C1
:10F660006DC0913009F059C253C0913109F477C08F
:10F67000923108F0BBC0903109F04FC2F5C098310B
:10F6800009F487C0993150F4953109F4EFC09531F0
:10F6900008F4C6C1963109F040C2C2C19A3109F4DA
:10F6A0006CC09A3108F491C09B3109F45BC09D3164
:10F6B00009F033C29D81903359F48F81882311F46E
:10F6C0009EE11CC0813011F091E018C098E916C08D
:10F6D000892F807591F0903539F4E0E0F0E089E011
:10F6E0008093570094910AC0983539F4E3E0F0E034
:10F6F00089E080935700949101C090E01A821B82A8
:10F700008D818C831D829E831F8227E030E009C299
:10F710001A8288E08B8381E48C8386E58D8382E581
:10F720008E8389E48F8383E5888780E589878FE5E9
:10F730008A8782E38B872BE030E0F3C18A818139AD
:10F7400041F0823941F0803911F48FE005C080E04A
:10F7500003C082E001C08AE01A828B8344C0772410
:10F76000739482C08D81882311F48EE12CC0813086
:10F7700011F081E028C088E926C01A82E1E0F0E0BB
:10F7800089E08093570084918B831C8224E030E0D1
:10F79000C8C18B81803589F48C81883039F4E2E0EE
:10F7A000F0E089E08093570084910DC0E0E0F0E044
:10F7B00089E080935700849106C0E3E0F0E089E09F
:10F7C0008093570084911A82DFCF8D81836C99E0FA
:10F7D000E1E0F0E0082E90935700E89507B600FCB2
:10F7E000FDCF1A821B8223E030E09BC180EC8A832C
:10F7F000CE5CDE4F188219821A821B82C253D1401E
:10F800008EC18A8190E0A0E0B0E0582F44273327D2
:10F8100022278B8190E0A0E0B0E0DC0199278827C7
:10F82000282B392B4A2B5B2B8D8190E0A0E0B0E098
:10F83000282B392B4A2B5B2B8C8190E0A0E0B0E089
:10F84000BA2FA92F982F8827282B392B4A2B5B2BCF
:10F85000220F331F441F551FC05EDE4F288339839C
:10F860004A835B83C052D1401A8259C13A81C95C34
:10F87000DE4F3883C753D140CA5CDE4F1882C6536F
:10F88000D1408B81C82EDD24CA5CDE4F488159816E
:10F89000C653D140C42AD52A933109F082C0CE5C28
:10F8A000DE4F88819981AA81BB81C253D1408050AB
:10F8B000904CA340B04030F583E0CE5CDE4FE88052
:10F8C000F9800A811B81C253D140F70100935B008C
:10F8D00080935700E89507B600FCFDCFCE5CDE4F65
:10F8E000088119812A813B81C253D14000501F4FAA
:10F8F0002F4F3F4FCE5CDE4F088319832A833B8313
:10F90000C253D140C05EDE4F488159816A817B81FC
:10F91000C052D140DE011B9631E08C9111962C91A2
:10F9200011971296C75CDE4F2883C953D140C85C3B
:10F93000DE4F1882C853D14090E0C85CDE4FE881AA
:10F94000F981C853D1408E2B9F2B0C01FA01609393
:10F950005B0030935700E89511244E5F5F4F6F4F67
:10F960007F4F0EEFE02E0FEFF02ECE0CDF1CC114F8
:10F97000D10499F685E0C05EDE4F088119812A81A5
:10F980003B81C052D140F80120935B008093570027
:10F99000E89507B600FCFDCF81E180935700E8951C
:10F9A00035C0C05EDE4F88819981AA81BB81C0527B
:10F9B000D140B695A795979587957C018601ABE0D8
:10F9C000AA2EB12CAC0EBD1E0BC0D5016D915D01F0
:10F9D000C7010F947FFE0894E11CF11C01501040F8
:10F9E0000115110591F7A60160E070E0440F551F65
:10F9F000661F771FC05EDE4FE880F9800A811B8199
:10FA0000C052D1404E0D5F1D601F711F1A82C05E33
:10FA1000DE4F488359836A837B83C052D1407FC0C5
:10FA2000FA80C55CDE4FF882CB53D140C65CDE4F16
:10FA30001882CA53D1408B81C82EDD24C65CDE4FAC
:10FA400008811981CA53D140C02AD12A1A828981DA
:10FA5000BE016D5F7F4F843121F59601C05EDE4FA0
:10FA6000E880F9800A811B81C052D1400BBFF701A9
:10FA700087919691DB018C9311969C936E5F7F4FDB
:10FA8000D801C7010296A11DB11DC05EDE4F88835B
:10FA90009983AA83BB83C052D14022503040F1F6F3
:10FAA00036C0C05EDE4F288139814A815B81C052F9
:10FAB000D1400894C108D108760100E010E0089414
:10FAC000C11CD11C0894E11CF11C011D111DE20E8A
:10FAD000F31E041F151F21BDBB27A52F942F832FB5
:10FAE00082BD2F5F3F4F4F4F5F4FF89A80B5DB01CC
:10FAF0008D93BD012E153F054007510761F7C05E8C
:10FB0000DE4F288339834A835B83C052D1409601FC
:10FB10002D5F3F4FFB01108204C080EC8A8322E0FE
:10FB200030E08BE18093C6008091C00086FFFCCF5F
:10FB30008091C00080648093C000C15DDE4FF88179
:10FB4000CF52D140F093C6008091C00086FFFCCF19
:10FB50008091C00080648093C000432F3093C60022
:10FB60008091C00086FFFCCF8091C00080648093AC
:10FB7000C000922F2093C6008091C00086FFFCCF6A
:10FB80008091C00080648093C0008EE08093C600A6
:10FB90008091C00086FFFCCF8091C000806480937C
:10FBA000C00065E1C15DDE4FE880CF52D1406E25D7
:10FBB00069276427FE01319610C090819093C6009A
:10FBC0008091C00086FFFCCF31968091C000806498
:10FBD0008093C0006927215030402115310569F715
:10FBE0006093C6008091C00086FFFCCF8091C0006A
:10FBF00080648093C00085B1805885B9772081F4F6
:10FC0000C15DDE4F0881CF52D1400F5FC15DDE4F35
:10FC10000883CF52D14090E0A0E0B0E00D941AF4F8
:10FC200027982F9880E090E020ED37E0F901319798
:10FC3000F1F7019684369105C9F700008091C00064
:10FC40008D7F8093C00081E180935700E895EE2777
:10FC5000FF270994FFCF90E00D941AF497FB092E2B
:10FC600007260AD077FD04D02ED006D000201AF443
:10FC7000709561957F4F0895F6F7909581959F4F08
:10FC80000895A1E21A2EAA1BBB1BFD010DC0AA1FDD
:10FC9000BB1FEE1FFF1FA217B307E407F50720F0F5
:10FCA000A21BB30BE40BF50B661F771F881F991F70
:10FCB0001A9469F760957095809590959B01AC01B9
:10FCC000BD01CF010895AA1BBB1B51E107C0AA1FAC
:10FCD000BB1FA617B70710F0A61BB70B881F991FED
:10FCE0005A95A9F780959095BC01CD010895F99991
:10FCF000FECF92BD81BDF89A992780B50895262F31
:10FD0000F999FECF1FBA92BD81BD20BD0FB6F89400
:0EFD1000FA9AF99A0FBE01960895F894FFCF63
:00000001FF
