:100000000C9445010C9476010C9476010C947601C5
:100010000C9476010C9476010C9476010C94760184
:100020000C9476010C9476010C9476010C94760174
:100030000C9476010C9476010C9476010C94760164
:100040000C9476010C9476010C9476010C94760154
:100050000C9476010C9476010C9476010C949A061B
:100060000C9476010C9476010C9476010C94760134
:100070000C9476010C9476010C9476010C94760124
:100080000C9476010C9476010C9476010C94760114
:100090000C9476010C9476010C9476010C94E40691
:1000A0000C9476010C9476010C9476010C947601F4
:1000B0000C9476010C9476010C9476010C947601E4
:1000C0000C9476010C9476010C9476010C947601D4
:1000D0000C9476010C9476010C9476010C947601C4
:1000E0000C9476010C949D020C9458020C947901A6
:1000F0000C945E020C945B050C947D020C94CA0275
:100100000C9477020C9473020C9404050C9405056E
:100110000C943B030C9414050C9485020C9462021D
:100120000C9478010C948F020C942E050C9481028F
:100130000C9427050C940D020C9408080C94990259
:100140000C9430060C94A2050C948B020C9466025D
:100150000C9493020C946A020C9498020C94FB0287
:100160000C946D020C9496030000210024002700DB
:100170002A002D00300033000101000004010701B6
:100180000A0100002200250028002B002E0031006B
:10019000340002010000050108010B0100002000ED
:1001A0002300260029002C002F003200000100004F
:1001B00003010601090105050505070508080808EA
:1001C000020202020A0A08080404040401010101EF
:1001D00001010101030303030303030304070707EA
:1001E0000C0C0C0C0C0C0C0C02020202060606068F
:1001F000060606060B0B0B0B0B0B0B0B010210205C
:10020000200808102040102040800201020108044C
:1002100002010102040810204080804020100804E0
:100220000201800402018040201008040201080439
:10023000020101020408102040800102040810207D
:10024000408000000A0B02090C0D0E080703040190
:10025000000000000000000000000000000000009E
:10026000000000000000000000000000000012116B
:10027000100000000000000000000000000000006E
:100280000000000000000000080811241FBECFEF8E
:10029000D1E2DEBFCDBF00E00CBF12E0A0E0B2E0D3
:1002A000E8E3F8E100E00BBF02C007900D92A0392F
:1002B000B107D9F723E0A0E9B2E001C01D92A53E45
:1002C000B207E1F711E0C5E4D1E000E006C02197F4
:1002D0000109802FFE010E94120CC434D10780E076
:1002E0000807A9F70E947E080C941A0C0C940000D1
:1002F0000895089596E0899FD0011124A659BC4F16
:1003000090967C936E935F9791E091969C939197D2
:10031000E091D703F091D8039091D603992339F057
:10032000309751F0811108C080918603199430975D
:1003300019F05C968C91FACF0895CF92DF92EF92EC
:10034000FF920F931F9396E0899FF0011124E659C5
:10035000FC4F11A2278D30A12130310551F178F0E9
:100360002230310509F451C02330310509F452C05F
:100370001F910F91FF90EF90DF90CF90089566232B
:10038000B9F361E070E00E947A012FB7F894809190
:10039000040390910503A0910603B09107032FBFBA
:1003A0008093C2039093C303A093C403B093C50387
:1003B000DFCF9FB7F894C0900403D0900503E0907E
:1003C0000603F09007039FBF0091C2031091C3037F
:1003D0002091C4033091C503C01AD10AE20AF30A7E
:1003E0000091D4031091D50330E020E00C151D05D9
:1003F0002E053F0550F462E070E01F910F91FF90D1
:10040000EF90DF90CF900C947A016111B1CF63E04F
:1004100070E0F3CF70E060E0F0CFAF92BF92CF9288
:10042000DF92EF92FF920F931F93CF93DF936C01B4
:100430007B018B01040F151FEB015E01AE18BF0895
:10044000C017D10759F06991D601ED91FC91019047
:10045000F081E02DC6011995892B79F7C501DF914F
:10046000CF911F910F91FF90EF90DF90CF90BF90B1
:10047000AF9008958150823108F05AC0E82FF0E023
:100480008827EA5BFD4F8F4F0C94120C66026A02BC
:1004900058025E02620298026D02730277027D02C8
:1004A000810285028B028F029802930299029D02BB
:1004B000809180008F7780938000089580918000E4
:1004C0008F7DF9CF80918000877FF5CF84B58F77BE
:1004D00084BD089584B58F7DFBCF8091B0008F7768
:1004E0008093B00008958091B0008F7DF9CF809106
:1004F00090008F77809390000895809190008F7D79
:10050000F9CF80919000877FF5CF8091A0008F7701
:100510008093A00008958091A0008F7DF9CF8091F5
:10052000A000877FF5CF809120018F7780932001F5
:100530000895809120018F7DF9CF80912001877FE0
:10054000F5CFCF93DF93282F30E0F901EE5BFD4F1D
:100550008491F901E450FE4FD491F901EA54FE4F21
:10056000C491CC23A1F081110E943A02EC2FF0E05B
:10057000EE0FFF1FE456FE4FA591B491EC91ED23D1
:1005800081E090E009F480E0DF91CF91089580E070
:1005900090E0FACF862F0C94A1021F93CF93DF93A4
:1005A000282F30E0F901EE5BFD4F8491F901E45012
:1005B000FE4FD491F901EA54FE4FC491CC23A9F027
:1005C000162F81110E943A02EC2FF0E0EE0FFF1F70
:1005D000EE57FE4FA591B4918FB7F894EC9111119D
:1005E00008C0D095DE23DC938FBFDF91CF911F91A0
:1005F0000895DE2BF8CF862F642F0C94CD02CF9375
:10060000DF9390E0FC01E450FE4F24918A549E4F0A
:10061000FC0184918823C9F090E0880F991FFC01A8
:10062000E859FE4FA591B491FC01EE57FE4FC591DC
:10063000D49161110DC09FB7F8948C9120958223BD
:100640008C938881282328839FBFDF91CF910895C1
:10065000623051F49FB7F8943C91822F80958323A8
:100660008C93E8812E2BEFCF8FB7F894EC912E2B43
:100670002C938FBFEACF862F642F0C94FF023FB7D5
:10068000F8948091D7029091D802A091D902B091AC
:10069000DA0226B5A89B05C02F3F19F00196A11DCF
:1006A000B11D3FBFBA2FA92F982F8827BC01CD01BC
:1006B000620F711D811D911D42E0660F771F881F1B
:1006C000991F4A95D1F708958F929F92AF92BF924A
:1006D000CF92DF92EF92FF924B015C010E943F03A9
:1006E0006B017C010E943F036C197D098E099F09F3
:1006F000683E734081059105A8F321E0821A9108B4
:10070000A108B10888EEC80E83E0D81EE11CF11CD8
:1007100081149104A104B10429F7FF90EF90DF90B8
:10072000CF90BF90AF909F908F90089508952091A3
:10073000B302260F3327331F21323105ECF4209109
:100740003403FC0190E080E0243069F082E00895F9
:10075000A091B3022191AC014D565D4FA40FB52F6E
:10076000B11D2C930196861798F38091B302680F00
:100770006093B30280E0089581E0089510923403FD
:1007800081E08093330310920E0361E084E10E94C4
:10079000CD0261E085E10E94CD02E9EBF0E08081CD
:1007A0008E7F808380818D7F808388E48093B800F2
:1007B00085E48093BC00089510920D0310920C0301
:1007C00010923B0310925D030E94BE0388E791E004
:1007D00090930B0380930A0389E791E090930903B8
:1007E000809308030895CF93DF9391E09093920252
:1007F0008823B9F0C091B800D091BA008091BC00B4
:100800008A7B8093BC0060E084E10E94CD0260E0BE
:1008100085E10E94CD020E94BE03D093BA00C0932E
:10082000B800DF91CF9108958F929F92AF92BF92BF
:10083000CF92DF92EF92FF920F931F93CF93DF93AC
:10084000D0915D03D13208F0D7C0182FC0915C035E
:100850000E943F036B017C018091340381116BC0C6
:1008600082E080933403109333038FEF809332033D
:1008700010923103D0933003ACE3B3E0E0E1F3E056
:1008800080E0D81391C010920F0380910F03CC0F1A
:10089000C82BC0930F0380910E03813009F088C0EC
:1008A00010920E030E943F036B017C0180910F03A5
:1008B0008093BB008091360390913703A091380359
:1008C000B0913903892B8A2B8B2BA1F00E943F0317
:1008D000009136031091370320913803309139038A
:1008E0006C197D098E099F09061717072807390714
:1008F00008F442C08091BC0083FDD8CF85EC809382
:10090000BC000E943F036B017C0180913403823064
:1009100009F450C0809132038F3F09F46FC0809179
:100920003203803209F46CC080913203803309F4C1
:1009300069C084E026C08091360390913703A0916E
:100940003803B0913903892B8A2B8B2B09F484CF80
:100950000E943F038090360390903703A0903803A5
:10096000B09039036C197D098E099F098616970688
:10097000A806B90608F070CF809135030E94F303F2
:1009800085E010923B0310925D0310923A03DF91D1
:10099000CF911F910F91FF90EF90DF90CF90BF907C
:1009A000AF909F908F9008959D9191938F5F69CFA5
:1009B00085EEA5CF8091360390913703A09138033F
:1009C000B0913903892B8A2B8B2B09F49ECF0E947F
:1009D0003F03009136031091370320913803309183
:1009E00039036C197D098E099F0906171707280717
:1009F000390708F08ACFC0CF81E0C3CF80E0C1CFF4
:100A000082E0BFCF83E0BDCF0895E0910D038091D8
:100A10000C03E81730F4F0E0E552FD4F808190E0E0
:100A200008958FEF9FEF089590910D0380910C032F
:100A30002FEF3FEF981748F4E92FF0E0E552FD4F14
:100A4000208130E09F5F90930D03C901089580914C
:100A50000C0390910D03891B990B0895CF92DF929F
:100A6000EF92FF920F931F93CF93DF937C01CB0103
:100A70008A0120913A03222389F0EB016B01C40E15
:100A8000D51ECC15DD0569F06991D701ED91FC917A
:100A90000190F081E02DC7011995F3CF642F0E94DA
:100AA0009703C801DF91CF911F910F91FF90EF90B5
:100AB000DF90CF900895CF93DF931F92CDB7DEB72D
:100AC000698320913A032223F9F020915D032032BB
:100AD00058F021E030E0FC013383228390E080E095
:100AE0000F90DF91CF91089580913B03E82FF0E0C4
:100AF000E45CFC4F998190838F5F80933B038093EC
:100B00005D0381E090E0ECCF61E0CE0101960E94B0
:100B10009703F7CF682F8EE593E00C945B05FC01FB
:100B2000248131E030933A0320935C0310923B031D
:100B300010925D038385862B90E00E948A0581E0F8
:100B40000C94140490E080E00895CF93DF93EC01BF
:100B500064E670E080E090E00E946403D09391022C
:100B6000C093900281E080933A0380935C031092DB
:100B70003B0310925D03CE010E948A0581E0DF9164
:100B8000CF910C9414040F931F93CF938C01C62F15
:100B90000E948F056C2F6460C8010E948F056C2F26
:100BA0006B7FC8010E948F0583EC90E00197F1F7FD
:100BB000CF911F910F9108950F931F93CF93DF93C0
:100BC0008C01D62FC42F607F642B0E94C30580E167
:100BD000D89FB00111246C2BC801DF91CF911F91D8
:100BE0000F910C94C305CF93DF9300D000D01F92D8
:100BF0001F92CDB7DEB798E0E8E1F2E0DE01119692
:100C000001900D929A95E1F79091E103961710F4F7
:100C10006FEF690F262F30E0220F331F41E050E0C5
:100C20004C0F5D1F240F351FF9016081680F60684C
:100C300040E089ED93E028960FB6F894DEBF0FBE32
:100C4000CDBFDF91CF910C94DC0540E061E089EDF0
:100C500093E00E94DC058BE39FE10197F1F7089593
:100C600041E00E94DC0581E090E00895FF920F933F
:100C70001F93CF93DF93EC01F62E80E00E94F305E3
:100C80008E01FE0101900020E9F73197EC1BFD0B6E
:100C9000C8018C1B9D0B8E179F0770F4F8016191A2
:100CA0008F0141E089ED93E00E94DC056F2D802FDC
:100CB0008C1B0E94F305E5CFDF91CF911F910F911F
:100CC000FF90089585ED8093BC008091360390914C
:100CD0003703A0913803B09139030796A11DB11DC8
:100CE00023E0B695A795979587952A95D1F72091FA
:100CF000BC0024FD03C010923403089540913603D4
:100D0000509137036091380370913903452B462B7E
:100D1000472B69F30097A105B10541F025E32A951A
:100D2000F1F700000197A109B109E1CF80913503E6
:100D30000C94F3031F920F920FB60F9211242F936E
:100D40003F938F939F93AF93BF93809104039091B0
:100D50000503A0910603B09107033091D60223E06A
:100D6000230F2D3758F50196A11DB11D2093D602F2
:100D70008093040390930503A0930603B0930703A5
:100D80008091D7029091D802A091D902B091DA0255
:100D90000196A11DB11D8093D7029093D802A09314
:100DA000D902B093DA02BF91AF919F918F913F9199
:100DB0002F910F900FBE0F901F90189526E8230FCC
:100DC0000296A11DB11DD2CF1F920F920FB60F92A6
:100DD00011240BB60F922F933F934F935F936F9312
:100DE0007F938F939F93AF93BF93EF93FF938091E4
:100DF000B900887F803609F44DC008F040C08832C1
:100E000009F4A9C028F5803109F49DC0C8F48823ED
:100E100009F4FBC0883009F496C0FF91EF91BF91AF
:100E2000AF919F918F917F916F915F914F913F9182
:100E30002F910F900BBE0F900FBE0F901F90189523
:100E4000883109F488C0803241F78093320314C09E
:100E5000803409F49DC040F48033B9F38833E9F657
:100E60008093320385ECB0C0803509F485C08835A5
:100E700009F496C0883489F60E946206CECF88397C
:100E800009F48CC038F5883729F050F4883611F011
:100E9000803719F683E0809334031092D50257C04F
:100EA000883809F47BC0803919F0803809F0B5CF53
:100EB0008091D502803208F071C0E091D50281E0C6
:100EC0008E0F8093D5028091BB00F0E0EB54FD4F74
:100ED00080833DC0803B39F0E0F4803A09F479C06A
:100EE000883A09F09ACF84E0809334031092B402D8
:100EF0001092B302E0910A03F0910B0319958091CF
:100F0000B30281110FC081E08093B302109293026B
:100F100009C0803C09F4A6CF883C09F4A3CF883BE4
:100F200009F07BCFE091B40281E08E0F8093B40290
:100F3000F0E0ED56FD4F80818093BB009091B402AC
:100F40008091B30229C080910F038093BB0085EC90
:100F50008093BC0062CF9091310380913003981749
:100F600058F5E091310381E08E0F80933103F0E07A
:100F7000E05FFC4F8081E9CFE091310381E08E0F8B
:100F8000809331038091BB00F0E0E05FFC4F8083F1
:100F900090913103809130039817C8F285E8D8CF3B
:100FA000E091310381E08E0F809331038091BB008B
:100FB000F0E0E05FFC4F80838091330381115CCFD0
:100FC00081E080930E0384EA8093BC001092340386
:100FD00024CF85EC8093BC00109234038091D5021D
:100FE000803230F4E091D502F0E0EB54FD4F1082F6
:100FF0006091D50270E0E0910803F091090385EB60
:1010000092E019951092D50208CF1092320334CF96
:10101000109261031092600388EE93E0A0E0B0E0CC
:101020008093620390936303A0936403B09365037A
:101030008AE292E090935F0380935E031092DC0358
:101040001092DB0386E492E09093DA038093D90355
:1010500087E28093DD0384E18093E20384E0809360
:10106000E3031092E40310926C0310927003109249
:101070006F03109271038CE392E090936B03809363
:101080006A03E6E8F3E01082148213821582369632
:1010900083E0E23CF807B9F784E092E09093CD0357
:1010A0008093CC0380E092E09093CF038093CE03B3
:1010B00084E08093D0038093D10388E092E0909302
:1010C000CB038093CA038AE090E09093D30380938C
:1010D000D20384EF91E09093D5038093D4031092D0
:1010E000D8031092D7031092C6031092C703109230
:1010F000C8031092C9031092D6030895789484B55A
:10110000826084BD84B5816084BD85B5826085BD03
:1011100085B5816085BD80916E00816080936E0091
:101120001092810080918100826080938100809183
:101130008100816080938100809180008160809334
:1011400080008091B10084608093B1008091B000F4
:1011500081608093B00080919100826080939100C3
:1011600080919100816080939100809190008160D6
:10117000809390008091A10082608093A100809173
:10118000A10081608093A1008091A0008160809384
:10119000A000809121018260809321018091210132
:1011A00081608093210180912001816080932001E2
:1011B00080917A00846080937A0080917A008260C6
:1011C00080937A0080917A00816080937A00809188
:1011D0007A00806880937A001092C1000E94DC033C
:1011E0001092DE038091E303823018F098E0909330
:1011F000DE038093E10362E370E080E090E00E9410
:1012000064036091E40389ED93E00E948F0568EE2A
:1012100073E080E090E00E94640360E389ED93E076
:101220000E94C305CBE4D6E4CE010197F1F760E359
:1012300089ED93E00E94C3052197F1F760E389ED02
:1012400093E00E94C30583E592E00197F1F760E225
:1012500089ED93E00E94C3056091DE03606240E087
:1012600089ED93E00E94DC0584E08093DF0340E099
:101270006CE089ED93E00E94DC050E94250682E087
:101280008093E00340E066E089ED93E00E94DC0596
:1012900040E062E089ED93E00E94DC058BE39FE192
:1012A0000197F1F788E08093E40360E089ED93E033
:1012B0000E948F0560E081E00E94F3054AE050E063
:1012C0006EE472E089ED93E00E940D0261E081E03E
:1012D0000E94F30548E050E069E572E089ED93E093
:1012E0000E940D020E94DC030E94DC0381E08093D7
:1012F0003A0388E480935C0310923B0310925D03F1
:101300008CEA90E00E948A0590E080E00E948A05C5
:1013100010923B0310925D038EEE90E00E948A05CE
:1013200081E00E941404812C912C5401839440E0AC
:10133000242E40E0342E58E4452E77247394709286
:10134000D6038FB7F8944091040350910503609140
:101350000603709107038FBF8091C6039091C70366
:10136000A091C803B091C903481B590B6A0B7B0BB2
:101370008091D2039091D303B0E0A0E08417950749
:10138000A607B70708F02FC1C0E08091D003C817A7
:1013900060F4E091CC03F091CD03EC0FF11D62E01D
:1013A00080810E94FF02CF5FF0CF612C8091D1033A
:1013B000681608F05FC0062D10E0E091CE03F091B2
:1013C000CF03E00FF11F61E080810E94FF02E091F6
:1013D000CE03F091CF03E00FF11F60E080810E9407
:1013E000CD02D501C401062C04C0880F991FAA1F85
:1013F000BB1F0A94D2F76C017C01E094F094512C4D
:101400008091D0035816F8F4C52DD0E0E091CC03BC
:10141000F091CD03EC0FFD1F80810E94A102249664
:10142000CC0FDD1FC659DC4F892B41F4888199818F
:101430008C299D29998388835394E2CF888199814F
:101440008E219F21F7CFE091CE03F091CF03E00FE3
:10145000F11F61E080810E94CD028091CE039091C6
:10146000CF03080F191F60E0F80180810E94FF027E
:1014700063949CCFCAE6D3E0FE01878D90A1892BAF
:1014800031F4148E8FEF9FEF968F858F11A23696D1
:1014900093E0E63AF90789F710E08091D003181736
:1014A00008F053C000E0E12EF12CEE0CFF1CF70118
:1014B000EE58FC4F7F012091D103021708F043C082
:1014C000F70160817181002E02C0769567950A94BC
:1014D000E2F7129F90011124200F311DEAE6F3E09C
:1014E00080E0458D568D2417350709F47CC18F5F48
:1014F00036968A30B1F760FF24C0EAE6F3E090E068
:1015000080E0448D411118C0E091CA03F091CB03F3
:10151000E20FF31F608146E0489FF001499FF00D04
:101520001124E659FC4F648F368F258F10A2178E39
:1015300061E00E949D0105C0019636968A309105B2
:1015400001F70F5FB8CF1F5FA8CF80E099A191117D
:10155000892F269693E0C63AD907C1F79FB7F8942A
:1015600040910403509105036091060370910703B5
:101570009FBF4093C6035093C7036093C803709303
:10158000C903882381F180918B03882361F18091C5
:10159000890390918A03019731F5209186032332C4
:1015A00009F4A2C02A3209F0B8C0E0E2F2E0ADEFDF
:1015B000B2E091918D91981318C186E292E08E1756
:1015C0009F07B9F7709203030E94250670E060E060
:1015D00082E692E00E94360661E070E08EE692E0DC
:1015E0000E94360602C01092D6038091030388231E
:1015F00009F4F6C070923A0340925C0310923B03E8
:1016000010925D038AEA90E00E948A0580E00E94C1
:1016100014040E943F036B017C018091340381110B
:1016200080C070923403709233039FEF9093320323
:10163000109231031092300370920F0380910F03C8
:10164000806980930F0380910E03813009F0A0C060
:1016500010920E030E943F036B017C0180910F03E7
:101660008093BB008091360390913703A09138039B
:10167000B0913903892B8A2B8B2BA1F00E943F0359
:1016800000913603109137032091380330913903CC
:101690006C197D098E099F09061717072807390756
:1016A00008F460C08091BC0083FDD8CF85EC8093A6
:1016B000BC000E943F036B017C01809134038130A8
:1016C00009F46AC080913103811188C0809131038F
:1016D000A0E1B3E0EBEDF2E090E0981709F447C029
:1016E0002D9121939F5FF9CF109203038091FB020C
:1016F0009091FC02FC01E350FD4F208301969093F2
:10170000FC028093FB02069709F06FCF109203034F
:101710001092FC021092FB0268CF222309F465CFDD
:10172000E5CF8091360390913703A0913803B091B3
:101730003903892B8A2B8B2B09F46FCF0E943F032F
:10174000009136031091370320913803309139030B
:101750006C197D098E099F09061717072807390795
:1017600008F05BCF809135030E94F30380E0109274
:101770000D0380930C038EE593E00E9414050E94F4
:10178000A5052114310409F4DACD0E940000D5CD5D
:10179000E5EEE093BC008DCF809136039091370346
:1017A000A0913803B0913903892B8A2B8B2B09F434
:1017B00084CF0E943F03009136031091370320919C
:1017C0003803309139036C197D098E099F0906177A
:1017D00017072807390708F070CFC4CF81E078CF0A
:1017E00090E080E0CCCF6170A4CE109203030E9401
:1017F000250670E060E086E792E00E94360661E030
:1018000070E080E892E00E94360668EB7BE080E0C2
:1018100090E00E9464030E94250661E070E08DEF75
:1018200092E0DECEEE0FFF1F881F8BBF0790F69170
:08183000E02D1994F894FFCF9C
:10183800090807060D0C0B0A31323341343536429C
:10184800373839432A30234400004000140054003C
:10185800323032313031000000005B052E05A20520
:101868000405270514050505000000003B03FB02DD
:10187800CA020000000030060D02A205960343418B
:10188800534120414359453100422D4730312D53B2
:1018980032004249454E56454E49444F20004120AA
:1018A8004341534120004552524F5220454E20009B
:1018B800434F4E54524153454E4941203A2000006F
:00000001FF
