:100000000C94DC030C940D040C940D040C940D045E
:100010000C940D040C940D040C940D040C940D041C
:100020000C940D040C940D040C940D040C940D040C
:100030000C940D040C940D040C940D040C940D04FC
:100040000C940D040C940D040C940D040C940D04EC
:100050000C940D040C940D040C940D040C94D80E07
:100060000C940D040C94A20E0C94780E0C940D04B8
:100070000C940D040C940D040C940D040C940D04BC
:100080000C940D040C940D040C940D040C940D04AC
:100090000C940D040C940D040C940D040C94220F7C
:1000A0000C940D040C940D040C940D040C940D048C
:1000B0000C940D040C940D040C940D040C940D047C
:1000C0000C940D040C940D040C940D040C940D046C
:1000D0000C940D040C940D040C940D040C940D045C
:1000E0000C940D040C943C0A0C944C040C94E10CFC
:1000F0000C94E3050C94CF050C94E7050C94A00434
:100100000C9442100C94D50C0C943D040C940F04E8
:100110000C94020C0C94DD050C94D9050C94A805E4
:100120000C9415080C94E2050C94690E0C94470C81
:100130000C94CB050C94AE040C94A2050C94C7054A
:100140000C94E80C0C946D0B0C94B90C0C94FF14EB
:100150000C94C90C0C9429070C94B4050C94B005AC
:100160000C94940D0C94AC050C9433050C94B705C9
:100170000C9453070C940E0B0C94800C0C94FF07FA
:100180000C94C1050C9410040C94D5050C94E60451
:100190000C94BD0500000000003E5B4F5B3E3E6BD3
:1001A0004F6B3E1C3E7C3E1C183C7E3C181C577D11
:1001B000571C1C5E7F5E1C00183C1800FFE7C3E75D
:1001C000FF0018241800FFE7DBE7FF30483A060E6F
:1001D0002629792926407F050507407F05253F5AB6
:1001E0003CE73C5A7F3E1C1C08081C1C3E7F142226
:1001F0007F22145F5F005F5F06097F017F006689D1
:10020000956A606060606094A2FFA29408047E0416
:100210000810207E201008082A1C08081C2A08083C
:100220001E101010100C1E0C1E0C30383E383006FC
:100230000E3E0E06000000000000005F00000007F8
:10024000000700147F147F14242A7F2A1223130826
:10025000646236495620500008070300001C224102
:10026000000041221C002A1C7F1C2A08083E0808A6
:100270000080703000080808080800006060002056
:10028000100804023E5149453E00427F4000724939
:100290004949462141494D331814127F10274545DD
:1002A00045393C4A494931412111090736494949F3
:1002B00036464949291E0000140000004034000061
:1002C00000081422411414141414004122140802CA
:1002D000015909063E415D594E7C1211127C7F493D
:1002E0004949363E414141227F4141413E7F494992
:1002F00049417F090909013E414151737F080808BE
:100300007F00417F41002040413F017F081422418E
:100310007F404040407F021C027F7F0408107F3EE8
:100320004141413E7F090909063E4151215E7F0955
:10033000192946264949493203017F01033F4040BC
:10034000403F1F2040201F3F4038403F63140814A7
:100350006303047804036159494D43007F414141DF
:100360000204081020004141417F040201020440C0
:1003700040404040000307080020545478407F2844
:100380004444383844444428384444287F3854543A
:10039000541800087E090218A4A49C787F0804045D
:1003A0007800447D40002040403D007F10284400FC
:1003B00000417F40007C047804787C08040478388D
:1003C00044444438FC1824241818242418FC7C08BD
:1003D000040408485454542404043F44243C40403A
:1003E000207C1C2040201C3C4030403C44281028ED
:1003F000444C9090907C4464544C44000836410036
:100400000000770000004136080002010204023CAF
:100410002623263C1EA1A161123A4040207A38547E
:1004200054555921555579412254547842215554F7
:10043000784020545579400C1E527212395555554A
:1004400059395454545939555454580000457C4135
:100450000002457D420001457C407D1211127DF075
:10046000282528F07C545545002054547C547C0A9F
:10047000097F4932494949323A4444443A324A4868
:1004800048303A4141217A3A42402078009DA0A06C
:100490007D3D4242423D3D4040403D3C24FF2424BE
:1004A000487E4943662B2FFC2F2BFF0929F620C0DD
:1004B000887E090320545479410000447D4130482E
:1004C000484A32384040227A007A0A0A727D0D1971
:1004D000317D2629292F28262929292630484D40D3
:1004E00020380808080808080808382F10C8ACBACF
:1004F0002F102834FA00007B000008142A1422224E
:10050000142A14085500550055AA55AA55AAFF5596
:10051000FF55FF000000FF00101010FF001414141E
:10052000FF001010FF00FF1010F010F0141414FC66
:10053000001414F700FF0000FF00FF1414F404FC83
:10054000141417101F10101F101F1414141F001064
:100550001010F0000000001F101010101F101010DD
:1005600010F010000000FF101010101010101010EC
:10057000FF10000000FF140000FF00FF00001F102C
:10058000170000FC04F414141710171414F404F4E6
:100590000000FF00F714141414141414F700F714D7
:1005A0001414171410101F101F141414F414101026
:1005B000F010F000001F101F0000001F14000000CA
:1005C000FC140000F010F01010FF10FF141414FFC2
:1005D000141010101F00000000F010FFFFFFFFFFBD
:1005E000F0F0F0F0F0FFFFFF0000000000FFFF0F51
:1005F0000F0F0F0F3844443844FC4A4A4A347E02F5
:10060000020606027E027E02635549416338444475
:100610003C04407E201E2006027E020299A5E7A52A
:10062000991C2A492A1C4C7201724C304A4D4D309B
:100630003048784830BC625A463D3E494949007EC0
:100640000101017E2A2A2A2A2A44445F4444405157
:100650004A444040444A51400000FF0103E080FF0B
:10066000000008086B6B083612362436060F090F97
:1006700006000018180000001010003040FF0101B3
:10068000001F01011E00191D1712003C3C3C3C00DC
:100690000000000000002200250028002B002E0092
:1006A0003100340002010000050108010B010000C7
:1006B00020002300260029002C002F00320000011A
:1006C000000003010601090100000A0B02090C0DDC
:1006D0000E080703040100000000000000000000F5
:1006E000000000000000000000000000000000000A
:1006F00000000000121110000000000000000000C7
:1007000000000000000000000000000000000000E9
:100710002100240027002A002D00300033000101B1
:100720000000040107010A0101021020200808103E
:100730002040102040800201020108040201010251
:10074000040810204080804020100804020180042A
:100750000201804020100804020108040201010285
:100760000408102040800102040810204080050584
:100770000505070508080808020202020A0A080817
:100780000404040401010101010101010303030345
:1007900003030303040707070C0C0C0C0C0C0C0CD4
:1007A0000202020206060606060606060B0B0B0BE5
:1007B0000B0B0B0B4210FF1411241FBECFEFD1E225
:1007C000DEBFCDBF00E00CBF23E0A2E8B2E001C075
:1007D0001D92A93CB207E1F712E0A0E0B2E0ECEB19
:1007E000FFE200E00BBF02C007900D92A238B107F4
:1007F000D9F713E0CBEDD3E000E006C02197010963
:10080000802FFE010E948E15CA3DD10780E00807A7
:10081000A9F70E9459110C94CC170C94000008956C
:10082000AF92BF92CF92DF92EF92FF920F931F93FE
:10083000CF93DF936C017B018B01040F151FEB013C
:100840005E01AE18BF08C017D10759F06991D601F3
:10085000ED91FC910190F081E02DC6011995892B55
:1008600079F7C501DF91CF911F910F91FF90EF9024
:10087000DF90CF90BF90AF900895FC01538D448DD1
:10088000252F30E0842F90E0821B930B541710F03B
:10089000CF96089501970895FC01918D828D981748
:1008A00061F0A28DAE0FBF2FB11D5D968C91928D20
:1008B0009F5F9F73928F90E008958FEF9FEF089551
:1008C0002FB7F8948091F9029091FA02A091FB025F
:1008D000B091FC022FBF8093050390930603A09371
:1008E0000703B09308038DEF92E00E944C0497FF3A
:1008F00026C02FB7F8948091F9029091FA02A09146
:10090000FB02B091FC022FBF4091050350910603FA
:100910006091070370910803841B950BA60BB70B1E
:10092000409101035091020360910303709104030D
:1009300084179507A607B707B0F28FEF9FEF0895CA
:10094000FC01918D828D981731F0828DE80FF11D99
:10095000858D90E008958FEF9FEF0895FC01918DB4
:10096000228D892F90E0805C9F4F821B91098F73AD
:10097000992708958DEF92E00E94AE0421E0892B23
:1009800009F420E0822F0895FC01A48DA80FB92F4F
:10099000B11DA35ABF4F2C91848D90E001968F73A7
:1009A0009927848FA689B7892C93A089B1898C91C6
:1009B000837080648C93938D848D981306C0028815
:1009C000F389E02D80818F7D80830895EF92FF92DF
:1009D0000F931F93CF93DF93EC0181E0888F9B8D62
:1009E0008C8D98131AC0E889F989808185FF15C01C
:1009F0009FB7F894EE89FF896083E889F98980813F
:100A00008370806480839FBF81E090E0DF91CF910D
:100A10001F910F91FF90EF900895F62E0B8D10E02F
:100A20000F5F1F4F0F731127E02E8C8D8E110CC09E
:100A30000FB607FCFACFE889F989808185FFF5CFE9
:100A4000CE010E94C404F1CFEB8DEC0FFD2FF11D00
:100A5000E35AFF4FF0829FB7F8940B8FEA89FB8926
:100A600080818062CFCFCF93DF93EC01888D882384
:100A7000B9F0AA89BB89E889F9898C9185FD03C001
:100A8000808186FD0DC00FB607FCF7CF8C9185FFE6
:100A9000F2CF808185FFEDCFCE010E94C404E9CF63
:100AA000DF91CF91089580E090E0892B29F00E949A
:100AB000BA0481110E94000080E090E0892B49F087
:100AC00080E090E0892B29F00E94000081110E94B3
:100AD000000080E090E0892B49F080E090E0892BD5
:100AE00029F00E94000081110E94000080E090E047
:100AF000892B49F080E090E0892B29F00E940000CA
:100B000081110C94000008958150823108F05AC080
:100B1000E82FF0E08827E057FA4F8F4F0C948E159E
:100B2000B005B405A205A805AC05E205B705BD05ED
:100B3000C105C705CB05CF05D505D905E205DD05FE
:100B4000E305E705809180008F778093800008950A
:100B5000809180008F7DF9CF80918000877FF5CFD5
:100B600084B58F7784BD089584B58F7DFBCF809148
:100B7000B0008F778093B00008958091B0008F7D92
:100B8000F9CF809190008F778093900008958091A5
:100B900090008F7DF9CF80919000877FF5CF809175
:100BA000A0008F778093A00008958091A0008F7D92
:100BB000F9CF8091A000877FF5CF809120018F77BA
:100BC000809320010895809120018F7DF9CF80913D
:100BD0002001877FF5CFCF93DF93282F30E0F901F5
:100BE000E853F94F8491F901E85DF84FD491F90188
:100BF000E259F84FC491CC23A1F081110E948405E1
:100C0000EC2FF0E0EE0FFF1FE255F94FA591B491E4
:100C1000EC91ED2381E090E009F480E0DF91CF9149
:100C2000089580E090E0FACF1F93CF93DF93282FB1
:100C300030E0F901E853F94F8491F901E85DF84F8C
:100C4000D491F901E259F84FC491CC23A9F0162FA1
:100C500081110E948405EC2FF0E0EE0FFF1FEC568F
:100C6000F94FA591B4918FB7F894EC91111108C088
:100C7000D095DE23DC938FBFDF91CF911F91089534
:100C8000DE2BF8CFCF93DF93C82FD62F60E0809173
:100C9000BC030E9414069FEF9C0F8091BF03890F35
:100CA0008850CEBD00000DB407FEFDCF2EB52D2F10
:100CB000C93038F4E091BD03F091BE03E80FF11D97
:100CC00020812EBD00000DB407FEFDCF2EB5981774
:100CD00038F361E08091BC03DF91CF910C9414064E
:100CE000CF93C8E060E08C2F0E944206C150D1F73C
:100CF000CF910895CF93DF9390E0FC01E85DF84F2A
:100D000024918259984FFC0184918823D1F090E07E
:100D1000880F991FFC01E25FF84FA591B491FC0187
:100D2000EC56F94FC591D49161110EC09FB7F8945C
:100D30008C91E22FE0958E238C932881E223E88327
:100D40009FBFDF91CF9108958FB7F894EC91E22B7C
:100D5000EC938FBFF6CF3FB7F8948091F402909157
:100D6000F502A091F602B091F70226B5A89B05C046
:100D70002F3F19F00196A11DB11D3FBFBA2FA92F1A
:100D8000982F8827BC01CD01620F711D811D911D17
:100D900042E0660F771F881F991F4A95D1F7089583
:100DA0008F929F92AF92BF92CF92DF92EF92FF927B
:100DB0004B015C010E94AB066B017C010E94AB06FB
:100DC0006C197D098E099F09683E73408105910564
:100DD000A8F321E0821A9108A108B10888EEC80E94
:100DE00083E0D81EE11CF11C81149104A104B1041C
:100DF00029F7FF90EF90DF90CF90BF90AF909F903A
:100E00008F9008952091A902260F3327331F213296
:100E10003105ECF42091CD02FC0190E080E024301B
:100E200069F082E00895A091A9022191AC01475791
:100E30005D4FA40FB52FB11D2C930196861798F323
:100E40008091A902680F6093A90280E0089581E073
:100E5000089508958FEF9FEF08958FEF9FEF089506
:100E60008091820290E09195819591090895CF93A8
:100E7000DF93CB01EA01642F0E940207CE01DF91CC
:100E8000CF910895CF93DF931F92CDB7DEB76983DB
:100E900061E0CE0101960E94020781E090E00F9090
:100EA000DF91CF910895EF92FF920F931F93CF930D
:100EB000DF93FC017901342F8689882309F493C0DC
:100EC000823038F0C085D18521978E01061B170B23
:100ED000B8019FEF980F923018F432853150341BCF
:100EE00080FF81C0862F632F70E0382F44815581A9
:100EF000641775070CF079C0832F90E0C681D78105
:100F00008C179D070CF071C0278DA3E095958795F0
:100F1000AA95E1F7289F8001299F100D1124CB018C
:100F2000B3E095958795BA95E1F7C0A1D1A1C00F1F
:100F3000D11FC80FD91F8881EB01C770DD2737701B
:100F4000082F10E062A173A1600F711FDB019C915B
:100F5000923030F067E070E0DB01AC1BBD0BED01BF
:100F60006FEF690F623018F467E0631B362F90FF54
:100F700004C09C2FC32FD0E0392F622F0E946E1522
:100F8000982F990F990F990F390FB801289F601961
:100F90007109112483E0660F771F8A95E1F76C0FC2
:100FA0007D1F832F90E023E0959587952A95E1F7A3
:100FB000849FE001859FD00D949FD00D11246C0F6C
:100FC0007D1F048CF58DE02DE60FF71F377081E053
:100FD00090E001C0880F3A95EAF72081EF2861F090
:100FE000822B808302C077FF81CFDF91CF911F9149
:100FF0000F91FF90EF90089580958223F2CF08958E
:10100000FC016370668B8481958126813781613014
:1010100039F0633029F091878087338722870895DC
:10102000318720879387828708950C9400082F9238
:101030003F924F925F926F927F928F929F92AF9268
:10104000BF92CF92DF92EF92FF920F931F93CF93B5
:10105000DF93CDB7DEB76A970FB6F894DEBF0FBE49
:10106000CDBF9A8F898F7A8369834A01D22E1887E0
:101070000F833701BC2CDC0159962D913C915A9776
:101080002115310509F015C118968D919C9119977C
:10109000681779070CF0D7C11A968D919C91481763
:1010A00059070CF0D0C14C2C512CB6E0CB9E600DF2
:1010B000711D11247C876B87161617060CF0C3C1AF
:1010C000EA2DF0E0FA87E98793E0EE0FFF1F9A958B
:1010D000E1F7F88BEF87CF01840F951F18161906DB
:1010E0000CF0B1C1A98DBA8D58968C91811104C0B4
:1010F000BFEABD1508F4D394A98DBA8DED91FC918A
:1011000011970284F385E02DCD011995B5E0DB9EA2
:10111000C0011124E981FA81FC83EB83312C212C5D
:101120009C012C563E4F388F2F8B4A2D50E05E8B02
:101130004D8BEF89F88DE20DF31D44919E828D82D7
:10114000D12CC12C69817A81620D731D7A8B698BD8
:10115000842F90E09C8B8B8BE98DFA8DA081B181DF
:1011600040FF82C0F1E0BF126FC0AF126DC01C968D
:10117000ED91FC912F813885A4014C0D5D1D69898D
:101180007A89898D9A8D1995EB89FC89F595E79572
:101190004E2F5FEFC51AD50A6D817E818D899E899C
:1011A000680F791F7E836D8398E0C916D10481F69C
:1011B000AFEF2A1A3A0AEB81FC81E40DF51DFC839E
:1011C000EB83F5E02F16310409F0B3CF2F8138857A
:1011D00026153705B9F0A98DBA8DED91FC91B1E0D6
:1011E000BB1257C0AB1255C069817A816B5F7F4FCC
:1011F0000088F189E02D830128E030E0A401898D89
:101200009A8D1995A98DBA8DED91FC91119706884B
:10121000F789E02DCD016A960FB6F894DEBF0FBEB8
:10122000CDBFDF91CF911F910F91FF90EF90DF9095
:10123000CF90BF90AF909F908F907F906F905F9076
:101240004F903F902F9019941E96ED91FC91EF8056
:10125000F88409851A8592014D815E816B817C81BC
:10126000898D9A8D199590CF2F8138852615370550
:1012700009F48ACF31E0B31207C0A31205C01C964F
:10128000ED91FC91930178CF1E96ED91FC91730145
:10129000E0CF6B857C85641975090684F785E02DA0
:1012A00073010F8518899201A401898D9A8D199572
:1012B000A9CFF90134969491329745915491D91A56
:1012C000B7E0DB9E400D511D1124F90125913491A9
:1012D0003C8B2B8BFA0125903490FA013296749056
:1012E00031963491398B329664903196449041E036
:1012F0004C1518F04A1508F07FC0662D062C000C1E
:10130000770B7C836B83842D042C000C990B9E83BC
:101310008D83A98DBA8DED91FC9111970284F3858F
:10132000E02DCD011995512CD12CC12CEA2DF0E0E6
:10133000FA87E9872B2D30E03C872B87A401440DE9
:10134000511D47FC5A95588F4F8B69817A81660DE4
:10135000711D67FC7A957E876D877989C71608F0BD
:1013600051CF2C2D30E04D815E81420F531FA98556
:10137000BA854A9FC0014B9F900D5A9F900D112432
:10138000FC01E80DF91DF88BEF87852D612C4F8945
:10139000588D420F531F5E8B4D8B671408F050C061
:1013A00044244394480E877041F4C1010196EB89AF
:1013B000FC89E20DF31DD4901C01D7FE19C0A98D44
:1013C000BA8DED91FC91662D70E0B1E0BB1219C0B1
:1013D000AB1217C02D853E85620F731F0484F585FF
:1013E000E02D2F8138854D895E89898D9A8D1995DB
:1013F000DD0C6394842DD1CF1E821D821C821B8242
:1014000088CF4B815C81640F751FAB85BC856A9F5B
:10141000C0016B9F900D7A9F900D112469817A8194
:10142000680F791F0684F785E02DEF80F884098521
:101430001A859D014F855889898D9A8D1995D8CF28
:10144000570CC3948ACF6A960FB6F894DEBF0FBECE
:10145000CDBFDF91CF911F910F91FF90EF90DF9063
:10146000CF90BF90AF909F908F907F906F905F9044
:101470004F903F902F9008958F929F92AF92CF926E
:10148000EF92FF920F931F93CF93DF93EC01262FE0
:10149000898D9A8D009709F051C06A30D1F41D866C
:1014A0001C868D8948E0849F900111248E859F853C
:1014B000820F931F9F878E8781E090E0DF91CF910D
:1014C0001F910F91FF90EF90CF90AF909F908F90D2
:1014D00008956D3089F3CC88AD888F898823C1F059
:1014E0008C859D8536E0C39E800D911D1124488515
:1014F00059854817590764F44E855F851D861C86FB
:1015000038E0A39EC0011124840F951F9F878E870A
:10151000EA88FB88088919894E855F856C857D85F9
:10152000CE010E9417082C898C859D8546E0249F5A
:10153000800D911D11249D878C87BECF6A3069F480
:101540001D861C86FC013896E4912D898E859F8529
:10155000E29F800D911D1124ADCF6D3009F4ACCF09
:10156000FC0134963491631708F4A6CF3296E491C7
:10157000E61708F4A1CFFC01329685909490462F8F
:10158000431B342F47E0349F800C911C1124F4013D
:10159000329634913196E4913323A9F1EE2399F1F7
:1015A000CC88F4013596E491AD884F89442301F14C
:1015B0000E2E000CFF0BE30FF11DCE9EA001CF9E5F
:1015C000500D11246C857D85460F571F68857985E0
:1015D000641775076CF44E855F851D861C86FC01BB
:1015E0003896E491AE9E400D511D11245F874E87C1
:1015F000EA88FB88088919894E855F856C857D8519
:10160000CE010E941708F4013496E4912C898C8550
:101610009D85E29F800D911D11248DCF6F927F9249
:101620008F929F92AF92BF92CF92DF92EF92FF92F2
:101630000F931F93CF93DF93EC016B015A01390194
:101640004801E881F9810284F385E02D1995E8814C
:10165000F9810288F389E02D87019301A501B60184
:10166000CE011995A501480D591D41505109E88138
:10167000F9810288F389E02D9301B601CE01199515
:10168000E881F9810088F189E02D9401A501B60176
:10169000CE011995C60CD71CB60161507109E881BD
:1016A000F9810088F189E02D9401A501CE011995F9
:1016B000E881F9810688F789E02DCE01DF91CF918D
:1016C0001F910F91FF90EF90DF90CF90BF90AF9060
:1016D0009F908F907F906F9019946F927F928F92CE
:1016E0009F92AF92BF92CF92DF92EF92FF920F93B1
:1016F0001F93CF93DF935C01EB016A01490138012D
:101700008701DC01ED91FC916217730719F56416EE
:1017100075062CF0962D872D3A01C92ED82E9601EC
:10172000261937092F5F3F4F048CF58DE02DA3015B
:10173000BE01C5011995DF91CF911F910F91FF90C7
:10174000EF90DF90CF90BF90AF909F908F907F9061
:101750006F9008954615570591F42617370724F022
:10176000892D4B01C22FD82F9E01281939092F5FCF
:101770003F4F068CF78DE02DA601B401DACF02842D
:10178000F385E02D1995D501ED91FC910488F5893B
:10179000E02D83019401A601BE01C5011995D50173
:1017A000ED91FC910688F789E02DC501DF91CF917D
:1017B0001F910F91FF90EF90DF90CF90BF90AF906F
:1017C0009F908F907F906F901994EF92FF920F935C
:1017D0001F93DC011A960D911C911B9718962D9161
:1017E0003C911997ED91FC9100A0F1A1E02D7B01B6
:1017F00050E040E070E060E019951F910F91FF907C
:10180000EF9008954F925F926F927F928F929F9286
:10181000AF92BF92CF92DF92EF92FF920F931F93FE
:10182000CF93DF936C012B015A0139014801DC0190
:10183000ED91FC910284F385E02D1995E201640C91
:10184000751CD601ED91FC91C615D7055CF4008896
:10185000F189E02D87019401A501BE01C60119950A
:101860002196EFCF0688F789E02DC601DF91CF9151
:101870001F910F91FF90EF90DF90CF90BF90AF90AE
:101880009F908F907F906F905F904F9019948F9260
:101890009F92AF92BF92CF92DF92EF92FF920F93FF
:1018A0001F93CF93DF93EC015B014A016901E8814B
:1018B000F9810284F385E02D199595012C0D3D1DCC
:1018C00021503109E881F9810488F589E02D7801FA
:1018D0008401A401B501CE011995E881F98106883A
:1018E000F789E02DCE01DF91CF911F910F91FF90ED
:1018F000EF90DF90CF90BF90AF909F908F90199412
:101900008F929F92AF92BF92CF92DF92EF92FF920F
:101910000F931F93CF93DF93EC015B014A016901A1
:101920007801E881F9810284F385E02D1995C80CCE
:10193000D91C860101501109E881F9810488F589D3
:10194000E02D9501A401B501CE011995E881F98139
:101950000688F789E02DCE01DF91CF911F910F917D
:10196000FF90EF90DF90CF90BF90AF909F908F90BF
:101970001994EF92FF920F931F93DC01ED91FC916C
:1019800000A0F1A1E02D19951F910F91FF90EF900C
:1019900008950F931F93DC01ED91FC91068CF78D58
:1019A000E02D19951F910F9108950F931F93DC015E
:1019B000ED91FC91048CF58DE02D19951F910F91FF
:1019C0000895DC01ED91FC910084F185E02D1994DE
:1019D0002F923F924F925F926F927F928F929F923F
:1019E000AF92BF92CF92DF92EF92FF920F931F932D
:1019F000CF93DF9300D000D0CDB7DEB73C016A01B2
:101A00003E832D83FC82EB825801A41AB50AB7FEEF
:101A100003C0B194A194B1088D809E80861A970A64
:101A200097FE03C09194819491088A149B045CF002
:101A3000902F812F0D811E819D838E839C2D8D2D56
:101A40006B01692F782F0C151D055CF09D818E812F
:101A50007E836D83692F782F902F812F8601C92E69
:101A6000D82E1601201A310A2B012D813E81421AEF
:101A7000530A57FE03C0519441945108710137FE37
:101A800003C03FEFE31AF30AF594E7948D819E813A
:101A9000861797075CF5A1E0B0E0BA83A983C0166A
:101AA000D1064CF1D301ED91FC910484F585E02D34
:101AB0002B813C81A8016D817E818A149B041CF0DE
:101AC0004D815E81B801C3011995E418F508F7FE50
:101AD0000AC02D813E8189819A81280F391F3E835A
:101AE0002D83E20CF31C0F5F1F4FD9CF2FEF3FEF79
:101AF0003A832983D4CF26960FB6F894DEBF0FBE63
:101B0000CDBFDF91CF911F910F91FF90EF90DF90AC
:101B1000CF90BF90AF909F908F907F906F905F908D
:101B20004F903F902F90089590E080E00895FC0141
:101B300080819181009711F00C94461608950E94BF
:101B4000B0170F931F93CF93DF93EC018881998196
:101B5000009759F02A813B812617370730F081E042
:101B6000DF91CF911F910F9108958B016F5F7F4F90
:101B70000E94CF16009759F0998388831B830A83AC
:101B80002C813D81232B59F7FC011082E8CF80E0A6
:101B9000E7CFEF92FF920F931F93CF93DF93EC0168
:101BA0007B018A01BA010E94A10D2881398181112E
:101BB00014C02115310519F0C9010E944616198279
:101BC00018821D821C821B821A82CE01DF91CF9166
:101BD0001F910F91FF90EF9008951D830C83B70123
:101BE000C9010E94C517F1CF1F93CF93DF9385EDF5
:101BF0008093BC008091850290918602A09187021B
:101C0000B09188020796A11DB11D23E0B695A79556
:101C1000979587952A95D1F72091BC0024FD03C0A4
:101C20001092CD0252C0409185025091860260917F
:101C3000870270918802452B462B472B69F300974A
:101C4000A105B10541F025E32A95F1F700000197C0
:101C5000A109B109E1CF80918402C1E0C093830260
:101C6000882399F1D091B8001091BA008091BC00FE
:101C70008A7B8093BC0060E084E10E94140660E0EF
:101C800085E10E9414061092CD02C093CF021092FB
:101C9000CE0261E084E10E94140661E085E10E94C9
:101CA00014068091B9008E7F8093B9008091B900AD
:101CB0008D7F8093B90088E48093B80085E4809399
:101CC000BC001093BA00D093B800DF91CF911F9160
:101CD0000895FC01468D50E0672B39F470E060E018
:101CE000FC01848D958D0C94BE176FEF70E0F8CFDA
:101CF0001F920F920FB60F9211240BB60F922F93D3
:101D00003F934F935F936F937F938F939F93AF9383
:101D1000BF93EF93FF938DEF92E00E94C404FF9175
:101D2000EF91BF91AF919F918F917F916F915F9153
:101D30004F913F912F910F900BBE0F900FBE0F90C0
:101D40001F9018951F920F920FB60F9211240BB689
:101D50000F922F938F939F93EF93FF93E0910D0337
:101D6000F0910E038081E0911303F091140382FD42
:101D70001DC09081809116038F5F8F732091170390
:101D8000821741F0E0911603F0E0E350FD4F958F8C
:101D900080931603FF91EF919F918F912F910F9058
:101DA0000BBE0F900FBE0F901F9018958081F2CF41
:101DB0001F920F920FB60F9211242F933F938F9380
:101DC0009F93AF93BF938091F9029091FA02A091F3
:101DD000FB02B091FC023091F30223E0230F2D3778
:101DE00058F50196A11DB11D2093F3028093F902CD
:101DF0009093FA02A093FB02B093FC028091F4024C
:101E00009091F502A091F602B091F7020196A11D02
:101E1000B11D8093F4029093F502A093F602B09363
:101E2000F702BF91AF919F918F913F912F910F90AA
:101E30000FBE0F901F90189526E8230F0296A11D44
:101E4000B11DD2CF1F920F920FB60F9211240BB675
:101E50000F922F933F934F935F936F937F938F9343
:101E60009F93AF93BF93EF93FF938091B900887FC7
:101E7000803609F44DC008F040C0883209F4A7C08C
:101E800028F5803109F49BC0C8F4882309F4F7C011
:101E9000883009F494C0FF91EF91BF91AF919F9169
:101EA0008F917F916F915F914F913F912F910F9003
:101EB0000BBE0F900FBE0F901F901895883109F43C
:101EC00086C0803241F78093CC0214C0803409F47C
:101ED0009BC040F48033B9F38833E9F68093CC0299
:101EE00085ECAEC0803509F483C0883509F494C010
:101EF000883489F60E94F40DCECF883909F48AC05F
:101F000038F5883729F050F4883611F0803719F603
:101F100083E08093CD021092CB0255C0883809F43B
:101F200079C0803919F0803809F0B5CF8091CB02A3
:101F3000803208F06FC0E091CB0281E08E0F809379
:101F4000CB028091BB00F0E0E555FD4F80833BC0A4
:101F5000803B39F0D0F4803A09F477C0883A09F030
:101F60009ACF84E08093CD021092AA021092A90227
:101F7000F0E0E0E019958091A90281110FC081E0A5
:101F80008093A9021092890209C0803C09F4A8CF6D
:101F9000883C09F4A5CF883B09F07DCFE091AA02E7
:101FA00081E08E0F8093AA02F0E0E757FD4F808119
:101FB0008093BB009091AA028091A90229C08091D0
:101FC000F2028093BB0085EC8093BC0064CF9091BB
:101FD000F1028091F002981758F5E091F10281E04A
:101FE0008E0F8093F102F0E0E053FD4F8081E9CF46
:101FF000E091F10281E08E0F8093F1028091BB00AD
:10200000F0E0E053FD4F80839091F1028091F00267
:102010009817C8F285E8D8CFE091F10281E08E0FE1
:102020008093F1028091BB00F0E0E053FD4F80838C
:102030008091CF0281115ECF81E08093CE0284EA4D
:102040008093BC001092CD0226CF85EC8093BC001B
:102050001092CD028091CB02803230F4E091CB021D
:10206000F0E0E555FD4F10826091CB0270E08BEA05
:1020700092E0F0E0E0E019951092CB020CCF1092C4
:10208000CC0238CF0F931F93CF931092000310927E
:10209000FF0288EE93E0A0E0B0E08093010390930C
:1020A0000203A0930303B09304038CE092E09093A7
:1020B000FE028093FD0285EC90E090930A038093EA
:1020C000090384EC90E090930C0380930B0380EC65
:1020D00090E090930E0380930D0381EC90E0909339
:1020E000100380930F0382EC90E09093120380938F
:1020F000110386EC90E090931403809313031092E5
:1021000016031092170310921803109219031092DD
:10211000A4031092A30320E130E03093A6032093A0
:10212000A50388E090E09093A8038093A7033093E1
:10213000AA032093A9039093AC038093AB0310925E
:10214000B7031092AE031092AD031092B003109239
:10215000AF03C1E0C093B603C093B5038FEF9FEF09
:102160009093B4038093B3039093B2038093B1032D
:10217000C093B8031092B9031092BB031092BA0334
:102180008EE192E09093A2038093A1038AE0809372
:10219000BC0382E08093C00380E18093BF0380E1B1
:1021A00090E00E94AA159093BE038093BD0382E045
:1021B00090E00E94AA158C019093C4038093C303FE
:1021C00082E090E00E94AA159093C2038093C1031D
:1021D000FC011082F8011082FC01C183F801118218
:1021E000CFB7F89480919A03811127C0E3EAF7E012
:1021F0008491EDE5F7E09491E82FF0E0EE0FFF1FFA
:10220000E25FF84FA591B491EC91E92321F461E0EC
:1022100085E30E94140661E085E30E947A068CB58E
:1022200080618CBD8CB580648CBD61E084E30E94CC
:102230007A0661E083E30E947A0680919A038F5FB9
:1022400080939A03CFBF61E08091BC030E947A061D
:1022500070E060E081EA93E00E94690E60E08FE048
:102260000E94420667E08BE00E94420660E089E03F
:102270000E94420661E08CE00E94420667E08AE02C
:102280000E94420610929C0310929B0310929E03A0
:1022900010929D031092A00310929F0350E040E023
:1022A00061E772E08BE993E0CF911F910F910C945D
:1022B000C90DCF93DF9300D000D01F921F92CDB7EE
:1022C000DEB7789484B5826084BD84B5816084BDB6
:1022D00085B5826085BD85B5816085BD80916E00C4
:1022E000816080936E0010928100809181008260F5
:1022F0008093810080918100816080938100809132
:1023000080008160809380008091B1008460809320
:10231000B1008091B00081608093B0008091910005
:102320008260809391008091910081608093910000
:10233000809190008160809390008091A1008260E4
:102340008093A1008091A10081608093A100809181
:10235000A00081608093A000809121018260809321
:1023600021018091210181608093210180912001D0
:1023700081608093200180917A00846080937A004C
:1023800080917A00826080937A0080917A008160E7
:1023900080937A0080917A00806880937A0010920E
:1023A000C10067E08AE00E944206E091C103F0911B
:1023B000C2031082E091C303F091C40383E08083E1
:1023C00060E08BE00E947A0660E08CE00E947A0672
:1023D00060E08DE00E947A0661E085E00E947A0666
:1023E00061E086E00E947A0661E087E00E947A065A
:1023F000E0910D03F0910E0382E08083E0910903E8
:10240000F0910A031082E0910B03F0910C038FEC22
:10241000808310921503E0911103F091120386E07E
:102420008083E0910F03F0911003808180618083AD
:10243000E0910F03F0911003808188608083E09128
:102440000F03F0911003808180688083E0910F0377
:10245000F091100380818F7D80838BE00E94EB05DB
:102460004C018CE00E94EB051C018DE00E94EB0505
:102470003C0180917B00877F80937B0080E4809388
:102480007C0080917A00806480937A0080917A0049
:1024900086FDFCCF8091780060917900762F682FBF
:1024A000072E000C880B990B0E940A156B017C010A
:1024B00020E030E04FE753E40E94031587FF60C03F
:1024C00020E030E0A901C701B6010E94691587FD2F
:1024D00057C081E090E0909301028093000261E098
:1024E00085E00E94140660E086E00E94140660E029
:1024F00087E00E941406672809F0B4C047E150E065
:1025000066E472E08BE993E00E94C90D81149104A6
:1025100009F074C180919F039091A00388169906D9
:1025200008F06AC2E0919B03F0919C03309709F098
:1025300062C11092F802E8EFF2E0AA24A394CC243E
:10254000C394F12CE12C01E010E0208141E050E047
:1025500063E070E081EA93E00E9417080E94700631
:102560006EEE72E080E090E00E94D00670E060E0E5
:1025700081EA93E00E94690E2FEF821A920ACACF75
:1025800020E030E04FEF53E4C701B6010E9403158D
:1025900087FF16C020E030E04FE753E4C701B601E3
:1025A0000E94691587FD0CC082E090E090930102C3
:1025B0008093000260E085E00E94140661E094CF01
:1025C00020E030E44FE354E4C701B6010E94031554
:1025D00087FF12C020E030E04FEF53E4C701B6019F
:1025E0000E94691587FD08C083E090E09093010286
:1025F0008093000261E0DFCF20E030E04FE754E459
:10260000C701B6010E94031587FF1AC020E030E41D
:102610004FE354E4C701B6010E94691587FD10C05D
:1026200084E090E0909301028093000260E085E0F6
:102630000E94140660E086E00E94140661E058CF14
:1026400020E030E04FE754E4C701B6010E9469156D
:1026500087FD51CF85E090E09093010280930002C6
:1026600061E0E6CF8DEF92E00E94AE0418161906E5
:102670000CF04CCF43E150E06EE572E08DEF92E05C
:102680000E9410041A8219821C821B821E821D82E3
:1026900050E040E061E772E0CE0101960E94C90D72
:1026A0000E94600497FD1CC08F831886ED80FE8019
:1026B0009FEFE91AF90AB701CE0101960E94A10D18
:1026C000882371F329813A818D819E81BE01695FE2
:1026D0007F4F820F931F0E94C517FE82ED82E0CFCD
:1026E00080919B0390919C03009709F460C06981DD
:1026F0007A816115710509F458C040919D0350918C
:102700009E032D813E814217530708F44EC00E945C
:10271000C5178D819E819093A00380939F031E8295
:102720001D82CE0101960E94970D1A8219821C8289
:102730001B821E821D824FE050E062E772E0CE01F4
:1027400001960E94C90D40909B0350909C03411438
:10275000510409F443C060909F037090A00361147A
:102760007104B1F08D819E81680E791EB301CE0196
:1027700001960E94A10D882389F129813A818D81DA
:102780009E81B201820F931F0E94C5177E826D82C7
:102790004D815E8169817A818DEF92E00E94100403
:1027A000CE0101960E94970DB1CE0E9446168981F6
:1027B0009A8190939C0380939B038B819C8190933F
:1027C0009E0380939D038D819E819093A0038093AF
:1027D0009F031A8219821C821B82A1CF89819A8150
:1027E000009711F00E9446161A8219821E821D82DD
:1027F0001C821B82CDCFE80DF91D9FCE232809F046
:102800007EC080919F039091A00326E0289F400105
:10281000299F900C11248091A9039091AA03880EFE
:10282000991E82E0881A9108181419040CF0E4C06B
:1028300070E060E081EA93E00E94690EC40166E006
:1028400070E00E947A152B016090A9037090AA0392
:1028500021E0621A7108681A790A8091AB0390919D
:10286000AC031C0128E0221A310837FE04C01C0109
:1028700027E0221A3108359427948BEF68168FEFE2
:10288000780674F19FEF4916590651F180919F0324
:102890009091A00348165906C8F4E0919B03F0916B
:1028A0009C033097D1F41092F802E8EFF2E0AA24EA
:1028B000A394CC24C394F12CE12C01E010E02081FE
:1028C000A101B30181EA93E00E94170821E0421AB6
:1028D000510886E0681A7108D0CFE40DF51DE7CFE6
:1028E0000E94700664E670E080E090E00E94D006EE
:1028F0008091000290910102881A990A95CF512C7B
:10290000412C96E0D92E20919F033091A003D29EB6
:10291000C001D39E900D11242091A9033091AA03E8
:10292000820F931F02974816590608F065C070E0A1
:1029300060E081EA93E00E94690EC20166E070E007
:102940000E947A153B018090A9039090AA0321E090
:10295000821A9108881A990A8091AB039091AC036E
:102960001C0128E0221A310837FE04C01C0127E0B0
:10297000221A3108359427948BEF88168FEF98062A
:1029800064F177FC2AC080919F039091A0036816A0
:102990007906C8F4E0919B03F0919C033097D1F441
:1029A0001092F802E8EFF2E0AA24A394CC24C39496
:1029B000F12CE12C01E010E02081A101B40181EAB9
:1029C00093E00E94170891E0691A710826E0821AC4
:1029D0009108D2CFE60DF71DE7CF0E94700664E69E
:1029E00070E080E090E00E94D0068091000290911B
:1029F0000102480E591E87CF0E9453052ECD8BE948
:102A000093E00C94970D0E94451508F481E0089519
:102A1000E89409C097FB3EF4909580957095619578
:102A20007F4F8F4F9F4F9923A9F0F92F96E9BB272E
:102A30009395F695879577956795B795F111F8CFAA
:102A4000FAF4BB0F11F460FF1BC06F5F7F4F8F4F15
:102A50009F4F16C0882311F096E911C0772321F00B
:102A60009EE8872F762F05C0662371F096E8862FA3
:102A700070E060E02AF09A95660F771F881FDAF7FA
:102A8000880F9695879597F90895990F0008550F27
:102A9000AA0BE0E8FEEF16161706E807F907C0F0E4
:102AA00012161306E407F50798F0621B730B840BEC
:102AB000950B39F40A2661F0232B242B252B21F4C6
:102AC00008950A2609F4A140A6958FEF811D811D66
:102AD00008950E94451508F48FEF0895991B79E039
:102AE00004C0991F961708F0961B881F7A95C9F79E
:102AF0008095089597FB072E16F4009407D077FD74
:102B000009D00E94961507FC05D03EF4909581955A
:102B10009F4F0895709561957F4F0895EE0FFF1FA9
:102B2000881F8BBF0790F691E02D1994AA1BBB1B41
:102B300051E107C0AA1FBB1FA617B70710F0A61BBD
:102B4000B70B881F991F5A95A9F780959095BC01DE
:102B5000CD0108950F931F93CF93DF93823091059A
:102B600010F482E090E0E091C703F091C80330E0F8
:102B700020E0B0E0A0E0309799F42115310509F488
:102B80004AC0281B390B24303105D8F58A819B8136
:102B90006115710589F1FB0193838283FE0111C0E8
:102BA000408151810281138148175907E0F048178D
:102BB000590799F4109761F012960C931297139697
:102BC0001C933296CF01DF91CF911F910F91089501
:102BD0000093C7031093C803F4CF2115310551F0BA
:102BE0004217530738F0A901DB019A01BD01DF014B
:102BF000F801C1CFEF01F9CF9093C8038093C703C9
:102C0000CDCFFE01E20FF31F819391932250310942
:102C100039832883D7CF2091C5033091C603232B56
:102C200041F420910402309105023093C6032093B1
:102C3000C50320910202309103022115310541F4B0
:102C40002DB73EB74091060250910702241B350B69
:102C5000E091C503F091C603E217F307A0F42E1B21
:102C60003F0B2817390778F0AC014E5F5F4F2417F0
:102C7000350748F04E0F5F1F5093C6034093C503BE
:102C8000819391939FCFF0E0E0E09CCFCF93DF93CF
:102C90000097E9F0FC01329713821282A091C703DA
:102CA000B091C803ED0130E020E01097A1F420813D
:102CB0003181820F931F2091C5033091C6032817DD
:102CC000390709F061C0F093C603E093C503DF91B3
:102CD000CF910895EA01CE17DF07E8F54A815B81BD
:102CE0009E0141155105B1F7E901FB83EA83499142
:102CF0005991C40FD51FEC17FD0761F480819181B4
:102D00000296840F951FE9019983888382819381BC
:102D10009B838A83F0E0E0E012968D919C9113975B
:102D20000097B9F52D913C911197CD010296820F34
:102D3000931F2091C5033091C6032817390739F630
:102D4000309751F51092C8031092C703B093C60391
:102D5000A093C503BCCFD383C28340815181840F2C
:102D6000951FC817D90761F44E5F5F4F888199811D
:102D7000480F591F518340838A819B8193838283AB
:102D80002115310509F0B0CFF093C803E093C703D4
:102D90009ECFFD01DC01C0CF13821282D7CF4F92AC
:102DA0005F926F927F928F929F92AF92BF92CF92DB
:102DB000DF92EF92FF920F931F93CF93DF938C01DB
:102DC000009799F4CB01DF91CF911F910F91FF9064
:102DD000EF90DF90CF90BF90AF909F908F907F90BB
:102DE0006F905F904F900C94AA15FC01E60FF71FAF
:102DF0009C0122503109E217F30708F4AEC0D90153
:102E0000CD91DC911197C617D70720F1C530D105B8
:102E100078F0CE0104978617970750F0C61BD70BA2
:102E20002297C193D1936D937C93CF010E94461654
:102E3000C801DF91CF911F910F91FF90EF90DF902C
:102E4000CF90BF90AF909F908F907F906F905F904A
:102E50004F9008955B01AC1ABD0A4C018C0E9D1E6B
:102E6000A091C703B091C803512C412CF12CE12C47
:102E7000109731F58091C5039091C6038815990587
:102E800009F05CC04616570608F058C0809102024F
:102E900090910302009741F48DB79EB740910602CE
:102EA00050910702841B950BE817F90708F055C0ED
:102EB000F093C603E093C503F90171836083B8CF33
:102EC0008D919C91119712966C90129713967C900D
:102ED0001397A815B90559F56C0142E0C40ED11C31
:102EE000CA14DB0420F1AC014A195B09DA0112961D
:102EF000159780F06282738251834083D9016D936C
:102F00007C93E114F10471F0D7011396FC93EE93D6
:102F100012978ECF22968C0F9D1FF901918380838B
:102F2000F301EFCFF093C803E093C70381CF4816B6
:102F3000590608F42C017D01D3019ACFCB010E94E0
:102F4000AA157C01009749F0AE01B8010E94B5179F
:102F5000C8010E94461687016BCF10E000E068CFE1
:102F600081E090E0F8940C94CC17FB01DC0102C0E6
:102F700001900D9241505040D8F70895DC0101C0F6
:102F80006D9341505040E0F70895FB01DC01019042
:102F90000D920020E1F7089513E0CBEDD3E000E0BF
:102FA00006C0802FFE010E948E152196011DCC3D8A
:0C2FB000D10780E00807A9F7F894FFCFD4
:102FBC0001000000C903800000000000E6041004BA
:102FCC003D043305AE044C04A004000000003C0A90
:102FDC001004940D0F0453072907E10CB90CD50C00
:102FEC00C90CE80C29071508FF07800C470C020CCC
:102FFC00690E6D0B0E0B5031202D20475255504F42
:10300C0031202D2053454343494F4E204200496EF9
:10301C00677265736520756E206D656E73616A6588
:10302C000A005375206D656E73616A652065733A8D
:02303C00200072
:00000001FF
