:100000000C9422010C9453010C9453010C94530151
:100010000C9453010C9453010C9453010C94530110
:100020000C9453010C9453010C9453010C94530100
:100030000C9453010C9453010C9453010C945301F0
:100040000C9453010C9453010C9453010C945301E0
:100050000C9453010C9453010C9453010C946D04B3
:100060000C9453010C9453010C9453010C945301C0
:100070000C9453010C9453010C9453010C945301B0
:100080000C9453010C9453010C9453010C945301A0
:100090000C9453010C9453010C9453010C94B70429
:1000A0000C9453010C9453010C9453010C94530180
:1000B0000C9453010C9453010C9453010C94530170
:1000C0000C9453010C9453010C9453010C94530160
:1000D0000C9453010C9453010C9453010C94530150
:1000E0000C9453010C940B020C9474010C94F203C5
:1000F0000C9423020C9401020C941D020C94A40293
:100100000C94EC010C9419020C94D7050C94070282
:100110000C9427020C94D1010C94E8010C94FD017D
:100120000C94F4010C94A3020C94F7010C94D601E6
:100130000C9415020C940F020C94F00100000A0BB1
:1001400002090C0D0E080703040100000000000066
:10015000000000000000000000000000000000009F
:10016000000000000000000012111000000000005C
:10017000000000000000000000000000000000007F
:10018000000000002200250028002B002E00310076
:10019000340002010000050108010B0100002100EC
:1001A000240027002A002D00300033000101000048
:1001B000040107010A0105050505070508080808E7
:1001C000020202020A0A08080404040401010101EF
:1001D00001010101030303030303030304070707EA
:1001E0000C0C0C0C0C0C0C0C02020202060606068F
:1001F000060606060B0B0B0B0B0B0B0B010210205C
:10020000200808102040102040800201020108044C
:1002100002010102040810204080804020100804E0
:100220000201800402018040201008040201080439
:10023000020101020408102040800102040810207D
:100240004080D70511241FBECFEFD1E2DEBFCDBF66
:1002500000E00CBF12E0A0E0B2E0E0E5FEE000E06C
:100260000BBF02C007900D92AE31B107D9F722E063
:10027000AEE1B2E001C01D92A03BB207E1F711E090
:10028000C2E2D1E000E006C021970109802FFE0103
:100290000E941E07C132D10780E00807A9F70E941B
:1002A000F5050C9426070C94000090E0FC01E45046
:1002B000FE4F24918A549E4FFC018491882399F02B
:1002C00090E0880F991FFC01E456FE4FA591B49170
:1002D000FC01EE57FE4F859194918FB7F894EC9105
:1002E000E22BEC938FBF0895AF92BF92CF92DF9233
:1002F000EF92FF920F931F93CF93DF936C017B01DB
:100300008B01040F151FEB015E01AE18BF08C0176B
:10031000D10759F06991D601ED91FC910190F081DE
:10032000E02DC6011995892B79F7C501DF91CF9191
:100330001F910F91FF90EF90DF90CF90BF90AF9003
:100340000895282F30E0F901E45CFE4F9491F90103
:10035000E450FE4F44912A543E4FF9012491222348
:1003600009F435C0992311F191509231F8F4E92F35
:10037000F0E08827E154FE4F8F4F0C941E07F001E8
:10038000F401D101E801EC01D601F701FD01010200
:1003900007020B020F0215021902D6011D022302E9
:1003A0002702809180008F7780938000E22FF0E019
:1003B000EE0FFF1FEE57FE4FA591B4918FB7F89443
:1003C000EC91611148C040954E234C938FBF089526
:1003D000809180008F7DE8CF80918000877FE4CF7F
:1003E00084B58F7784BDE2CF84B58F7DFBCF8091BC
:1003F000B0008F778093B000D9CF8091B0008F7D0F
:10040000F9CF809190008F7780939000CFCF80912B
:1004100090008F7DF9CF80919000877FF5CF8091FC
:10042000A0008F778093A000C1CF8091A0008F7D26
:10043000F9CF8091A000877FF5CF809120018F7741
:1004400080932001B3CF809120018F7DF9CF8091DF
:100450002001877FF5CF4E2BB8CF3FB7F89480911E
:10046000900290919102A0919202B091930226B5D0
:10047000A89B05C02F3F19F00196A11DB11D3FBFDC
:10048000BA2FA92F982F8827BC01CD01620F711DAB
:10049000811D911D42E0660F771F881F991F4A95A5
:1004A000D1F7089520914502260F3327331F2132BB
:1004B0003105ECF420916902FC0190E080E02430E9
:1004C00069F082E00895A09145022191AC014B5D55
:1004D0005D4FA40FB52FB11D2C930196861798F38D
:1004E00080914502680F6093450280E0089581E0A5
:1004F000089508958FEF9FEF08958FEF9FEF089570
:1005000080911E0290E09195819591090895CF9375
:10051000DF93CB01EA01642F0E945202CE01DF91EA
:10052000CF910895CF93DF931F92CDB7DEB7698344
:1005300061E0CE0101960E94520281E090E00F90AE
:10054000DF91CF910895089590E080E00895FC0137
:1005500001900020E9F73197AF01481B590BBC010E
:1005600088E992E00C947401CF93DF93EC0160E092
:100570008E810E94A10161E08E810E94A10160E054
:100580008E810E94A1018BE891E00197F1F7DF9144
:10059000CF910895CF92DF92EF92FF920F931F9326
:1005A000CF93DF936C017C0187E0E80EF11CD0E073
:1005B000C0E0062F10E0B8010C2E02C075956795BB
:1005C0000A94E2F76170F70181917F010E94A10115
:1005D0002196C430D10579F7C601DF91CF911F91E3
:1005E0000F91FF90EF90DF90CF900C94B402CF92D8
:1005F000DF92EF92FF920F931F93CF93DF93EC0163
:10060000F62E642F8C810E94A1018D818F3F19F0FD
:1006100060E00E94A1010F2D10E08F8584FF25C0AE
:100620006E0187E0C80ED11CF12CE12CB8010E2C14
:1006300002C0759567950A94E2F76170F6018191A1
:100640006F010E94A101FFEFEF1AFF0A88E0E81690
:10065000F10461F7CE01DF91CF911F910F91FF90CF
:10066000EF90DF90CF900C94B402B80184E07595C0
:1006700067958A95E1F7CE010E94CA026F2DCE01DF
:10068000DF91CF911F910F91FF90EF90DF90CF906E
:100690000C94CA0240E0682F88E992E00C94F702BB
:1006A000CF93DF93823029F49091A70298609093C2
:1006B000A7028093AB021092AC0280E48093AD025B
:1006C00080E18093AE0280E58093AF0280919C022E
:1006D0000E94550180919D028F3F11F00E945501AB
:1006E00080919E020E945501C8E9D2E09E012859DE
:1006F00032408091A70284FD0AC084E090E02196F8
:10070000281739073CF48E810E945501EFCF88E00D
:1007100090E0F5CF8BE39DE00197F1F760E08091E9
:100720009C020E94A10160E080919E020E94A101B2
:1007300080919D028F3F19F060E00E94A10180919D
:10074000A70284FD39C063E088E992E00E94CA02F2
:10075000CBE4D6E4CE010197F1F763E088E992E0BB
:100760000E94CA022197F1F763E088E992E00E94B3
:10077000CA0283E592E00197F1F762E088E992E02E
:100780000E94CA028091A70280620E944A0384E00C
:100790008093A8028CE00E944A0381E00E944A03F1
:1007A0008BE39FE10197F1F782E08093A90286E055
:1007B000DF91CF910C944A0380620E944A038BE43C
:1007C00096E40197F1F78091A70280620E944A03A4
:1007D00083E592E00197F1F78091A70280620E9481
:1007E0004A03D0CF41E00E94F70281E090E00895F3
:1007F0001F93CF93DF9385ED8093BC0080912102FE
:1008000090912202A0912302B09124020796A11D8B
:10081000B11D23E0B695A795979587952A95D1F7B1
:100820002091BC0024FD03C01092690252C0409187
:100830002102509122026091230270912402452BE3
:10084000462B472B69F30097A105B10541F025E33D
:100850002A95F1F700000197A109B109E1CF809134
:100860002002C1E0C0931F02882399F1D091B80003
:100870001091BA008091BC008A7B8093BC0060E03C
:1008800084E10E94A10160E085E10E94A101109233
:100890006902C0936B0210926A0261E084E10E94D7
:1008A000A10161E085E10E94A1018091B9008E7FE4
:1008B0008093B9008091B9008D7F8093B90088E45E
:1008C0008093B80085E48093BC001093BA00D09365
:1008D000B800DF91CF911F9108951F920F920FB62C
:1008E0000F9211242F933F938F939F93AF93BF93B6
:1008F0008091940290919502A0919602B0919702F6
:1009000030918F0223E0230F2D3758F50196A11D5A
:10091000B11D20938F028093940290939502A0932F
:100920009602B09397028091900290919102A091CB
:100930009202B09193020196A11DB11D8093900285
:1009400090939102A0939202B0939302BF91AF91C2
:100950009F918F913F912F910F900FBE0F901F90FD
:10096000189526E8230F0296A11DB11DD2CF1F9224
:100970000F920FB60F9211240BB60F922F933F9345
:100980004F935F936F937F938F939F93AF93BF9397
:10099000EF93FF938091B900887F803609F44DC0B2
:1009A00008F040C0883209F4A7C028F5803109F466
:1009B0009BC0C8F4882309F4F7C0883009F494C0B8
:1009C000FF91EF91BF91AF919F918F917F916F9127
:1009D0005F914F913F912F910F900BBE0F900FBEE3
:1009E0000F901F901895883109F486C0803241F726
:1009F0008093680214C0803409F49BC040F48033B3
:100A0000B9F38833E9F68093680285ECAEC080358F
:100A100009F483C0883509F494C0883489F60E94AB
:100A2000F803CECF883909F48AC038F5883729F021
:100A300050F4883611F0803719F683E0809369020C
:100A40001092670255C0883809F479C0803919F0CE
:100A5000803809F0B5CF80916702803208F06FC00E
:100A6000E091670281E08E0F809367028091BB0066
:100A7000F0E0E95BFD4F80833BC0803B39F0D0F470
:100A8000803A09F477C0883A09F09ACF84E08093DD
:100A900069021092460210924502F0E0E0E01995DA
:100AA0008091450281110FC081E080934502109230
:100AB000250209C0803C09F4A8CF883C09F4A5CFE1
:100AC000883B09F07DCFE091460281E08E0F809354
:100AD0004602F0E0EB5DFD4F80818093BB0090917A
:100AE00046028091450229C080918E028093BB000E
:100AF00085EC8093BC0064CF90918D0280918C0234
:100B0000981758F5E0918D0281E08E0F80938D0249
:100B1000F0E0E459FD4F8081E9CFE0918D0281E062
:100B20008E0F80938D028091BB00F0E0E459FD4F61
:100B3000808390918D0280918C029817C8F285E88D
:100B4000D8CFE0918D0281E08E0F80938D0280914D
:100B5000BB00F0E0E459FD4F808380916B0281116E
:100B60005ECF81E080936A0284EA8093BC00109299
:100B7000690226CF85EC8093BC00109269028091B7
:100B80006702803230F4E0916702F0E0E95BFD4FEC
:100B900010826091670270E087E492E0F0E0E0E0AC
:100BA0001995109267020CCF1092680238CFE8E9CD
:100BB000F2E01382128284E092E09183808382E0EB
:100BC00084838FEF858383E0868384E0878385E059
:100BD000808786E0818787E0828713861486158662
:100BE0001686178681E00C945003CF93DF93CDB720
:100BF000DEB7A1970FB6F894DEBF0FBECDBF7894D5
:100C000084B5826084BD84B5816084BD85B5826011
:100C100085BD85B5816085BD80916E0081608093C2
:100C20006E0010928100809181008260809381002B
:100C3000809181008160809381008091800081603B
:100C4000809380008091B10084608093B100809196
:100C5000B00081608093B0008091910082608093A9
:100C6000910080919100816080939100809190002B
:100C70008160809390008091A10082608093A100A8
:100C80008091A10081608093A1008091A00081608B
:100C90008093A00080912101826080932101809146
:100CA00021018160809321018091200181608093E6
:100CB000200180917A00846080937A0080917A008C
:100CC000826080937A0080917A00816080937A00BC
:100CD00080917A00806880937A001092C10082E04F
:100CE0000E9450039AE0492E512C612C712C20E077
:100CF000222E20E0322EE1E08091AB028111E0E073
:100D0000E195F0E0E856FD4F848980680E944A032F
:100D10008CE092E00E94A7028091A802982F946034
:100D20009093A8028C600E944A030E942D024B01FE
:100D30005C0184EFC82EDD24D394E12CF12C0E94B9
:100D40002D02681979098A099B09683E734081055B
:100D50009105A8F321E0C21AD108E108F10888EE54
:100D6000880E83E0981EA11CB11CC114D104E104BB
:100D7000F10429F7E091AB02E230E0F5E150F0E058
:100D8000E856FD4F848980680E944A032FB7F89483
:100D900060919402709195028091960290919702D1
:100DA0002FBF28EE33E040E050E00E94FC0619A27D
:100DB0008E010F5D1F4FCA01B901A30192010E946C
:100DC000FC06605DF80162938F0121153105410534
:100DD000510589F7309719F0CF010E94A70287E1EA
:100DE00092E00E94A7022114310409F484CF0E94EA
:100DF000000081CFE1E0C3CFA1E21A2EAA1BBB1BEA
:100E0000FD010DC0AA1FBB1FEE1FFF1FA217B307D6
:100E1000E407F50720F0A21BB30BE40BF50B661FEC
:100E2000771F881F991F1A9469F7609570958095B0
:100E300090959B01AC01BD01CF010895EE0FFF1FFE
:100E4000881F8BBF0790F691E02D1994F894FFCF7F
:100E500000000000F2037401A402A302484F4C41B9
:0E0E6000204D554E444F00207365672E000054
:00000001FF
