:100000000C945D000C9485000C9485000C94850084
:100010000C9485000C9485000C9485000C9485004C
:100020000C9485000C9485000C9485000C9485003C
:100030000C9485000C9485000C9485000C9485002C
:100040000C94D6030C9485000C9485000C948500C8
:100050000C9485000C9485000C9485000C9485000C
:100060000C9420040C94850000000008000201009C
:100070000003040700000000000000000000000072
:10008000250028002B0000000000240027002A0083
:10009000040404040404040402020202020203032E
:1000A0000303030301020408102040800102040836
:1000B00010200102040810203F0511241FBECFEFBD
:1000C000D8E0DEBFCDBF11E0A0E0B1E0E8E7F1E1AC
:1000D00002C005900D92AC34B107D9F722E0ACE430
:1000E000B1E001C01D92AD31B207E1F710E0CDE5FE
:1000F000D0E004C02197FE010E94DC05CC35D10779
:10010000C9F70E946D050C94BA080C94000090E0A9
:10011000FC01EC55FF4F249180579F4FFC018491C7
:10012000882399F090E0880F991FFC01EA57FF4F50
:10013000A591B491FC01E458FF4F859194918FB73C
:10014000F894EC91E22BEC938FBF08950895CF9330
:10015000DF93AC01E091F701F091F8013097F1F0F5
:100160009091F6018091F5019817C0F090E0292F49
:1001700030E02617370754F4D901AA5ABE4F240F8E
:10018000351FE90128812C939F5FF1CF1092F60172
:100190006093F501CB01DF91CF910994DF91CF916D
:1001A0000895AF92BF92CF92DF92EF92FF920F939A
:1001B0001F93CF93DF936C017B018B01040F151FFD
:1001C000EB015E01AE18BF08C017D10759F0699165
:1001D000D601ED91FC910190F081E02DC6010995C9
:1001E000892B79F7C501DF91CF911F910F91FF9076
:1001F000EF90DF90CF90BF90AF90089590E0FC011A
:10020000E859FF4F2491FC01EC55FF4F3491FC015C
:10021000E057FF4FE491EE23C9F0222339F0233059
:1002200001F1A8F4213019F1223029F1F0E0EE0FAC
:10023000FF1FE458FF4FA591B4918FB7F894EC914C
:10024000611126C030953E233C938FBF089527301F
:10025000A9F02830C9F0243049F7809180008F7DC3
:1002600003C0809180008F7780938000DFCF84B5BA
:100270008F7784BDDBCF84B58F7DFBCF8091B000BD
:100280008F778093B000D2CF8091B0008F7DF9CF6F
:100290003E2BDACF20919C01260F3327331F2132CA
:1002A0003105ECF42091C001FC0190E080E02430A5
:1002B00069F082E00895A0919C012191AC0144581D
:1002C0005E4FA40FB52FB11D2C930196861798F39E
:1002D00080919C01680F60939C0180E0089581E00B
:1002E00008951092C00181E08093C2011092C10173
:1002F00061E082E10E94FE0061E083E10E94FE0075
:10030000E9EBF0E080818E7F808380818D7F808328
:1003100088E48093B80085E48093BC000895089534
:10032000E091F6018091F501E81730F4F0E0EA5A27
:10033000FE4F808190E008958FEF9FEF0895909198
:10034000F6018091F5012FEF3FEF981748F4E92F60
:10035000F0E0EA5AFE4F208130E09F5F9093F60173
:10036000C90108958091F5019091F601891B990BBF
:100370000895CF93DF93CB01EA01642F0E944A01D5
:10038000CE01DF91CF910895CF93DF931F92CDB728
:10039000DEB7698361E0CE0101960E944A0181E0E7
:1003A00090E00F90DF91CF910895089590E080E064
:1003B0000895FC0101900020E9F73197AF01481B37
:1003C000590BBC0185E092E00C94D100CF93DF93F0
:1003D00085ED8093BC008091780190917901A09186
:1003E0007A01B0917B010796A11DB11D23E0B6955E
:1003F000A795979587952A95D1F72091BC0024FD64
:1004000003C01092C00136C040917801509179012B
:1004100060917A0170917B01452B462B472B69F344
:100420000097A105B10541F025E32A95F1F70000F9
:100430000197A109B109E1CF8091770191E09093F3
:1004400076018823B9F0C091B800D091BA008091AC
:10045000BC008A7B8093BC0060E082E10E94FE00C9
:1004600060E083E10E94FE000E947101D093BA0017
:10047000C093B800DF91CF910895CF93DF93EC0143
:1004800060E08E810E94FE0061E08E810E94FE008D
:1004900060E08E810E94FE008BE891E00197F1F709
:1004A000DF91CF910895CF92DF92EF92FF920F9359
:1004B0001F93CF93DF936C017C0187E0E80EF11C62
:1004C000D0E0C0E0062F10E0B8010C2E02C07595F8
:1004D00067950A94E2F76170F70181917F010E94AC
:1004E000FE002196C430D10579F7C601DF91CF9186
:1004F0001F910F91FF90EF90DF90CF900C943D02F1
:10050000CF92DF92EF92FF920F931F93CF93DF93DF
:10051000EC01F62E642F8C810E94FE008D818F3FAE
:1005200019F060E00E94FE000F2D10E08F8584FF1F
:1005300025C06E0187E0C80ED11CF12CE12CB8015A
:100540000E2C02C0759567950A94E2F76170F6016A
:1005500081916F010E94FE00FFEFEF1AFF0A88E011
:10056000E816F10461F7CE01DF91CF911F910F9151
:10057000FF90EF90DF90CF900C943D02B80184E0A3
:10058000759567958A95E1F7CE010E9453026F2D0C
:10059000CE01DF91CF911F910F91FF90EF90DF90EF
:1005A000CF900C94530240E0682F85E092E00C94C9
:1005B0008002CF93DF93823029F4909114029860E7
:1005C00090931402809318021092190280E4809391
:1005D0001A0280E180931B0280E580931C028091C7
:1005E00009020E94870080910A028F3F11F00E9449
:1005F000870080910B020E948700C5E0D2E09E0137
:10060000255032408091140284FD0AC084E090E0BD
:100610002196281739073CF48E810E948700EFCF7E
:1006200088E090E0F5CF8BE39DE00197F1F760E083
:10063000809109020E94FE0060E080910B020E94FE
:10064000FE0080910A028F3F19F060E00E94FE00D8
:100650008091140284FD39C063E085E092E00E943D
:100660005302CBE4D6E4CE010197F1F763E085E0D5
:1006700092E00E9453022197F1F763E085E092E057
:100680000E94530283E592E00197F1F762E085E072
:1006900092E00E9453028091140280620E94D30271
:1006A00084E0809315028CE00E94D30281E00E94D6
:1006B000D3028BE39FE10197F1F782E0809316026A
:1006C00086E0DF91CF910C94D30280620E94D30226
:1006D0008BE496E40197F1F78091140280620E9406
:1006E000D30283E592E00197F1F7809114028062D2
:1006F0000E94D302D0CF90911802891710F08FEF8B
:10070000890FE82FF0E0EB5FFD4F848980680C943F
:10071000D30289EF91E00E949F019093550180934D
:100720005401833191056CF581E00E947B038EE1D9
:1007300091E00E94D90180E00E947B038CE391E06C
:100740000E94D9011F928FED8F93809155018F9355
:10075000809154018F9383E491E09F938F938CE475
:1007600091E09F938F930E94E2058DB79EB7089604
:100770000FB6F8949EBF0FBE8DBF8CE491E00C9431
:10078000D9014397069730F481E00E947B0388E209
:1007900091E0CFCF81E00E947B0382E391E0C9CF5B
:1007A00041E00E94800281E090E008951F920F9244
:1007B0000FB60F9211242F933F938F939F93AF9374
:1007C000BF938091EB019091EC01A091ED01B0916C
:1007D000EE013091EA0123E0230F2D3758F5019601
:1007E000A11DB11D2093EA018093EB019093EC01D0
:1007F000A093ED01B093EE018091E6019091E701A5
:10080000A091E801B091E9010196A11DB11D80936D
:10081000E6019093E701A093E801B093E901BF914D
:10082000AF919F918F913F912F910F900FBE0F909D
:100830001F90189526E8230F0296A11DB11DD2CF57
:100840001F920F920FB60F9211242F933F934F9345
:100850005F936F937F938F939F93AF93BF93EF9328
:10086000FF938091B900887F803609F44AC0F0F583
:10087000883209F4A7C018F5803109F49BC0B8F498
:10088000882309F4F9C0883009F494C0FF91EF91EE
:10089000BF91AF919F918F917F916F915F914F9198
:1008A0003F912F910F900FBE0F901F901895883198
:1008B00009F488C0803251F78093BF0114C080349E
:1008C00009F49DC040F48033B9F38833F9F680937E
:1008D000BF0185ECB0C0803509F485C0883509F4C6
:1008E00096C0883499F60E94E601D0CF883909F481
:1008F0008CC038F5883729F050F4883611F08037ED
:1009000029F683E08093C0011092BE0157C0883859
:1009100009F47BC0803919F0803809F0B7CF809195
:10092000BE01803208F071C0E091BE0181E08E0FFF
:100930008093BE018091BB00F0E0E256FE4F8083C1
:100940003DC0803B39F0E0F4803A09F479C0883A40
:1009500009F09CCF84E08093C00110929D01109219
:100960009C01E091F101F091F201099580919C01C7
:1009700081110FC081E080939C0110927C0109C01D
:10098000803C09F4A6CF883C09F4A3CF883B09F04A
:100990007DCFE0919D0181E08E0F80939D01F0E07D
:1009A000E458FE4F80818093BB0090919D0180911F
:1009B0009C0129C08091E5018093BB0085EC809368
:1009C000BC0064CF9091E4018091E301981758F541
:1009D000E091E40181E08E0F8093E401F0E0ED53BB
:1009E000FE4F8081E9CFE091E40181E08E0F80939A
:1009F000E4018091BB00F0E0ED53FE4F80839091C5
:100A0000E4018091E3019817C8F285E8D8CFE0911E
:100A1000E40181E08E0F8093E4018091BB00F0E05F
:100A2000ED53FE4F80838091C20181115CCF81E044
:100A30008093C10184EA8093BC001092C00126CF4C
:100A400085EC8093BC001092C0018091BE01803281
:100A500030F4E091BE01F0E0E256FE4F108260916A
:100A6000BE0170E0E091EF01F091F0018EE991E0BC
:100A700009951092BE010ACF1092BF0134CFE9EF61
:100A8000F1E01382128288EE93E0A0E0B0E084836C
:100A90009583A683B78384E091E091838083E5E02A
:100AA000F2E01382128286E191E09183808382E0FA
:100AB00084838FEF858383E0868384E0878385E06A
:100AC000808786E0818787E0828713861486158673
:100AD0001686178681E00C94D902789484B58260DA
:100AE00084BD84B5816084BD85B5826085BD85B5D2
:100AF000816085BD80916E00816080936E00109250
:100B000081008091810082608093810080918100CA
:100B1000816080938100809180008160809380005B
:100B20008091B10084608093B1008091B0008160B9
:100B30008093B00080917A00846080937A008091E5
:100B40007A00826080937A0080917A00816080933D
:100B50007A0080917A00806880937A001092C100B8
:100B60001092F6011092F5011092F4011092F30127
:100B70000E94710186EA90E09093F2018093F10166
:100B800087EA90E09093F0018093EF018EE28093EA
:100B9000BA0082E00E94D90280E00E947B0389E8CB
:100BA00093E09093F8018093F701C0E0D0E02097A4
:100BB000F1F30E940000FBCFEE0FFF1F0590F491B0
:100BC000E02D0994AEE0B0E0E8EEF5E00C94910879
:100BD0000D891E8986E08C831A8309838FEF9FE736
:100BE0009E838D83AE01475E5F4F6F89788DCE0106
:100BF00001960E9405062F813885020F131FF80108
:100C000010822E96E4E00C94AD08ABE0B0E0EBE08F
:100C1000F6E00C9483087C013B018A01FC011782F9
:100C20001682838181FFC8C1CE0101965C01F70164
:100C30009381F30193FD859193FF81913F01882377
:100C400009F453C1853239F493FD859193FF819165
:100C50003F01853229F4B70190E00E94F507E7CF04
:100C6000912C212C312CFFE1F31538F08B3211F14E
:100C700090F4803209F1833229F137FC3CC020ED39
:100C8000280F2A3050F536FE20C08AE0989E200DAD
:100C90001124922E06C08D3291F0803371F7689442
:100CA00030F8F30193FD859193FF81913F0181110C
:100CB000DACF21C0689431F8689432F8F2CF6894A2
:100CC00033F8EFCF689434F8ECCFEAE02E9E200D95
:100CD0001124222E689435F8E4CF8E3229F436FCA4
:100CE00004C1689436F8DDCF8C3619F4689437F86F
:100CF000D8CF8836B1F2982F9F7D95549330E0F08D
:100D00008336A1F18337C1F1833509F063C028012F
:100D1000F2E04F0E511CF801C080D180692D70E0C7
:100D200036FC02C06FEF7FEFC6010E94DF074C0167
:100D3000689437F882010AC00C5F1F4FFFE3F98304
:100D400088248394912C6501E89437F833FE2DC0F4
:100D5000522C8114910471F5552009F468CFB70124
:100D600080E290E00E94F5075A94F6CFF801808166
:100D700089830E5F1F4FE4CF2801F2E04F0E511C14
:100D8000F801C080D180692D70E036FC02C06FEFA1
:100D90007FEFC6010E94EA074C018201D5CFB7015F
:100DA00080E290E00E94F5072A942814190409F0C3
:100DB000B0F7CECFF60137FC859137FE81916F01F8
:100DC000B70190E00E94F50751105A94F1E08F1A94
:100DD0009108BFCF843619F0893609F077C0F80141
:100DE00037FE6BC060817181828193810C5F1F4FE0
:100DF000F32DFF763F2E97FF09C090958095709553
:100E000061957F4F8F4F9F4F689437F82AE030E00D
:100E1000A5010E942508C82ECA188C2C432C36FE2A
:100E20000CC0E89440F8C91440F434FE05C032FC0C
:100E300003C0F32DFE7E4F2E892C44FE95C0FE018B
:100E4000EC0DF11D8081803309F087C0242D297EAF
:100E5000422E842D8870582E43FC95C040FE8FC0D2
:100E60009C2C821418F42C0C922C981844FE91C0DF
:100E7000B70180E390E00E94F50742FE09C088E7D1
:100E800090E041FE02C088E590E0B7010E94F507BE
:100E9000C91408F48AC0CA94D12C9FEFC91AD90A80
:100EA000CA0CDB1CF60182916F01B70190E00E9431
:100EB000F507AC14BD04B1F74FCF60817181072EE7
:100EC000000C880B990B0E5F1F4F92CFD32CE89428
:100ED000D4F82AE030E0853739F1232D297FD22E4E
:100EE0008F3601F148F48835A9F0F70186819781A2
:100EF0002B96E2E10C949F08803749F08837A9F7D8
:100F0000D4FE02C06894D2F820E130E00DC06894AD
:100F1000D4F8F6CF34FE03C0822F8660D82E20E1AD
:100F200032E002C028E030E0F801D7FE0FC0608157
:100F30007181828193810C5F1F4FA5010E9425085A
:100F4000C82ECA183D2CE89437F867CF60817181AC
:100F500090E080E00E5F1F4FF0CF42FC02C0839410
:100F600078CF8394839475CF842D867809F471CFDC
:100F7000F6CFB70180E290E00E94F50783948214D7
:100F8000C0F3512C73CF522C5818821408F46ECF32
:100F9000F8CF842D867809F47BCF8BE241FE80E286
:100FA00047FC8DE2B70190E071CFB70180E390E09C
:100FB0000E94F5079A946CCF8FEF9FEF99CFFC01B9
:100FC0000590615070400110D8F7809590958E0F74
:100FD0009F1F0895FC016150704001900110D8F7E7
:100FE000809590958E0F9F1F08950F931F93CF9319
:100FF000DF93182F092FEB018B8181FD09C01FEFB3
:101000000FEF812F902FDF91CF911F910F910895B6
:1010100082FF14C02E813F818C819D812817390762
:101020003CF4E881F981CF0101969983888310838C
:101030008E819F8101969F838E83E3CFE885F9851A
:10104000812F0995892BA1F3DACFFA01AA2728303D
:1010500051F1203181F1E8946F936E7F6E5F7F4F85
:101060008F4F9F4FAF4FB1E03ED0B4E03CD0670F01
:10107000781F891F9A1FA11D680F791F8A1F911D54
:10108000A11D6A0F711D811D911DA11D20D009F4A4
:1010900068943F912AE0269F11243019305D3193E6
:1010A000DEF6CF010895462F4770405D4193B3E0CF
:1010B0000FD0C9F7F6CF462F4F70405D4A3318F076
:1010C000495D31FD4052419302D0A9F7EACFB4E027
:1010D000A6959795879577956795BA95C9F70097DF
:1010E0006105710508959B01AC010A2E0694579580
:1010F000479537952795BA95C9F7620F731F841FD7
:10110000951FA01D08952F923F924F925F926F926C
:101110007F928F929F92AF92BF92CF92DF92EF9287
:10112000FF920F931F93CF93DF93CDB7DEB7CA1B08
:10113000DB0B0FB6F894DEBF0FBECDBF09942A8833
:10114000398848885F846E847D848C849B84AA84DB
:10115000B984C884DF80EE80FD800C811B81AA8168
:10116000B981CE0FD11D0FB6F894DEBF0FBECDBF33
:08117000ED010895F894FFCF92
:1011780000000000C401B901D6018F01B2019F012E
:10118800900100000000D003D100D601D5014E49DE
:1011980056454C203A2031004E4956454C203A20BD
:1011A80032004E4956454C203A20330054454D50A4
:0C11B8003A2000202530327525634300EA
:00000001FF
