:020000040000FA
:100000000C9440010C9471010C9471010C947101D9
:100010000C9471010C9471010C9471010C94710198
:100020000C9471010C9471010C9471010C94710188
:100030000C9471010C9471010C9471010C94710178
:100040000C9471010C9471010C9471010C94710168
:100050000C9471010C9471010C9471010C94B4070F
:100060000C9471010C947E070C9454070C9471014C
:100070000C9471010C9471010C9471010C94710138
:100080000C9471010C9471010C9471010C94710128
:100090000C9471010C9471010C9471010C94FE0785
:1000A0000C9471010C9471010C9471010C94710108
:1000B0000C9471010C9471010C9471010C947101F8
:1000C0000C9471010C9471010C9471010C947101E8
:1000D0000C9471010C9471010C9471010C947101D8
:1000E0000C9471010C945B030C9477030C9422091B
:1000F0000C942D040C940D020C94F7030C946903DA
:100100000C94E8030C9457030C946D030C941B029D
:100110000C9447030C9451030C942E040C9411047A
:100120000C9440030C94BD010C941C040C94260602
:100130000C9421030C9465030C94EA010C94440381
:100140000C9453020C94F9010C945F030C940A0470
:100150000C9438030C9458060C94E7030C94260373
:100160000C9493010C944D030C9492010C943C0359
:100170000C94A0020C94730300000A0B02090C0DEE
:100180000E0807030401000000000000000000004A
:10019000000000000000000000000000000000005F
:1001A000000000001211100000000000000000001C
:1001B000000000000000000000000000000000003F
:1001C0002200250028002B002E00310034000201FF
:1001D0000000050108010B01000021002400270098
:1001E0002A002D0030003300010100000401070146
:1001F0000A010505050507050808080802020202AC
:100200000A0A0808040404040101010101010101B2
:100210000303030303030303040707070C0C0C0C7D
:100220000C0C0C0C02020202060606060606060666
:100230000B0B0B0B0B0B0B0B0102102020080810F3
:100240002040102040800201020108040201010246
:10025000040810204080804020100804020180041F
:10026000020180402010080402010804020101027A
:100270000408102040800102040810204080220958
:1002800011241FBECFEFD1E2DEBFCDBF00E00CBF17
:1002900012E0A0E0B2E0EEE3FBE100E00BBF02C041
:1002A00007900D92AE35B107D9F723E0AEE5B2E085
:1002B00001C01D92AC3CB207E1F711E0C0E4D1E00F
:1002C00000E006C021970109802FFE010E94AB0AC1
:1002D000CF33D10780E00807A9F70E9478090C9472
:1002E0009D0D0C94000090E0FC01E85CFD4F249112
:1002F0008E509E4FFC018491882399F090E0880FE6
:10030000991FFC01E852FE4FA591B491FC01E25403
:10031000FE4F859194918FB7F894EC91E22BEC937A
:100320008FBF08950895CF93DF93AC01E091090347
:10033000F0910A033097F1F0909108038091070340
:100340009817C0F090E0292F30E02617370754F4B3
:10035000D901A859BD4F240F351FE90128812C93DD
:100360009F5FF1CF1092080360930703CB01DF91E9
:10037000CF911994DF91CF910895AF92BF92CF9210
:10038000DF92EF92FF920F931F93CF93DF936C0155
:100390007B018B01040F151FEB015E01AE18BF0836
:1003A000C017D10759F06991D601ED91FC910190E8
:1003B000F081E02DC6011995892B79F7C501DF91F0
:1003C000CF911F910F91FF90EF90DF90CF90BF9052
:1003D000AF900895FC01538D448D252F30E0842F7C
:1003E00090E0821B930B541710F0CF96089501975D
:1003F0000895FC01918D828D981761F0A28DAE0F4A
:10040000BF2FB11D5D968C91928D9F5F9F73928FD0
:1004100090E008958FEF9FEF0895FC01918D828DFC
:10042000981731F0828DE80FF11D858D90E00895C9
:100430008FEF9FEF0895FC01918D228D892F90E021
:10044000805C9F4F821B91098F73992708958BE0E1
:1004500093E00E941B0221E0892B09F420E0822F07
:100460000895FC01A48DA80FB92FB11DA35ABF4F49
:100470002C91848D90E001968F739927848FA689A3
:10048000B7892C93A089B1898C91837080648C93F7
:10049000938D848D981306C00288F389E02D8081A6
:1004A0008F7D80830895EF92FF920F931F93CF93D8
:1004B000DF93EC0181E0888F9B8D8C8D98131AC09F
:1004C000E889F989808185FF15C09FB7F894EE8986
:1004D000FF896083E889F9898081837080648083E3
:1004E0009FBF81E090E0DF91CF911F910F91FF902E
:1004F000EF900895F62E0B8D10E00F5F1F4F0F73D6
:100500001127E02E8C8D8E110CC00FB607FCFACF90
:10051000E889F989808185FFF5CFCE010E943102FB
:10052000F1CFEB8DEC0FFD2FF11DE35AFF4FF08261
:100530009FB7F8940B8FEA89FB8980818062CFCFC7
:10054000CF93DF93EC01888D8823B9F0AA89BB890A
:10055000E889F9898C9185FD03C0808186FD0DC0F5
:100560000FB607FCF7CF8C9185FFF2CF808185FF16
:10057000EDCFCE010E943102E9CFDF91CF910895F6
:1005800080E090E0892B29F00E94270281110E94CF
:10059000000080E090E0892B49F080E090E0892B1A
:1005A00029F00E94000081110E94000080E090E08C
:1005B000892B49F080E090E0892B29F00E9400000F
:1005C00081110E94000080E090E0892B49F080E0DA
:1005D00090E0892B29F00E94000081110C9400000A
:1005E0000895282F30E0F901E858FE4F9491F90161
:1005F000E85CFD4F44912E503E4FF9012491222397
:1006000009F435C0992311F191509231F8F4E92F92
:10061000F0E08827E15FFC4F8F4F0C94AB0A40035A
:100620004403210338033C03260347034D035103CE
:1006300057035B035F036503690326036D037303BD
:100640007703809180008F7780938000E22FF0E025
:10065000EE0FFF1FE254FE4FA591B4918FB7F894AF
:10066000EC91611148C040954E234C938FBF089583
:10067000809180008F7DE8CF80918000877FE4CFDC
:1006800084B58F7784BDE2CF84B58F7DFBCF809119
:10069000B0008F778093B000D9CF8091B0008F7D6C
:1006A000F9CF809190008F7780939000CFCF809189
:1006B00090008F7DF9CF80919000877FF5CF80915A
:1006C000A0008F778093A000C1CF8091A0008F7D84
:1006D000F9CF8091A000877FF5CF809120018F779F
:1006E00080932001B3CF809120018F7DF9CF80913D
:1006F0002001877FF5CF4E2BB8CF3FB7F89480917C
:10070000FD029091FE02A091FF02B091000326B578
:10071000A89B05C02F3F19F00196A11DB11D3FBF39
:10072000BA2FA92F982F8827BC01CD01620F711D08
:10073000811D911D42E0660F771F881F991F4A9502
:10074000D1F708952091AE02260F3327331F2132AF
:100750003105ECF42091D202FC0190E080E02430DD
:1007600069F082E00895A091AE022191AC01425758
:100770005D4FA40FB52FB11D2C930196861798F3EA
:100780008091AE02680F6093AE0280E0089581E030
:1007900008951092D20281E08093D4021092D30285
:1007A00061E084E10E94F10261E085E10E94F102D2
:1007B000E9EBF0E080818E7F808380818D7F808374
:1007C00088E48093B80085E48093BC000895089580
:1007D000E091080380910703E81730F4F0E0E8594E
:1007E000FD4F808190E008958FEF9FEF08959091E5
:1007F0000803809107032FEF3FEF981748F4E92F84
:10080000F0E0E859FD4F208130E09F5F90930803AE
:10081000C90108958091070390910803891B990BE2
:100820000895CF93DF93CB01EA01642F0E94A203C6
:10083000CE01DF91CF910895CF93DF931F92CDB773
:10084000DEB7698361E0CE0101960E94A20381E0D8
:1008500090E00F90DF91CF910895089590E080E0AF
:1008600008958F929F92AF92BF920F931F93CF9351
:10087000DF93CDB7DEB7A1970FB6F894DEBF0FBEFA
:10088000CDBF19A2423008F44AE08E010F5D1F4F20
:10089000842E912CB12CA12CA50194010E94890ACF
:1008A000E62FB901CA01EA3044F5E05DD801EE93C4
:1008B0008D01232B242B252B79F790E080E01097D6
:1008C00069F0FD0101900020E9F73197AF014A1B63
:1008D0005B0BBD018BE093E00E94BD01A1960FB6BA
:1008E000F894DEBF0FBECDBFDF91CF911F910F9166
:1008F000BF90AF909F908F900895E95CD7CFCF9332
:10090000DF9385ED8093BC0080918A0290918B02E9
:10091000A0918C02B0918D020796A11DB11D23E01C
:10092000B695A795979587952A95D1F72091BC0004
:1009300024FD03C01092D20236C040918A02509129
:100940008B0260918C0270918D02452B462B472BB8
:1009500069F30097A105B10541F025E32A95F1F768
:1009600000000197A109B109E1CF8091890291E0CE
:10097000909388028823B9F0C091B800D091BA0052
:100980008091BC008A7B8093BC0060E084E10E947F
:10099000F10260E085E10E94F1020E94C903D09358
:1009A000BA00C093B800DF91CF910895CF93DF9341
:1009B000EC0160E08E810E94F10261E08E810E9474
:1009C000F10260E08E810E94F1028BE891E00197D4
:1009D000F1F7DF91CF910895CF92DF92EF92FF92DE
:1009E0000F931F93CF93DF936C017C0187E0E80E98
:1009F000F11CD0E0C0E0062F10E0B8010C2E02C0C0
:100A0000759567950A94E2F76170F70181917F010E
:100A10000E94F1022196C430D10579F7C601DF9119
:100A2000CF911F910F91FF90EF90DF90CF900C949A
:100A3000D604CF92DF92EF92FF920F931F93CF9342
:100A4000DF93EC01F62E642F8C810E94F1028D81E0
:100A50008F3F19F060E00E94F1020F2D10E08F85AA
:100A600084FF25C06E0187E0C80ED11CF12CE12C5B
:100A7000B8010E2C02C0759567950A94E2F7617073
:100A8000F60181916F010E94F102FFEFEF1AFF0A58
:100A900088E0E816F10461F7CE01DF91CF911F9154
:100AA0000F91FF90EF90DF90CF900C94D604B80197
:100AB00084E0759567958A95E1F7CE010E94EC0474
:100AC0006F2DCE01DF91CF911F910F91FF90EF908D
:100AD000DF90CF900C94EC0440E0682F84EB93E01F
:100AE0000C941905CF93DF93823029F49091C303BE
:100AF00098609093C3038093C7031092C80380E467
:100B00008093C90380E18093CA0380E58093CB037F
:100B10008091B8030E9473018091B9038F3F11F057
:100B20000E9473018091BA030E947301C4EBD3E069
:100B30009E01245B33408091C30384FD0AC084E09E
:100B400090E02196281739073CF48E810E947301AA
:100B5000EFCF88E090E0F5CF8BE39DE00197F1F7D0
:100B600060E08091B8030E94F10260E08091BA03D6
:100B70000E94F1028091B9038F3F19F060E00E945A
:100B8000F1028091C30384FD39C063E084EB93E0FC
:100B90000E94EC04CBE4D6E4CE010197F1F763E0C8
:100BA00084EB93E00E94EC042197F1F763E084EB7F
:100BB00093E00E94EC0483E592E00197F1F762E094
:100BC00084EB93E00E94EC048091C30380620E9456
:100BD0006C0584E08093C4038CE00E946C0581E086
:100BE0000E946C058BE39FE10197F1F782E080930F
:100BF000C50386E0DF91CF910C946C0580620E9462
:100C00006C058BE496E40197F1F78091C303806251
:100C10000E946C0583E592E00197F1F78091C30390
:100C200080620E946C05D0CF643008F063E0909140
:100C3000C703691710F06FEF690FE62FF0E0EC546F
:100C4000FC4F9489890F80680C946C0541E00E94E8
:100C5000190581E090E00895FF920F931F93CF93C1
:100C6000DF93EC01F62E80E00E9414068E01FE0157
:100C700001900020E9F73197EC1BFD0BC8018C1B9C
:100C80009D0B8E179F0770F4F80161918F0141E071
:100C900084EB93E00E9419056F2D802F8C1B0E941E
:100CA0001406E5CFDF91CF911F910F91FF9008952A
:100CB000CF92DF92EF92FF9288EA93E00E94F703CF
:100CC0009C019093670280936602009789F481E00B
:100CD0000E946C058BE39FE10197F1F770E060E003
:100CE00080E392E0FF90EF90DF90CF900C942C0681
:100CF000833191050CF07EC097FF5DC03195219541
:100D000031091F928FED8F93C9016AE070E00E9454
:100D1000750A9F938F933F932F9388E392E09F935D
:100D20008F938EE592E09F938F930E94C70A8DB7B1
:100D30009EB70A960FB6F8949EBF0FBE8DBF60E0B7
:100D40008CE00E94F10260E08DE00E94F10261E01F
:100D500070E085E492E00E942C0670E060E08EE591
:100D600092E00E942C06C0906602D09067020D2C83
:100D7000000CEE08FF084AE0C701B601F7FE0DC0FF
:100D80006DE28BE093E00E94530266277727CB0148
:100D90006C197D098E099F094AE00E94310442E0E6
:100DA00050E06AE572E08BE093E0FF90EF90DF9017
:100DB000CF900C94BD011F928FED8F93C9016AE013
:100DC00070E00E94750A9F938F933F932F9389E35E
:100DD00092E09F938F938EE592E09F938F930E9472
:100DE000C70A8DB79EB70A960FB6F8949EBF0FBE7E
:100DF0008DBFA5CF6AE070E00E94750AA90142513B
:100E000051094830510540F51F924FED4F939F9384
:100E10008F933F932F9389E392E09F938F938EE577
:100E200092E09F938F930E94C70A61E08CE00E943A
:100E3000F10260E08DE00E94F10261E070E08CE47C
:100E400092E00E942C068DB79EB70A960FB6F894D2
:100E50009EBF0FBE8DBF81CF1F924FED4F939F93CB
:100E60008F933F932F9389E392E09F938F938EE527
:100E700092E09F938F930E94C70A61E08CE00E94EA
:100E8000F10261E08DE00E94F10261E070E083E533
:100E900092E00E942C068DB79EB70A960FB6F89482
:100EA0009EBF0FBE8DBF59CF1F920F920FB60F92EC
:100EB00011240BB60F922F933F934F935F936F9331
:100EC0007F938F939F93AF93BF93EF93FF938BE0A9
:100ED00093E00E943102FF91EF91BF91AF919F91FA
:100EE0008F917F916F915F914F913F912F910F90D3
:100EF0000BBE0F900FBE0F901F9018951F920F9270
:100F00000FB60F9211240BB60F922F938F939F93CE
:100F1000EF93FF93E0911B03F0911C038081E0911C
:100F20002103F091220382FD1DC090818091240352
:100F30008F5F8F7320912503821741F0E091240386
:100F4000F0E0E55FFC4F958F80932403FF91EF91D4
:100F50009F918F912F910F900BBE0F900FBE0F900E
:100F60001F9018958081F2CF1F920F920FB60F92AB
:100F700011242F933F938F939F93AF93BF938091AF
:100F8000F9029091FA02A091FB02B091FC0230911B
:100F9000F80223E0230F2D3758F50196A11DB11D4E
:100FA0002093F8028093F9029093FA02A093FB0237
:100FB000B093FC028091FD029091FE02A091FF028D
:100FC000B09100030196A11DB11D8093FD02909385
:100FD000FE02A093FF02B0930003BF91AF919F91D7
:100FE0008F913F912F910F900FBE0F901F901895EA
:100FF00026E8230F0296A11DB11DD2CF1F920F929A
:101000000FB60F9211240BB60F922F933F934F936D
:101010005F936F937F938F939F93AF93BF93EF9360
:10102000FF938091B900887F803609F44DC008F0A5
:1010300040C0883209F4A9C028F5803109F49DC068
:10104000C8F4882309F4FBC0883009F496C0FF91E6
:10105000EF91BF91AF919F918F917F916F915F9130
:101060004F913F912F910F900BBE0F900FBE0F909D
:101070001F901895883109F488C0803241F7809319
:10108000D10214C0803409F49DC040F48033B9F318
:101090008833E9F68093D10285ECB0C0803509F43D
:1010A00085C0883509F496C0883489F60E947F048B
:1010B000CECF883909F48CC038F5883729F050F440
:1010C000883611F0803719F683E08093D2021092AF
:1010D000D00257C0883809F47BC0803919F08038B5
:1010E00009F0B5CF8091D002803208F071C0E09154
:1010F000D00281E08E0F8093D0028091BB00F0E09F
:10110000E055FD4F80833DC0803B39F0E0F4803AEC
:1011100009F479C0883A09F09ACF84E08093D2022A
:101120001092AF021092AE02E0910303F09104031B
:1011300019958091AE0281110FC081E08093AE02BB
:1011400010928E0209C0803C09F4A6CF883C09F4B5
:10115000A3CF883B09F07BCFE091AF0281E08E0FF7
:101160008093AF02F0E0E257FD4F80818093BB0097
:101170009091AF028091AE0229C08091F7028093D6
:10118000BB0085EC8093BC0062CF9091F602809109
:10119000F502981758F5E091F60281E08E0F8093E2
:1011A000F602F0E0EB52FD4F8081E9CFE091F602CC
:1011B00081E08E0F8093F6028091BB00F0E0EB524D
:1011C000FD4F80839091F6028091F5029817C8F246
:1011D00085E8D8CFE091F60281E08E0F8093F60289
:1011E0008091BB00F0E0EB52FD4F80838091D402F0
:1011F00081115CCF81E08093D30284EA8093BC00AC
:101200001092D20224CF85EC8093BC001092D202BF
:101210008091D002803230F4E091D002F0E0E055CD
:10122000FD4F10826091D00270E0E0910103F091D7
:10123000020380EB92E019951092D00208CF109231
:10124000D10234CFEBE0F3E01382128288EE93E018
:10125000A0E0B0E084839583A683B78324E032E0E6
:101260003183208325EC30E03587248724EC30E07F
:101270003787268720EC30E0318B208B21EC30E063
:10128000338B228B22EC30E0358B248B26EC30E044
:10129000378B268B118E128E138E148EE8EAF3E0B4
:1012A0001382128284839583A683B78386E192E0BA
:1012B00091838083E4EBF3E01382128288E292E070
:1012C0009183808385E084838FEF858384E08683A8
:1012D00083E0878382E0808787E0818786E082875A
:1012E0001386148615861686178681E00C9472057F
:1012F000789484B5826084BD84B5816084BD85B5F1
:10130000826085BD85B5816085BD80916E008160FC
:1013100080936E00109281008091810082608093A2
:1013200081008091810081608093810080918000A4
:101330008160809380008091B10084608093B100CF
:101340008091B00081608093B000809191008260B4
:1013500080939100809191008160809391008091B1
:1013600090008160809390008091A10082608093C2
:10137000A1008091A10081608093A1008091A000D4
:1013800081608093A000809121018260809321017F
:1013900080912101816080932101809120018160F1
:1013A0008093200180917A00846080937A008091FC
:1013B0007A00826080937A0080917A0081608093C5
:1013C0007A0080917A00806880937A001092C10040
:1013D0008DE00E9473018CE00E94730182E00E9404
:1013E0007205E0911B03F0911C03C2E0C083E09101
:1013F0001703F09118031082E0911903F0911A037A
:101400008FEC808310922303E0911F03F09120035F
:1014100086E08083E0911D03F0911E03808180614E
:101420008083E0911D03F0911E038081886080839A
:10143000E0911D03F0911E03808180688083E0911C
:101440001D03F0911E0380818F7D808370E060E03A
:1014500080E392E00E942C0610920803109207038A
:1014600010920603109205030E94C90382E991E0DD
:10147000909304038093030383E991E09093020324
:1014800080930103C093BA0088E596E090930A0325
:10149000809309030E947D034B015C0184E6C82E02
:1014A000D12CE12CF12C0E947D03681979098A095D
:1014B0009B09683E734081059105A8F321E0C21A9B
:1014C000D108E108F10888EE880E83E0981EA11C7F
:1014D000B11CC114D104E104F10429F760E080E0FB
:1014E0000E9414060E94C002D5CF97FB072E16F467
:1014F000009407D077FD09D00E94B30A07FC05D0FD
:101500003EF4909581959F4F0895709561957F4F1A
:101510000895A1E21A2EAA1BBB1BFD010DC0AA1F34
:10152000BB1FEE1FFF1FA217B307E407F50720F04C
:10153000A21BB30BE40BF50B661F771F881F991FC7
:101540001A9469F760957095809590959B01AC0110
:10155000BD01CF010895EE0FFF1F881F8BBF0790BD
:10156000F691E02D1994AA1BBB1B51E107C0AA1FDD
:10157000BB1FA617B70710F0A61BB70B881F991F34
:101580005A95A9F780959095BC01CD0108950F93C8
:101590001F93CF93DF93CDB7DEB72E970FB6F89496
:1015A000DEBF0FBECDBF0E891F8986E08C831A83F4
:1015B00009838FEF9FE79E838D83AE01465E5F4F69
:1015C000688D798DCE0101960E94F70A2F813885AA
:1015D000020F131FF80110822E960FB6F894DEBF8B
:1015E0000FBECDBFDF91CF911F910F9108952F9224
:1015F0003F924F925F926F927F928F929F92AF92A3
:10160000BF92CF92DF92EF92FF920F931F93CF93EF
:10161000DF9300D000D000D01F921F92CDB7DEB76D
:101620007C013B018A01FC0117821682838181FFC4
:10163000DDC1CE0101965C01F7019381F30193FDB9
:10164000859193FF81913F01882309F453C185322D
:1016500039F493FD859193FF81913F01853229F4FF
:10166000B70190E00E940F0DE7CF912C212C312C77
:10167000FFE1F31538F08B3211F190F4803209F16B
:10168000833229F137FC3CC020ED280F2A3050F579
:1016900036FE20C08AE0989E200D1124922E06C0AE
:1016A0008D3291F0803371F7689430F8F30193FD37
:1016B000859193FF81913F018111DACF21C0689418
:1016C00031F8689432F8F2CF689433F8EFCF689429
:1016D00034F8ECCFEAE02E9E200D1124222E6894DF
:1016E00035F8E4CF8E3229F436FC04C1689436F81C
:1016F000DDCF8C3619F4689437F8D8CF8836B1F23C
:10170000982F9F7D95549330E0F08336A1F1833775
:10171000C1F1833509F063C02801F2E04F0E511C7E
:10172000F801C080D180692D70E036FC02C06FEFF7
:101730007FEFC6010E94F90C4C01689437F88201D2
:101740000AC00C5F1F4FFFE3F98388248394912C18
:101750006501E89437F833FE2DC0522C81149104B2
:1017600071F5552009F468CFB70180E290E00E943E
:101770000F0D5A94F6CFF801808189830E5F1F4FB9
:10178000E4CF2801F2E04F0E511CF801C080D18057
:10179000692D70E036FC02C06FEF7FEFC6010E943A
:1017A000040D4C018201D5CFB70180E290E00E9488
:1017B0000F0D2A942814190409F0B0F7CECFF601C2
:1017C00037FC859137FE81916F01B70190E00E944F
:1017D0000F0D51105A94F1E08F1A9108BFCF843643
:1017E00019F0893609F077C0F80137FE6BC06081C7
:1017F0007181828193810C5F1F4FF32DFF763F2E05
:1018000097FF09C090958095709561957F4F8F4F98
:101810009F4F689437F82AE030E0A5010E943F0D01
:10182000C82ECA188C2C432C36FE0CC0E89440F805
:10183000C91440F434FE05C032FC03C0F32DFE7E13
:101840004F2E892C44FEAAC0FE01EC0DF11D8081B3
:10185000803309F09CC0242D297E422E842D88706F
:10186000582E43FCAAC040FEA4C09C2C821418F43D
:101870002C0C922C981844FEA6C0B70180E390E08F
:101880000E940F0D42FE09C088E790E041FE02C0B1
:1018900088E590E0B7010E940F0DC91408F49FC0BD
:1018A000CA94D12C9FEFC91AD90ACA0CDB1CF601C5
:1018B00082916F01B70190E00E940F0DAC14BD043E
:1018C000B1F74FCF60817181072E000C880B990B07
:1018D0000E5F1F4F92CFD32CE894D4F82AE030E06B
:1018E0008537E1F1232D297FD22E8F36A9F1F0F42F
:1018F000883551F1F701868197812B960FB6F894C0
:10190000DEBF0FBECDBFDF91CF911F910F91FF9032
:10191000EF90DF90CF90BF90AF909F908F907F908F
:101920006F905F904F903F902F900895803749F0CF
:10193000883701F7D4FE02C06894D2F820E130E085
:101940000DC06894D4F8F6CF34FE03C0822F8660B1
:10195000D82E20E132E002C028E030E0F801D7FEC6
:101960000FC060817181828193810C5F1F4FA5013F
:101970000E943F0DC82ECA183D2CE89437F852CF6C
:101980006081718190E080E00E5F1F4FF0CF42FCDC
:1019900002C0839463CF8394839460CF842D867830
:1019A00009F45CCFF6CFB70180E290E00E940F0D02
:1019B00083948214C0F3512C5ECF522C5818821499
:1019C00008F459CFF8CF842D867809F466CF8BE2DE
:1019D00041FE80E247FC8DE2B70190E05CCFB701A9
:1019E00080E390E00E940F0D9A9457CF8FEF9FEF06
:1019F00084CFFC010590615070400110D8F78095AC
:101A000090958E0F9F1F0895FC01615070400190CA
:101A10000110D8F7809590958E0F9F1F08950F9312
:101A20001F93CF93DF93182F092FEB018B8181FD3B
:101A300009C01FEF0FEF812F902FDF91CF911F91E2
:101A40000F91089582FF14C02E813F818C819D816A
:101A5000281739073CF4E881F981CF010196998371
:101A6000888310838E819F8101969F838E83E3CF2D
:101A7000E885F985812F1995892BA1F3DACFFA0131
:101A8000AA27283051F1203181F1E8946F936E7FBD
:101A90006E5F7F4F8F4F9F4FAF4FB1E03ED0B4E0AE
:101AA0003CD0670F781F891F9A1FA11D680F791FEF
:101AB0008A1F911DA11D6A0F711D811D911DA11D00
:101AC00020D009F468943F912AE0269F1124301910
:101AD000305D3193DEF6CF010895462F4770405DAB
:101AE0004193B3E00FD0C9F7F6CF462F4F70405D5A
:101AF0004A3318F0495D31FD4052419302D0A9F7B5
:101B0000EACFB4E0A6959795879577956795BA95AE
:101B1000C9F700976105710508959B01AC010A2E74
:101B200006945795479537952795BA95C9F7620F4B
:101B3000731F841F951FA01D0895F894FFCF000008
:101B400000005302BD01EA01A0021B02F9010D02CF
:101B5000000000001C0411042E04E7030A04F7032C
:101B6000E803000000002606BD012E042D0441708C
:101B7000616761646F002D253032752E2531752522
:101B80006343004C564C3A2031004C564C3A2032BC
:0C1B9000004C564C3A2033000D0A0000B7
:10E000000D9489F10D94B2F10D94B2F10D94B2F129
:10E010000D94B2F10D94B2F10D94B2F10D94B2F1F0
:10E020000D94B2F10D94B2F10D94B2F10D94B2F1E0
:10E030000D94B2F10D94B2F10D94B2F10D94B2F1D0
:10E040000D94B2F10D94B2F10D94B2F10D94B2F1C0
:10E050000D94B2F10D94B2F10D94B2F10D94B2F1B0
:10E060000D94B2F10D94B2F10D94B2F10D94B2F1A0
:10E070000D94B2F10D94B2F10D94B2F10D94B2F190
:10E080000D94B2F10D94B2F10D94B2F10D94B2F180
:10E090000D94B2F10D94B2F10D94B2F10D94B2F170
:10E0A0000D94B2F10D94B2F10D94B2F10D94B2F160
:10E0B0000D94B2F10D94B2F10D94B2F10D94B2F150
:10E0C0000D94B2F10D94B2F10D94B2F10D94B2F140
:10E0D0000D94B2F10D94B2F10D94B2F10D94B2F130
:10E0E0000D94B2F141546D656761323536300041AF
:10E0F000726475696E6F206578706C6F72657220DE
:10E1000073746B3530305632206279204D4C530099
:10E11000426F6F746C6F616465723E004875683F52
:10E1200000436F6D70696C6564206F6E203D200048
:10E130004350552054797065202020203D20005FF9
:10E140005F4156525F415243485F5F3D2000415658
:10E1500052204C696243205665723D20004743437C
:10E160002056657273696F6E203D20004350552024
:10E1700049442020202020203D20004C6F7720663D
:10E18000757365202020203D20004869676820665F
:10E190007573652020203D200045787420667573D6
:10E1A00065202020203D20004C6F636B2066757336
:10E1B000652020203D20004D617220203720323024
:10E1C000313300312E362E3800342E332E350056A2
:10E1D00023202020414444522020206F7020636F70
:10E1E00064652020202020696E73747275637469E1
:10E1F0006F6E2061646472202020496E74657272B3
:10E20000757074006E6F20766563746F7200726A49
:10E210006D702020006A6D70200057686174207056
:10E220006F72743A00506F7274206E6F7420737541
:10E2300070706F72746564004D7573742062652030
:10E2400061206C6574746572002000577269747483
:10E25000696E672045450052656164696E672045B7
:10E26000450045452065727220636E743D00504F35
:10E27000525400303D5A65726F2061646472003FF1
:10E280003D43505520737461747300403D454550C3
:10E29000524F4D207465737400423D426C696E6B41
:10E2A000204C454400453D44756D70204545505215
:10E2B0004F4D00463D44756D7020464C415348001B
:10E2C000483D48656C70004C3D4C69737420492F83
:10E2D0004F20506F72747300513D51756974005234
:10E2E0003D44756D702052414D00563D73686F7707
:10E2F00020696E7465727275707420566563746FF0
:10E30000727300593D506F727420626C696E6B00BD
:10E310002A0011241FBECFEFD1E2DEBFCDBF01E046
:10E320000CBF12E0A0E0B2E0EEE1FDEF03E00BBFB6
:10E3300002C007900D92A030B107D9F712E0A0E01B
:10E34000B2E001C01D92AE30B107E1F70F9460F367
:10E350000D948DFE01E20EBF0FEF0DBF11241FBE05
:10E360000D9460F30D9400F020E030E040ED57E0B4
:10E3700005C0FA013197F1F72F5F3F4F2817390792
:10E38000C0F308959C01260F311DC901A0E0B0E043
:10E390002F5F3F4FABBFFC018791882361F08093D3
:10E3A000C6008091C00086FFFCCF8091C0008064D1
:10E3B0008093C000EACF08958DE08093C6008091DD
:10E3C000C00086FFFCCF8091C00080648093C000B5
:10E3D0008AE08093C6008091C00086FFFCCF8091C8
:10E3E000C00080648093C00008950F94C2F10F9420
:10E3F000DCF10895FC019081992359F09093C600B7
:10E400008091C00086FFFCCF8091C0008064809323
:10E41000C0003196992379F70895282F982F929567
:10E420009F70892F805D8A3308F0895F8093C600D2
:10E430008091C00086FFFCCF8091C00080648093F3
:10E44000C000822F8F70982F905D9A3308F0995FEB
:10E450009093C6008091C00086FFFCCF8091C000E1
:10E4600080648093C00008959C01FB01853691056E
:10E470001CF46330710594F0C90164E670E00F94F8
:10E480002EFE605D7F4F6093C6008091C00086FFC6
:10E49000FCCF8091C00080648093C0002B30310598
:10E4A00014F43297B4F0C90164E670E00F942EFEC4
:10E4B0006AE070E00F942EFE605D7F4F6093C600AF
:10E4C0008091C00086FFFCCF8091C0008064809363
:10E4D000C000C9016AE070E00F942EFEC0968093E0
:10E4E000C6008091C00086FFFCCF8091C000806490
:10E4F0008093C00008951F93182F8EE692EE60E07F
:10E500000F94C2F11093C6008091C00086FFFCCF2B
:10E510008091C00080648093C0000F94DCF11F9153
:10E5200008952F923F924F925F926F927F928F92B7
:10E530009F92AF92BF92CF92DF92EF92FF920F9392
:10E540001F93DF93CF93CDB7DEB762970FB6F894E2
:10E55000DEBF0FBECDBF382E622ECA01DB015C01CB
:10E560006D01772420E2222E2E010894411C511CBB
:10E570008BC081E0A81680E0B80681E0C80680E084
:10E58000D80628F0C601AA27BB270F940DF2BB2797
:10E59000AD2D9C2D8B2D0F940DF28A2D0F940DF225
:10E5A0002092C6008091C00086FFFCCF8091C00001
:10E5B00080648093C0009DE29093C6008091C0006B
:10E5C00086FFFCCF8091C00080648093C0002092C1
:10E5D000C6008091C00086FFFCCF8091C00080649F
:10E5E0008093C00019828601750188249924A1E0D6
:10E5F0003A1651F03A1620F0B2E03B1661F409C029
:10E600000BBFF701779007C0C7010F9477FE782EF4
:10E6100002C0F7017080872D0F940DF22092C60082
:10E620008091C00086FFFCCF8091C0008064809301
:10E63000C000872D8052F401EF70F0708F3520F408
:10E64000E40DF51D708204C0E40DF51D8EE280839B
:10E650000894E11CF11C011D111D0894811C911CE2
:10E6600090E18916910409F0C2CF80E190E0A0E02A
:10E67000B0E0A80EB91ECA1EDB1E198AC2010F9493
:10E68000FAF10F94DCF16A94662009F072CF629679
:10E690000FB6F894DEBF0FBECDBFCF91DF911F91B3
:10E6A0000F91FF90EF90DF90CF90BF90AF909F9031
:10E6B0008F907F906F905F904F903F902F90089534
:10E6C0002F923F924F925F926F927F928F929F9282
:10E6D000AF92BF92CF92DF92EF92FF920F931F9370
:10E6E000DF93CF93CDB7DEB7CD53D1400FB6F894BB
:10E6F000DEBF0FBECDBF01E20EBF0FEF0DBF94B75F
:10E70000F894A89514BE80916000886180936000A1
:10E7100010926000789493FF05C0E0910002F091A0
:10E7200001021995279A2F9A8091C00082608093E8
:10E73000C00080E18093C40088E18093C1000000A4
:10E74000EE24FF24870144E0A42EB12CCC24DD2448
:10E7500024C0C5010197F1F70894E11CF11C011DCB
:10E76000111D21E2E2162EE4F20620E0020720E06D
:10E77000120718F031E0C32ED12CC801B70127ECE5
:10E780003BE140E050E00F9441FE611571058105C9
:10E79000910519F485B1805885B98091C00087FD35
:10E7A00003C0C114D104A9F2A6014F5F5F4FC25E3E
:10E7B000DE4F59834883CE51D140C25EDE4F8881FF
:10E7C0009981CE51D140019711F00D9410FEC05D9A
:10E7D000DE4F19821882C053D14060E0C15DDE4F28
:10E7E0001882CF52D14088249924C35DDE4F19820C
:10E7F0001882CD52D140C05EDE4F188219821A8233
:10E800001B82C052D140CE5CDE4F188219821A8220
:10E810001B82C253D140EE24FF2487010BBFF701B6
:10E8200007911691C45CDE4F19830883CC53D14005
:10E830000D940BFEC25EDE4F28813981CE51D1404E
:10E840002130310509F52091C600C25EDE4F1982E4
:10E850001882CE51D14022C02F5F3F4F4F4F5F4FA4
:10E86000213082E138078AE7480780E0580780F0C6
:10E87000C45CDE4FE881F981CC53D140EF5FFF4F9C
:10E8800019F0EE27FF27099420E030E040E050E047
:10E890008091C00087FFE0CF2091C600C35DDE4FAE
:10E8A00048815981CD52D1404F5F5F4FC35DDE4FEC
:10E8B00059834883CD52D140213209F063C64A3092
:10E8C000510508F05FC60894811C911C53E0851621
:10E8D000910409F059C600E010E018C081E280936D
:10E8E000C6008091C00086FFFCCF8091C00080648C
:10E8F0008093C0002F5F3F4F2931310579F70F9486
:10E90000DCF10F5F1F4F0530110519F020E030E0FA
:10E91000E5CF10920A0210920B0210920C02109294
:10E920000D02109206021092070210920802109235
:10E930000902109202021092030210920402109235
:10E9400005028FEE90EE60E00F94F5F180E191EE1C
:10E9500060E00F94C2F18091C00087FFFCCF9091DE
:10E96000C600903608F09F759032B8F09093C600BC
:10E970008091C00086FFFCCF8091C00080648093AE
:10E98000C000A0E2A093C6008091C00086FFFCCF2B
:10E990008091C00080648093C000983409F4D7C18E
:10E9A0009934B8F4923409F459C1933458F490333B
:10E9B00019F1903308F4E3C59F33A1F1903409F0C5
:10E9C000DEC5BDC0953409F470C1963409F0D7C5D1
:10E9D00098C1923509F42BC2933538F49C3409F46C
:10E9E000F5C1913509F0CBC518C2963509F445C279
:10E9F000993509F0C4C567C483E792EE62E00F94CD
:10EA0000F5F110920602109207021092080210927D
:10EA1000090210920A0210920B0210920C0210923C
:10EA20000D0213C18FE792EE62E00F94F5F18FEEC5
:10EA300090EE60E00F94F5F181E291EE60E00F94CA
:10EA4000C2F187EB91EE60E00F94F5F180E391EE77
:10EA500060E00F94C2F184EE90EE60E00F94F5F167
:10EA60008FE391EE60E00F94C2F186E090E061E008
:10EA700070E00F9434F20F94DCF18DE591EE60E0DC
:10EA80000F94C2F189EC91EE60E00F94F5F18EE401
:10EA900091EE60E00F94C2F183EC91EE60E00F9490
:10EAA000F5F18CE691EE60E00F94C2F18EE10F94E7
:10EAB0000DF288E90F940DF281E00F940DF20F949E
:10EAC000DCF18BE791EE60E00F94C2F119E0E0E039
:10EAD000F0E010935700E4918E2F0F940DF20F94F5
:10EAE000DCF18AE891EE60E00F94C2F1E3E0F0E03F
:10EAF00010935700E4918E2F0F940DF20F94DCF1D8
:10EB000089E991EE60E00F94C2F1E2E0F0E0109349
:10EB10005700E4918E2F0F940DF20F94DCF188EAE8
:10EB200091EE60E00F94C2F1E1E0F0E01093570045
:10EB30001491812F0F940DF20F94DCF107CF8BE825
:10EB400092EE62E00F94F5F18BE492EE60E00F94A8
:10EB5000F5F10F94DCF100E010E019C0C8016F2D51
:10EB60000F947FFEFF2031F489E492EE60E00F9471
:10EB7000C2F10BC0F092C6008091C00086FFFCCFAE
:10EB80008091C00080648093C0000F5F1F4FC80158
:10EB900081519F41A0E0B0E0ABBFFC01F790BAE229
:10EBA000FB1621F0E2E000301E07C1F60F94DCF105
:10EBB0000F94DCF187E592EE60E00F94F5F10F948D
:10EBC000DCF1CC24DD2400E010E01EC0C8010F946D
:10EBD00077FEF82E882331F489E492EE60E00F94FA
:10EBE000C2F10BC08093C6008091C00086FFFCCFAD
:10EBF0008091C00080648093C000FE1419F00894D6
:10EC0000C11CD11C0F5F1F4FC80181519F41A0E063
:10EC1000B0E0ABBFFC01E790FAE2EF1621F022E092
:10EC20000030120799F60F94DCF10F94DCF182E6C4
:10EC300092EE60E00F94C2F1C60161E070E00F94C3
:10EC400034F20F94DCF10F94DCF110920202109276
:10EC50000302109204021092050278CE89E992EE26
:10EC600062E00F94F5F1279A2F9A16C02F9880E052
:10EC700090E0E0EDF7E03197F1F7019684369105E9
:10EC8000C1F72F9A80E090E0E0EDF7E03197F1F7DF
:10EC9000019684369105C1F78091C00087FFE6CFC9
:10ECA0008091C00087FFFCCF64C485EA92EE62E0E9
:10ECB0000F94F5F140910202509103026091040219
:10ECC0007091050281E020E10F9491F2809102029F
:10ECD00090910302A0910402B091050280509F4FD1
:10ECE000AF4FBF4F8093020290930302A0930402A0
:10ECF000B093050280509041A040B04008F426CE69
:10ED0000A4CF83EB92EE62E00F94F5F140910602FE
:10ED100050910702609108027091090280E020E1A1
:10ED20000F9491F28091060290910702A09108023F
:10ED3000B091090280509F4FAF4FBF4F80930602A2
:10ED400090930702A0930802B0930902FFCD80ECD4
:10ED500092EE62E00F94F5F183E792EE60E00F949B
:10ED6000F5F18FE792EE60E00F94F5F18BE892EE0B
:10ED700060E00F94F5F189E992EE60E00F94F5F10F
:10ED800085EA92EE60E00F94F5F183EB92EE60E09D
:10ED90000F94F5F180EC92EE60E00F94F5F187ECC2
:10EDA00092EE60E00F94F5F188ED92EE60E00F9442
:10EDB000F5F18FED92EE60E00F94F5F18AEE92EEB0
:10EDC00060E00F94F5F183E093EEBDCD87EC92EE19
:10EDD00062E00F94F5F181E40F947BF282E40F94EA
:10EDE0007BF283E40F947BF284E40F947BF285E45E
:10EDF0000F947BF286E40F947BF287E40F947BF20E
:10EE000088E40F947BF28AE40F947BF28BE40F94F6
:10EE10007BF28CE40F947BF299CD88ED92EE62E068
:10EE20000F94F5F1772473948824992409C48FED05
:10EE300092EE62E00F94F5F140910A0250910B02BC
:10EE400060910C0270910D0282E020E10F9491F22A
:10EE500080910A0290910B02A0910C02B0910D02D8
:10EE600080509F4FAF4FBF4F80930A0290930B0289
:10EE7000A0930C02B0930D0269CD8AEE92EE62E08F
:10EE80000F94F5F184EE90EE60E00F94F5F18FECC5
:10EE900091EE60E00F94F5F1662477244301CC5D98
:10EEA000DE4F19821882C452D140D401C301B695F5
:10EEB000A79597958795CA5DDE4F88839983AA8326
:10EEC000BB83C652D140CC5DDE4FA881B981C4520C
:10EED000D1401196CC5DDE4FB983A883C452D14096
:10EEE000CD0162E070E00F9434F2B0E2B093C6005E
:10EEF0008091C00086FFFCCF8091C0008064809329
:10EF0000C000EDE2E093C6008091C00086FFFCCF18
:10EF10008091C00080648093C000F0E2F093C6004E
:10EF20008091C00086FFFCCF8091C00080648093F8
:10EF3000C000CA5DDE4FE880F9800A811B81C6529D
:10EF4000D140BB27A12F902F8F2D0F940DF2CA5DBA
:10EF5000DE4F8881C652D1400F940DF2B0E2FB2EF5
:10EF6000F092C6008091C00086FFFCCF8091C00067
:10EF700080648093C0000DE30093C6008091C000C0
:10EF800086FFFCCF8091C00080648093C00010E2B7
:10EF90001093C6008091C00086FFFCCF8091C00016
:10EFA00080648093C0008BBEF3012791C65DDE4F65
:10EFB0002883CA52D140A22EBB24CC24DD2408943D
:10EFC000611C711C811C911C8BBEF3018791282E42
:10EFD0003324442455240894611C711C811C911C09
:10EFE0008BBEF3013791C55DDE4F3883CB52D140E4
:10EFF0000894611C711C811C911C8BBEF30147910C
:10F00000C45DDE4F4883CC52D140ADEFEA2EAFEF66
:10F01000FA2EAFEF0A2FAFEF1A2F6E0C7F1C801E57
:10F02000911E142D032DF22CEE24EA0CFB1C0C1D5A
:10F030001D1D0F940DF220E22093C6008091C000A8
:10F0400086FFFCCF8091C00080648093C000C65DC5
:10F05000DE4F8881CA52D1400F940DF230E23093D6
:10F06000C6008091C00086FFFCCF8091C000806404
:10F070008093C000C45DDE4F8881CC52D1400F9494
:10F080000DF240E24093C6008091C00086FFFCCFA5
:10F090008091C00080648093C000C55DDE4F888190
:10F0A000CB52D1400F940DF250E25093C6008091A4
:10F0B000C00086FFFCCF8091C00080648093C000B8
:10F0C0008FEFE8168FEFF80680E0080780E018075A
:10F0D00031F484E092EE60E00F94C2F1DFC0D80119
:10F0E000C7018070907CA070B0708050904CA040A0
:10F0F000B040D1F52FEF3FE340E050E0E222F322B1
:10F1000004231523CA5DDE4FA880B980CA80DB8046
:10F11000C652D140AE0CBF1CC01ED11EAA0CBB1CD7
:10F12000CC1CDD1C8EE092EE60E00F94C2F1BB2798
:10F13000A12F902F8F2D0F940DF28E2D0F940DF285
:10F1400030E23093C6008091C00086FFFCCF8091F2
:10F15000C00080648093C0004EE34093C60080915D
:10F16000C00086FFFCCF87C08EE09EEFA0E0B0E03D
:10F17000E822F9220A231B239CE0E91694E9F90608
:10F1800090E0090790E0190709F088C0C45DDE4FE0
:10F19000A881CC52D140EA2EFF2400E010E0102FCD
:10F1A0000F2DFE2CEE24C55DDE4FB881CB52D14031
:10F1B000EB0EF11C011D111DD601C501817090706F
:10F1C000A070B070DC0199278827E80EF91E0A1F8D
:10F1D0001B1F20EF30E040E050E0A222B322C42207
:10F1E000D52241E1AA0CBB1CCC1CDD1C4A95D1F7F1
:10F1F000EA0CFB1C0C1D1D1D81E090E0A0E0B0E0BE
:10F20000282239224A225B2235E1220C331C441C7D
:10F21000551C3A95D1F7E20CF31C041D151D57013E
:10F220006801AA0CBB1CCC1CDD1C85E192EE60E0E1
:10F230000F94C2F1C801AA27BB270F940DF2BB2778
:10F24000A12F902F8F2D0F940DF28E2D0F940DF274
:10F2500090E29093C6008091C00086FFFCCF809121
:10F26000C00080648093C000AEE3A093C60080918C
:10F27000C00086FFFCCF8091C00080648093C000F6
:10F28000C601AA27BB270F940DF2BB27AD2D9C2DDD
:10F290008B2D0F940DF28A2D0F940DF20F94DCF14B
:10F2A000CC5DDE4FE881F981C452D140F99709F471
:10F2B0004DCBF4E0EF2EF12C012D112D6E0C7F1CA7
:10F2C000801E911EF2CD83E093EE62E00F94F5F183
:10F2D0008AE192EE60E00F94C2F18091C00087FF56
:10F2E000FCCF1091C6001F751093C6008091C0001E
:10F2F00086FFFCCF8091C00080648093C0000F9493
:10F30000DCF1812F81548A3108F036C1163409F4BA
:10F3100095C0173490F4133409F44EC0143430F40B
:10F320001134F1F0123409F01DC130C0143409F465
:10F3300059C0153409F016C16BC01A3409F4C4C0A1
:10F340001B3438F4173409F48FC0183409F00AC19B
:10F35000A1C01B3409F4D2C01C3409F003C1E8C0B9
:10F360008FEF81B90DC082B1809582B980E090E0C5
:10F37000E0EDF7E03197F1F70196883C9105C1F790
:10F380008091C00087FFEFCF12B8EFC08FEF84B934
:10F390000DC085B1809585B980E090E0E0EDF7E0A3
:10F3A0003197F1F70196883C9105C1F78091C00033
:10F3B00087FFEFCF15B8D9C08FEF87B90DC088B1DF
:10F3C000809588B980E090E0E0EDF7E03197F1F7C3
:10F3D0000196883C9105C1F78091C00087FFEFCF6F
:10F3E00018B8C3C08FEF8AB90DC08BB180958BB9A7
:10F3F00080E090E0E0EDF7E03197F1F70196883C8E
:10F400009105C1F78091C00087FFEFCF1BB8ADC059
:10F410008FEF8DB90DC08EB180958EB980E090E0F0
:10F42000E0EDF7E03197F1F70196883C9105C1F7DF
:10F430008091C00087FFEFCF1EB897C08FEF80BBD1
:10F440000DC081B3809581BB80E090E0E0EDF7E0F6
:10F450003197F1F70196883C9105C1F78091C00082
:10F4600087FFEFCF11BA81C08FEF83BB0DC084B38C
:10F47000809584BB80E090E0E0EDF7E03197F1F714
:10F480000196883C9105C1F78091C00087FFEFCFBE
:10F4900014BA6BC08FEF809301010FC080910201FD
:10F4A00080958093020180E090E0E0EDF7E03197F5
:10F4B000F1F70196883C9105C1F78091C00087FF64
:10F4C000EDCF1092020151C08FEF809304010FC065
:10F4D0008091050180958093050180E090E0E0ED4A
:10F4E000F7E03197F1F70196883C9105C1F78091DB
:10F4F000C00087FFEDCF1092050137C08FEF8093DA
:10F5000007010FC08091080180958093080180E079
:10F5100090E0E0EDF7E03197F1F70196883C910536
:10F52000C1F78091C00087FFEDCF109208011DC088
:10F530008FEF80930A010FC080910B01809580931B
:10F540000B0180E090E0E0EDF7E03197F1F70196F4
:10F55000883C9105C1F78091C00087FFEDCF1092E4
:10F560000B0103C085E292EEEEC98091C00087FFD7
:10F57000FCCF8091C600EAC988E392EEE4C98CE131
:10F5800091EEE1C988249924933011F1943028F444
:10F59000913089F09230B8F408C0953061F195301F
:10F5A000F0F0963009F048C043C02B3109F042C951
:10F5B00091E06BE13FC96227C15DDE4F2883CF52E6
:10F5C000D14092E037C9B22FA0E0622793E032C960
:10F5D000822F90E0A82BB92B622794E02BC92E3004
:10F5E00009F039C3622795E0C05DDE4F19821882A9
:10F5F000C053D1401FC9E1E0F0E0EC0FFD1FC05D3A
:10F60000DE4F08811981C053D140E00FF11F2083E4
:10F610000F5F1F4FC05DDE4F19830883C053D14079
:10F6200062270A171B0709F005C9D80196E002C92D
:10F63000261709F010C303C0973009F0FBC87724E0
:10F640009981933109F412C19431C8F4963009F4C8
:10F65000D8C0973050F4923009F406C1933009F4C1
:10F660006DC0913009F059C253C0913109F477C08F
:10F67000923108F0BBC0903109F04FC2F5C098310B
:10F6800009F487C0993150F4953109F4EFC09531F0
:10F6900008F4C6C1963109F040C2C2C19A3109F4DA
:10F6A0006CC09A3108F491C09B3109F45BC09D3164
:10F6B00009F033C29D81903359F48F81882311F46E
:10F6C0009EE11CC0813011F091E018C098E916C08D
:10F6D000892F807591F0903539F4E0E0F0E089E011
:10F6E0008093570094910AC0983539F4E3E0F0E034
:10F6F00089E080935700949101C090E01A821B82A8
:10F700008D818C831D829E831F8227E030E009C299
:10F710001A8288E08B8381E48C8386E58D8382E581
:10F720008E8389E48F8383E5888780E589878FE5E9
:10F730008A8782E38B872BE030E0F3C18A818139AD
:10F7400041F0823941F0803911F48FE005C080E04A
:10F7500003C082E001C08AE01A828B8344C0772410
:10F76000739482C08D81882311F48EE12CC0813086
:10F7700011F081E028C088E926C01A82E1E0F0E0BB
:10F7800089E08093570084918B831C8224E030E0D1
:10F79000C8C18B81803589F48C81883039F4E2E0EE
:10F7A000F0E089E08093570084910DC0E0E0F0E044
:10F7B00089E080935700849106C0E3E0F0E089E09F
:10F7C0008093570084911A82DFCF8D81836C99E0FA
:10F7D000E1E0F0E0082E90935700E89507B600FCB2
:10F7E000FDCF1A821B8223E030E09BC180EC8A832C
:10F7F000CE5CDE4F188219821A821B82C253D1401E
:10F800008EC18A8190E0A0E0B0E0582F44273327D2
:10F8100022278B8190E0A0E0B0E0DC0199278827C7
:10F82000282B392B4A2B5B2B8D8190E0A0E0B0E098
:10F83000282B392B4A2B5B2B8C8190E0A0E0B0E089
:10F84000BA2FA92F982F8827282B392B4A2B5B2BCF
:10F85000220F331F441F551FC05EDE4F288339839C
:10F860004A835B83C052D1401A8259C13A81C95C34
:10F87000DE4F3883C753D140CA5CDE4F1882C6536F
:10F88000D1408B81C82EDD24CA5CDE4F488159816E
:10F89000C653D140C42AD52A933109F082C0CE5C28
:10F8A000DE4F88819981AA81BB81C253D1408050AB
:10F8B000904CA340B04030F583E0CE5CDE4FE88052
:10F8C000F9800A811B81C253D140F70100935B008C
:10F8D00080935700E89507B600FCFDCFCE5CDE4F65
:10F8E000088119812A813B81C253D14000501F4FAA
:10F8F0002F4F3F4FCE5CDE4F088319832A833B8313
:10F90000C253D140C05EDE4F488159816A817B81FC
:10F91000C052D140DE011B9631E08C9111962C91A2
:10F9200011971296C75CDE4F2883C953D140C85C3B
:10F93000DE4F1882C853D14090E0C85CDE4FE881AA
:10F94000F981C853D1408E2B9F2B0C01FA01609393
:10F950005B0030935700E89511244E5F5F4F6F4F67
:10F960007F4F0EEFE02E0FEFF02ECE0CDF1CC114F8
:10F97000D10499F685E0C05EDE4F088119812A81A5
:10F980003B81C052D140F80120935B008093570027
:10F99000E89507B600FCFDCF81E180935700E8951C
:10F9A00035C0C05EDE4F88819981AA81BB81C0527B
:10F9B000D140B695A795979587957C018601ABE0D8
:10F9C000AA2EB12CAC0EBD1E0BC0D5016D915D01F0
:10F9D000C7010F947FFE0894E11CF11C01501040F8
:10F9E0000115110591F7A60160E070E0440F551F65
:10F9F000661F771FC05EDE4FE880F9800A811B8199
:10FA0000C052D1404E0D5F1D601F711F1A82C05E33
:10FA1000DE4F488359836A837B83C052D1407FC0C5
:10FA2000FA80C55CDE4FF882CB53D140C65CDE4F16
:10FA30001882CA53D1408B81C82EDD24C65CDE4FAC
:10FA400008811981CA53D140C02AD12A1A828981DA
:10FA5000BE016D5F7F4F843121F59601C05EDE4FA0
:10FA6000E880F9800A811B81C052D1400BBFF701A9
:10FA700087919691DB018C9311969C936E5F7F4FDB
:10FA8000D801C7010296A11DB11DC05EDE4F88835B
:10FA90009983AA83BB83C052D14022503040F1F6F3
:10FAA00036C0C05EDE4F288139814A815B81C052F9
:10FAB000D1400894C108D108760100E010E0089414
:10FAC000C11CD11C0894E11CF11C011D111DE20E8A
:10FAD000F31E041F151F21BDBB27A52F942F832FB5
:10FAE00082BD2F5F3F4F4F4F5F4FF89A80B5DB01CC
:10FAF0008D93BD012E153F054007510761F7C05E8C
:10FB0000DE4F288339834A835B83C052D1409601FC
:10FB10002D5F3F4FFB01108204C080EC8A8322E0FE
:10FB200030E08BE18093C6008091C00086FFFCCF5F
:10FB30008091C00080648093C000C15DDE4FF88179
:10FB4000CF52D140F093C6008091C00086FFFCCF19
:10FB50008091C00080648093C000432F3093C60022
:10FB60008091C00086FFFCCF8091C00080648093AC
:10FB7000C000922F2093C6008091C00086FFFCCF6A
:10FB80008091C00080648093C0008EE08093C600A6
:10FB90008091C00086FFFCCF8091C000806480937C
:10FBA000C00065E1C15DDE4FE880CF52D1406E25D7
:10FBB00069276427FE01319610C090819093C6009A
:10FBC0008091C00086FFFCCF31968091C000806498
:10FBD0008093C0006927215030402115310569F715
:10FBE0006093C6008091C00086FFFCCF8091C0006A
:10FBF00080648093C00085B1805885B9772081F4F6
:10FC0000C15DDE4F0881CF52D1400F5FC15DDE4F35
:10FC10000883CF52D14090E0A0E0B0E00D941AF4F8
:10FC200027982F9880E090E020ED37E0F901319798
:10FC3000F1F7019684369105C9F700008091C00064
:10FC40008D7F8093C00081E180935700E895EE2777
:10FC5000FF270994FFCF90E00D941AF497FB092E2B
:10FC600007260AD077FD04D02ED006D000201AF443
:10FC7000709561957F4F0895F6F7909581959F4F08
:10FC80000895A1E21A2EAA1BBB1BFD010DC0AA1FDD
:10FC9000BB1FEE1FFF1FA217B307E407F50720F0F5
:10FCA000A21BB30BE40BF50B661F771F881F991F70
:10FCB0001A9469F760957095809590959B01AC01B9
:10FCC000BD01CF010895AA1BBB1B51E107C0AA1FAC
:10FCD000BB1FA617B70710F0A61BB70B881F991FED
:10FCE0005A95A9F780959095BC01CD010895F99991
:10FCF000FECF92BD81BDF89A992780B50895262F31
:10FD0000F999FECF1FBA92BD81BD20BD0FB6F89400
:0EFD1000FA9AF99A0FBE01960895F894FFCF63
:00000001FF
