:100000000C9440010C9471010C9471010C947101D9
:100010000C9471010C9471010C9471010C94710198
:100020000C9471010C9471010C9471010C94710188
:100030000C9471010C9471010C9471010C94710178
:100040000C9471010C9471010C9471010C94710168
:100050000C9471010C9471010C9471010C94B4070F
:100060000C9471010C947E070C9454070C9471014C
:100070000C9471010C9471010C9471010C94710138
:100080000C9471010C9471010C9471010C94710128
:100090000C9471010C9471010C9471010C94FE0785
:1000A0000C9471010C9471010C9471010C94710108
:1000B0000C9471010C9471010C9471010C947101F8
:1000C0000C9471010C9471010C9471010C947101E8
:1000D0000C9471010C9471010C9471010C947101D8
:1000E0000C9471010C945B030C9477030C9422091B
:1000F0000C942D040C940D020C94F7030C946903DA
:100100000C94E8030C9457030C946D030C941B029D
:100110000C9447030C9451030C942E040C9411047A
:100120000C9440030C94BD010C941C040C94260602
:100130000C9421030C9465030C94EA010C94440381
:100140000C9453020C94F9010C945F030C940A0470
:100150000C9438030C9458060C94E7030C94260373
:100160000C9493010C944D030C9492010C943C0359
:100170000C94A0020C94730300000A0B02090C0DEE
:100180000E0807030401000000000000000000004A
:10019000000000000000000000000000000000005F
:1001A000000000001211100000000000000000001C
:1001B000000000000000000000000000000000003F
:1001C0002200250028002B002E00310034000201FF
:1001D0000000050108010B01000021002400270098
:1001E0002A002D0030003300010100000401070146
:1001F0000A010505050507050808080802020202AC
:100200000A0A0808040404040101010101010101B2
:100210000303030303030303040707070C0C0C0C7D
:100220000C0C0C0C02020202060606060606060666
:100230000B0B0B0B0B0B0B0B0102102020080810F3
:100240002040102040800201020108040201010246
:10025000040810204080804020100804020180041F
:10026000020180402010080402010804020101027A
:100270000408102040800102040810204080220958
:1002800011241FBECFEFD1E2DEBFCDBF00E00CBF17
:1002900012E0A0E0B2E0EEE3FBE100E00BBF02C041
:1002A00007900D92AE35B107D9F723E0AEE5B2E085
:1002B00001C01D92AC3CB207E1F711E0C0E4D1E00F
:1002C00000E006C021970109802FFE010E94AB0AC1
:1002D000CF33D10780E00807A9F70E9478090C9472
:1002E0009D0D0C94000090E0FC01E85CFD4F249112
:1002F0008E509E4FFC018491882399F090E0880FE6
:10030000991FFC01E852FE4FA591B491FC01E25403
:10031000FE4F859194918FB7F894EC91E22BEC937A
:100320008FBF08950895CF93DF93AC01E091090347
:10033000F0910A033097F1F0909108038091070340
:100340009817C0F090E0292F30E02617370754F4B3
:10035000D901A859BD4F240F351FE90128812C93DD
:100360009F5FF1CF1092080360930703CB01DF91E9
:10037000CF911994DF91CF910895AF92BF92CF9210
:10038000DF92EF92FF920F931F93CF93DF936C0155
:100390007B018B01040F151FEB015E01AE18BF0836
:1003A000C017D10759F06991D601ED91FC910190E8
:1003B000F081E02DC6011995892B79F7C501DF91F0
:1003C000CF911F910F91FF90EF90DF90CF90BF9052
:1003D000AF900895FC01538D448D252F30E0842F7C
:1003E00090E0821B930B541710F0CF96089501975D
:1003F0000895FC01918D828D981761F0A28DAE0F4A
:10040000BF2FB11D5D968C91928D9F5F9F73928FD0
:1004100090E008958FEF9FEF0895FC01918D828DFC
:10042000981731F0828DE80FF11D858D90E00895C9
:100430008FEF9FEF0895FC01918D228D892F90E021
:10044000805C9F4F821B91098F73992708958BE0E1
:1004500093E00E941B0221E0892B09F420E0822F07
:100460000895FC01A48DA80FB92FB11DA35ABF4F49
:100470002C91848D90E001968F739927848FA689A3
:10048000B7892C93A089B1898C91837080648C93F7
:10049000938D848D981306C00288F389E02D8081A6
:1004A0008F7D80830895EF92FF920F931F93CF93D8
:1004B000DF93EC0181E0888F9B8D8C8D98131AC09F
:1004C000E889F989808185FF15C09FB7F894EE8986
:1004D000FF896083E889F9898081837080648083E3
:1004E0009FBF81E090E0DF91CF911F910F91FF902E
:1004F000EF900895F62E0B8D10E00F5F1F4F0F73D6
:100500001127E02E8C8D8E110CC00FB607FCFACF90
:10051000E889F989808185FFF5CFCE010E943102FB
:10052000F1CFEB8DEC0FFD2FF11DE35AFF4FF08261
:100530009FB7F8940B8FEA89FB8980818062CFCFC7
:10054000CF93DF93EC01888D8823B9F0AA89BB890A
:10055000E889F9898C9185FD03C0808186FD0DC0F5
:100560000FB607FCF7CF8C9185FFF2CF808185FF16
:10057000EDCFCE010E943102E9CFDF91CF910895F6
:1005800080E090E0892B29F00E94270281110E94CF
:10059000000080E090E0892B49F080E090E0892B1A
:1005A00029F00E94000081110E94000080E090E08C
:1005B000892B49F080E090E0892B29F00E9400000F
:1005C00081110E94000080E090E0892B49F080E0DA
:1005D00090E0892B29F00E94000081110C9400000A
:1005E0000895282F30E0F901E858FE4F9491F90161
:1005F000E85CFD4F44912E503E4FF9012491222397
:1006000009F435C0992311F191509231F8F4E92F92
:10061000F0E08827E15FFC4F8F4F0C94AB0A40035A
:100620004403210338033C03260347034D035103CE
:1006300057035B035F036503690326036D037303BD
:100640007703809180008F7780938000E22FF0E025
:10065000EE0FFF1FE254FE4FA591B4918FB7F894AF
:10066000EC91611148C040954E234C938FBF089583
:10067000809180008F7DE8CF80918000877FE4CFDC
:1006800084B58F7784BDE2CF84B58F7DFBCF809119
:10069000B0008F778093B000D9CF8091B0008F7D6C
:1006A000F9CF809190008F7780939000CFCF809189
:1006B00090008F7DF9CF80919000877FF5CF80915A
:1006C000A0008F778093A000C1CF8091A0008F7D84
:1006D000F9CF8091A000877FF5CF809120018F779F
:1006E00080932001B3CF809120018F7DF9CF80913D
:1006F0002001877FF5CF4E2BB8CF3FB7F89480917C
:10070000FD029091FE02A091FF02B091000326B578
:10071000A89B05C02F3F19F00196A11DB11D3FBF39
:10072000BA2FA92F982F8827BC01CD01620F711D08
:10073000811D911D42E0660F771F881F991F4A9502
:10074000D1F708952091AE02260F3327331F2132AF
:100750003105ECF42091D202FC0190E080E02430DD
:1007600069F082E00895A091AE022191AC01425758
:100770005D4FA40FB52FB11D2C930196861798F3EA
:100780008091AE02680F6093AE0280E0089581E030
:1007900008951092D20281E08093D4021092D30285
:1007A00061E084E10E94F10261E085E10E94F102D2
:1007B000E9EBF0E080818E7F808380818D7F808374
:1007C00088E48093B80085E48093BC000895089580
:1007D000E091080380910703E81730F4F0E0E8594E
:1007E000FD4F808190E008958FEF9FEF08959091E5
:1007F0000803809107032FEF3FEF981748F4E92F84
:10080000F0E0E859FD4F208130E09F5F90930803AE
:10081000C90108958091070390910803891B990BE2
:100820000895CF93DF93CB01EA01642F0E94A203C6
:10083000CE01DF91CF910895CF93DF931F92CDB773
:10084000DEB7698361E0CE0101960E94A20381E0D8
:1008500090E00F90DF91CF910895089590E080E0AF
:1008600008958F929F92AF92BF920F931F93CF9351
:10087000DF93CDB7DEB7A1970FB6F894DEBF0FBEFA
:10088000CDBF19A2423008F44AE08E010F5D1F4F20
:10089000842E912CB12CA12CA50194010E94890ACF
:1008A000E62FB901CA01EA3044F5E05DD801EE93C4
:1008B0008D01232B242B252B79F790E080E01097D6
:1008C00069F0FD0101900020E9F73197AF014A1B63
:1008D0005B0BBD018BE093E00E94BD01A1960FB6BA
:1008E000F894DEBF0FBECDBFDF91CF911F910F9166
:1008F000BF90AF909F908F900895E95CD7CFCF9332
:10090000DF9385ED8093BC0080918A0290918B02E9
:10091000A0918C02B0918D020796A11DB11D23E01C
:10092000B695A795979587952A95D1F72091BC0004
:1009300024FD03C01092D20236C040918A02509129
:100940008B0260918C0270918D02452B462B472BB8
:1009500069F30097A105B10541F025E32A95F1F768
:1009600000000197A109B109E1CF8091890291E0CE
:10097000909388028823B9F0C091B800D091BA0052
:100980008091BC008A7B8093BC0060E084E10E947F
:10099000F10260E085E10E94F1020E94C903D09358
:1009A000BA00C093B800DF91CF910895CF93DF9341
:1009B000EC0160E08E810E94F10261E08E810E9474
:1009C000F10260E08E810E94F1028BE891E00197D4
:1009D000F1F7DF91CF910895CF92DF92EF92FF92DE
:1009E0000F931F93CF93DF936C017C0187E0E80E98
:1009F000F11CD0E0C0E0062F10E0B8010C2E02C0C0
:100A0000759567950A94E2F76170F70181917F010E
:100A10000E94F1022196C430D10579F7C601DF9119
:100A2000CF911F910F91FF90EF90DF90CF900C949A
:100A3000D604CF92DF92EF92FF920F931F93CF9342
:100A4000DF93EC01F62E642F8C810E94F1028D81E0
:100A50008F3F19F060E00E94F1020F2D10E08F85AA
:100A600084FF25C06E0187E0C80ED11CF12CE12C5B
:100A7000B8010E2C02C0759567950A94E2F7617073
:100A8000F60181916F010E94F102FFEFEF1AFF0A58
:100A900088E0E816F10461F7CE01DF91CF911F9154
:100AA0000F91FF90EF90DF90CF900C94D604B80197
:100AB00084E0759567958A95E1F7CE010E94EC0474
:100AC0006F2DCE01DF91CF911F910F91FF90EF908D
:100AD000DF90CF900C94EC0440E0682F84EB93E01F
:100AE0000C941905CF93DF93823029F49091C303BE
:100AF00098609093C3038093C7031092C80380E467
:100B00008093C90380E18093CA0380E58093CB037F
:100B10008091B8030E9473018091B9038F3F11F057
:100B20000E9473018091BA030E947301C4EBD3E069
:100B30009E01245B33408091C30384FD0AC084E09E
:100B400090E02196281739073CF48E810E947301AA
:100B5000EFCF88E090E0F5CF8BE39DE00197F1F7D0
:100B600060E08091B8030E94F10260E08091BA03D6
:100B70000E94F1028091B9038F3F19F060E00E945A
:100B8000F1028091C30384FD39C063E084EB93E0FC
:100B90000E94EC04CBE4D6E4CE010197F1F763E0C8
:100BA00084EB93E00E94EC042197F1F763E084EB7F
:100BB00093E00E94EC0483E592E00197F1F762E094
:100BC00084EB93E00E94EC048091C30380620E9456
:100BD0006C0584E08093C4038CE00E946C0581E086
:100BE0000E946C058BE39FE10197F1F782E080930F
:100BF000C50386E0DF91CF910C946C0580620E9462
:100C00006C058BE496E40197F1F78091C303806251
:100C10000E946C0583E592E00197F1F78091C30390
:100C200080620E946C05D0CF643008F063E0909140
:100C3000C703691710F06FEF690FE62FF0E0EC546F
:100C4000FC4F9489890F80680C946C0541E00E94E8
:100C5000190581E090E00895FF920F931F93CF93C1
:100C6000DF93EC01F62E80E00E9414068E01FE0157
:100C700001900020E9F73197EC1BFD0BC8018C1B9C
:100C80009D0B8E179F0770F4F80161918F0141E071
:100C900084EB93E00E9419056F2D802F8C1B0E941E
:100CA0001406E5CFDF91CF911F910F91FF9008952A
:100CB000CF92DF92EF92FF9288EA93E00E94F703CF
:100CC0009C019093670280936602009789F481E00B
:100CD0000E946C058BE39FE10197F1F770E060E003
:100CE00080E392E0FF90EF90DF90CF900C942C0681
:100CF000833191050CF07EC097FF5DC03195219541
:100D000031091F928FED8F93C9016AE070E00E9454
:100D1000750A9F938F933F932F9388E392E09F935D
:100D20008F938EE592E09F938F930E94C70A8DB7B1
:100D30009EB70A960FB6F8949EBF0FBE8DBF60E0B7
:100D40008CE00E94F10260E08DE00E94F10261E01F
:100D500070E085E492E00E942C0670E060E08EE591
:100D600092E00E942C06C0906602D09067020D2C83
:100D7000000CEE08FF084AE0C701B601F7FE0DC0FF
:100D80006DE28BE093E00E94530266277727CB0148
:100D90006C197D098E099F094AE00E94310442E0E6
:100DA00050E06AE572E08BE093E0FF90EF90DF9017
:100DB000CF900C94BD011F928FED8F93C9016AE013
:100DC00070E00E94750A9F938F933F932F9389E35E
:100DD00092E09F938F938EE592E09F938F930E9472
:100DE000C70A8DB79EB70A960FB6F8949EBF0FBE7E
:100DF0008DBFA5CF6AE070E00E94750AA90142513B
:100E000051094830510540F51F924FED4F939F9384
:100E10008F933F932F9389E392E09F938F938EE577
:100E200092E09F938F930E94C70A61E08CE00E943A
:100E3000F10260E08DE00E94F10261E070E08CE47C
:100E400092E00E942C068DB79EB70A960FB6F894D2
:100E50009EBF0FBE8DBF81CF1F924FED4F939F93CB
:100E60008F933F932F9389E392E09F938F938EE527
:100E700092E09F938F930E94C70A61E08CE00E94EA
:100E8000F10261E08DE00E94F10261E070E083E533
:100E900092E00E942C068DB79EB70A960FB6F89482
:100EA0009EBF0FBE8DBF59CF1F920F920FB60F92EC
:100EB00011240BB60F922F933F934F935F936F9331
:100EC0007F938F939F93AF93BF93EF93FF938BE0A9
:100ED00093E00E943102FF91EF91BF91AF919F91FA
:100EE0008F917F916F915F914F913F912F910F90D3
:100EF0000BBE0F900FBE0F901F9018951F920F9270
:100F00000FB60F9211240BB60F922F938F939F93CE
:100F1000EF93FF93E0911B03F0911C038081E0911C
:100F20002103F091220382FD1DC090818091240352
:100F30008F5F8F7320912503821741F0E091240386
:100F4000F0E0E55FFC4F958F80932403FF91EF91D4
:100F50009F918F912F910F900BBE0F900FBE0F900E
:100F60001F9018958081F2CF1F920F920FB60F92AB
:100F700011242F933F938F939F93AF93BF938091AF
:100F8000F9029091FA02A091FB02B091FC0230911B
:100F9000F80223E0230F2D3758F50196A11DB11D4E
:100FA0002093F8028093F9029093FA02A093FB0237
:100FB000B093FC028091FD029091FE02A091FF028D
:100FC000B09100030196A11DB11D8093FD02909385
:100FD000FE02A093FF02B0930003BF91AF919F91D7
:100FE0008F913F912F910F900FBE0F901F901895EA
:100FF00026E8230F0296A11DB11DD2CF1F920F929A
:101000000FB60F9211240BB60F922F933F934F936D
:101010005F936F937F938F939F93AF93BF93EF9360
:10102000FF938091B900887F803609F44DC008F0A5
:1010300040C0883209F4A9C028F5803109F49DC068
:10104000C8F4882309F4FBC0883009F496C0FF91E6
:10105000EF91BF91AF919F918F917F916F915F9130
:101060004F913F912F910F900BBE0F900FBE0F909D
:101070001F901895883109F488C0803241F7809319
:10108000D10214C0803409F49DC040F48033B9F318
:101090008833E9F68093D10285ECB0C0803509F43D
:1010A00085C0883509F496C0883489F60E947F048B
:1010B000CECF883909F48CC038F5883729F050F440
:1010C000883611F0803719F683E08093D2021092AF
:1010D000D00257C0883809F47BC0803919F08038B5
:1010E00009F0B5CF8091D002803208F071C0E09154
:1010F000D00281E08E0F8093D0028091BB00F0E09F
:10110000E055FD4F80833DC0803B39F0E0F4803AEC
:1011100009F479C0883A09F09ACF84E08093D2022A
:101120001092AF021092AE02E0910303F09104031B
:1011300019958091AE0281110FC081E08093AE02BB
:1011400010928E0209C0803C09F4A6CF883C09F4B5
:10115000A3CF883B09F07BCFE091AF0281E08E0FF7
:101160008093AF02F0E0E257FD4F80818093BB0097
:101170009091AF028091AE0229C08091F7028093D6
:10118000BB0085EC8093BC0062CF9091F602809109
:10119000F502981758F5E091F60281E08E0F8093E2
:1011A000F602F0E0EB52FD4F8081E9CFE091F602CC
:1011B00081E08E0F8093F6028091BB00F0E0EB524D
:1011C000FD4F80839091F6028091F5029817C8F246
:1011D00085E8D8CFE091F60281E08E0F8093F60289
:1011E0008091BB00F0E0EB52FD4F80838091D402F0
:1011F00081115CCF81E08093D30284EA8093BC00AC
:101200001092D20224CF85EC8093BC001092D202BF
:101210008091D002803230F4E091D002F0E0E055CD
:10122000FD4F10826091D00270E0E0910103F091D7
:10123000020380EB92E019951092D00208CF109231
:10124000D10234CFEBE0F3E01382128288EE93E018
:10125000A0E0B0E084839583A683B78324E032E0E6
:101260003183208325EC30E03587248724EC30E07F
:101270003787268720EC30E0318B208B21EC30E063
:10128000338B228B22EC30E0358B248B26EC30E044
:10129000378B268B118E128E138E148EE8EAF3E0B4
:1012A0001382128284839583A683B78386E192E0BA
:1012B00091838083E4EBF3E01382128288E292E070
:1012C0009183808385E084838FEF858384E08683A8
:1012D00083E0878382E0808787E0818786E082875A
:1012E0001386148615861686178681E00C9472057F
:1012F000789484B5826084BD84B5816084BD85B5F1
:10130000826085BD85B5816085BD80916E008160FC
:1013100080936E00109281008091810082608093A2
:1013200081008091810081608093810080918000A4
:101330008160809380008091B10084608093B100CF
:101340008091B00081608093B000809191008260B4
:1013500080939100809191008160809391008091B1
:1013600090008160809390008091A10082608093C2
:10137000A1008091A10081608093A1008091A000D4
:1013800081608093A000809121018260809321017F
:1013900080912101816080932101809120018160F1
:1013A0008093200180917A00846080937A008091FC
:1013B0007A00826080937A0080917A0081608093C5
:1013C0007A0080917A00806880937A001092C10040
:1013D0008DE00E9473018CE00E94730182E00E9404
:1013E0007205E0911B03F0911C03C2E0C083E09101
:1013F0001703F09118031082E0911903F0911A037A
:101400008FEC808310922303E0911F03F09120035F
:1014100086E08083E0911D03F0911E03808180614E
:101420008083E0911D03F0911E038081886080839A
:10143000E0911D03F0911E03808180688083E0911C
:101440001D03F0911E0380818F7D808370E060E03A
:1014500080E392E00E942C0610920803109207038A
:1014600010920603109205030E94C90382E991E0DD
:10147000909304038093030383E991E09093020324
:1014800080930103C093BA0088E596E090930A0325
:10149000809309030E947D034B015C0184E6C82E02
:1014A000D12CE12CF12C0E947D03681979098A095D
:1014B0009B09683E734081059105A8F321E0C21A9B
:1014C000D108E108F10888EE880E83E0981EA11C7F
:1014D000B11CC114D104E104F10429F760E080E0FB
:1014E0000E9414060E94C002D5CF97FB072E16F467
:1014F000009407D077FD09D00E94B30A07FC05D0FD
:101500003EF4909581959F4F0895709561957F4F1A
:101510000895A1E21A2EAA1BBB1BFD010DC0AA1F34
:10152000BB1FEE1FFF1FA217B307E407F50720F04C
:10153000A21BB30BE40BF50B661F771F881F991FC7
:101540001A9469F760957095809590959B01AC0110
:10155000BD01CF010895EE0FFF1F881F8BBF0790BD
:10156000F691E02D1994AA1BBB1B51E107C0AA1FDD
:10157000BB1FA617B70710F0A61BB70B881F991F34
:101580005A95A9F780959095BC01CD0108950F93C8
:101590001F93CF93DF93CDB7DEB72E970FB6F89496
:1015A000DEBF0FBECDBF0E891F8986E08C831A83F4
:1015B00009838FEF9FE79E838D83AE01465E5F4F69
:1015C000688D798DCE0101960E94F70A2F813885AA
:1015D000020F131FF80110822E960FB6F894DEBF8B
:1015E0000FBECDBFDF91CF911F910F9108952F9224
:1015F0003F924F925F926F927F928F929F92AF92A3
:10160000BF92CF92DF92EF92FF920F931F93CF93EF
:10161000DF9300D000D000D01F921F92CDB7DEB76D
:101620007C013B018A01FC0117821682838181FFC4
:10163000DDC1CE0101965C01F7019381F30193FDB9
:10164000859193FF81913F01882309F453C185322D
:1016500039F493FD859193FF81913F01853229F4FF
:10166000B70190E00E940F0DE7CF912C212C312C77
:10167000FFE1F31538F08B3211F190F4803209F16B
:10168000833229F137FC3CC020ED280F2A3050F579
:1016900036FE20C08AE0989E200D1124922E06C0AE
:1016A0008D3291F0803371F7689430F8F30193FD37
:1016B000859193FF81913F018111DACF21C0689418
:1016C00031F8689432F8F2CF689433F8EFCF689429
:1016D00034F8ECCFEAE02E9E200D1124222E6894DF
:1016E00035F8E4CF8E3229F436FC04C1689436F81C
:1016F000DDCF8C3619F4689437F8D8CF8836B1F23C
:10170000982F9F7D95549330E0F08336A1F1833775
:10171000C1F1833509F063C02801F2E04F0E511C7E
:10172000F801C080D180692D70E036FC02C06FEFF7
:101730007FEFC6010E94F90C4C01689437F88201D2
:101740000AC00C5F1F4FFFE3F98388248394912C18
:101750006501E89437F833FE2DC0522C81149104B2
:1017600071F5552009F468CFB70180E290E00E943E
:101770000F0D5A94F6CFF801808189830E5F1F4FB9
:10178000E4CF2801F2E04F0E511CF801C080D18057
:10179000692D70E036FC02C06FEF7FEFC6010E943A
:1017A000040D4C018201D5CFB70180E290E00E9488
:1017B0000F0D2A942814190409F0B0F7CECFF601C2
:1017C00037FC859137FE81916F01B70190E00E944F
:1017D0000F0D51105A94F1E08F1A9108BFCF843643
:1017E00019F0893609F077C0F80137FE6BC06081C7
:1017F0007181828193810C5F1F4FF32DFF763F2E05
:1018000097FF09C090958095709561957F4F8F4F98
:101810009F4F689437F82AE030E0A5010E943F0D01
:10182000C82ECA188C2C432C36FE0CC0E89440F805
:10183000C91440F434FE05C032FC03C0F32DFE7E13
:101840004F2E892C44FEAAC0FE01EC0DF11D8081B3
:10185000803309F09CC0242D297E422E842D88706F
:10186000582E43FCAAC040FEA4C09C2C821418F43D
:101870002C0C922C981844FEA6C0B70180E390E08F
:101880000E940F0D42FE09C088E790E041FE02C0B1
:1018900088E590E0B7010E940F0DC91408F49FC0BD
:1018A000CA94D12C9FEFC91AD90ACA0CDB1CF601C5
:1018B00082916F01B70190E00E940F0DAC14BD043E
:1018C000B1F74FCF60817181072E000C880B990B07
:1018D0000E5F1F4F92CFD32CE894D4F82AE030E06B
:1018E0008537E1F1232D297FD22E8F36A9F1F0F42F
:1018F000883551F1F701868197812B960FB6F894C0
:10190000DEBF0FBECDBFDF91CF911F910F91FF9032
:10191000EF90DF90CF90BF90AF909F908F907F908F
:101920006F905F904F903F902F900895803749F0CF
:10193000883701F7D4FE02C06894D2F820E130E085
:101940000DC06894D4F8F6CF34FE03C0822F8660B1
:10195000D82E20E132E002C028E030E0F801D7FEC6
:101960000FC060817181828193810C5F1F4FA5013F
:101970000E943F0DC82ECA183D2CE89437F852CF6C
:101980006081718190E080E00E5F1F4FF0CF42FCDC
:1019900002C0839463CF8394839460CF842D867830
:1019A00009F45CCFF6CFB70180E290E00E940F0D02
:1019B00083948214C0F3512C5ECF522C5818821499
:1019C00008F459CFF8CF842D867809F466CF8BE2DE
:1019D00041FE80E247FC8DE2B70190E05CCFB701A9
:1019E00080E390E00E940F0D9A9457CF8FEF9FEF06
:1019F00084CFFC010590615070400110D8F78095AC
:101A000090958E0F9F1F0895FC01615070400190CA
:101A10000110D8F7809590958E0F9F1F08950F9312
:101A20001F93CF93DF93182F092FEB018B8181FD3B
:101A300009C01FEF0FEF812F902FDF91CF911F91E2
:101A40000F91089582FF14C02E813F818C819D816A
:101A5000281739073CF4E881F981CF010196998371
:101A6000888310838E819F8101969F838E83E3CF2D
:101A7000E885F985812F1995892BA1F3DACFFA0131
:101A8000AA27283051F1203181F1E8946F936E7FBD
:101A90006E5F7F4F8F4F9F4FAF4FB1E03ED0B4E0AE
:101AA0003CD0670F781F891F9A1FA11D680F791FEF
:101AB0008A1F911DA11D6A0F711D811D911DA11D00
:101AC00020D009F468943F912AE0269F1124301910
:101AD000305D3193DEF6CF010895462F4770405DAB
:101AE0004193B3E00FD0C9F7F6CF462F4F70405D5A
:101AF0004A3318F0495D31FD4052419302D0A9F7B5
:101B0000EACFB4E0A6959795879577956795BA95AE
:101B1000C9F700976105710508959B01AC010A2E74
:101B200006945795479537952795BA95C9F7620F4B
:0E1B3000731F841F951FA01D0895F894FFCF0A
:101B3E00000000005302BD01EA01A0021B02F901E0
:101B4E000D02000000001C0411042E04E7030A0419
:101B5E00F703E803000000002606BD012E042D0445
:101B6E004170616761646F002D253032752E25310D
:101B7E0075256343004C564C3A2031004C564C3A76
:0E1B8E002032004C564C3A2033000D0A000065
:00000001FF
