:020000040000FA
:100000000C9463000C948B000C948B000C948B006C
:100010000C948B000C948B000C948B000C941203AA
:100020000C948B000C948B000C948B000C948B0024
:100030000C948B000C948B000C948B000C948B0014
:100040000C946E030C948B000C948B000C948B001E
:100050000C948B000C948B000C948B000C948B00F4
:100060000C948B000C948B000000000024002700EF
:100070002A000000000023002600290000000008DC
:10008000000201000003040700000000000000005F
:10009000010204081020408001020408102001021F
:1000A0000408102000000000250028002B00040494
:1000B0000404040404040202020202020303030310
:1000C00003030200E20611241FBECFEFD8E0DEBF1B
:1000D000CDBF12E0A0E0B1E0E0E7F1E102C00590A1
:1000E0000D92AC3DB107D9F723E0ACEDB2E001C011
:1000F0001D92AE30B207E1F710E0C3E6D0E004C0D5
:100100002197FE010E94A108C236D107C9F70E94BB
:10011000B8030C94B6080C940000AF92BF92CF9233
:10012000DF92EF92FF920F931F93CF93DF936C01B7
:100130007B018B01040F151FEB015E01AE18BF0898
:10014000C017D10759F06991D601ED91FC9101904A
:10015000F081E02DC6010995892B79F7C501DF9162
:10016000CF911F910F91FF90EF90DF90CF90BF90B4
:10017000AF900895833081F028F4813099F0823077
:10018000A9F008958730A9F08830C9F08430B1F41F
:10019000809180008F7D03C0809180008F77809355
:1001A0008000089584B58F7784BD089584B58F7DD0
:1001B000FBCF8091B0008F778093B000089580913D
:1001C000B0008F7DF9CF1F93CF93DF93282F30E0BE
:1001D000F901E458FF4F8491F901E057FF4FD491A2
:1001E000F901E255FF4FC491CC23A9F0162F8111DC
:1001F0000E94BA00EC2FF0E0EE0FFF1FEC55FF4F0E
:10020000A591B4918FB7F894EC91111108C0D095D5
:10021000DE23DC938FBFDF91CF911F910895DE2BFA
:10022000F8CF9091000189130BC0E2ECF0E0E4916B
:100230009FEF90930001E13049F028F0E23061F047
:1002400060E00C94E30010926E00FACF90916F0082
:100250009D7F90936F00F4CF909170009D7F90935D
:10026000700091E09093B0009091B100987F9460FD
:100270009093B1001092B300E3CFCF93DF9390E05F
:10028000FC01E057FF4F249182559F4FFC01849160
:100290008823D1F090E0880F991FFC01E859FF4FA7
:1002A000A591B491FC01EC55FF4FC591D49161111A
:1002B0000EC09FB7F8948C91E22FE0958E238C931B
:1002C0002881E223E8839FBFDF91CF9108958FB704
:1002D000F894EC91E22BEC938FBFF6CF3FB7F894F4
:1002E0008091E1029091E202A091E302B091E402D8
:1002F00026B5A89B05C02F3F19F00196A11DB11D81
:100300003FBFBA2FA92F982F8827BC01CD01620FBC
:10031000711D811D911D42E0660F771F881F991F77
:100320004A95D1F708958F929F92AF92BF92CF9244
:10033000DF92EF92FF926B017C010E946E014B01F4
:100340005C01C114D104E104F104B9F00E946E0112
:10035000681979098A099B09683E734081059105EE
:1003600080F321E0C21AD108E108F10888EE880E76
:1003700083E0981EA11CB11CE4CFFF90EF90DF90AA
:10038000CF90BF90AF909F908F900895089590E088
:1003900080E00895CF93DF93EC0160E08E810E94AE
:1003A000E30061E08E810E94E30060E08E810E94A4
:1003B000E3008BE891E00197F1F7DF91CF91089589
:1003C000CF92DF92EF92FF920F931F93CF93DF9321
:1003D0006C017C0187E0E80EF11CD0E0C0E0062F44
:1003E00010E0B8010C2E02C0759567950A94E2F7EB
:1003F0006170F70181917F010E94E3002196C43072
:10040000D10579F7C601DF91CF911F910F91FF9030
:10041000EF90DF90CF900C94CA01CF92DF92EF92D1
:10042000FF920F931F93CF93DF93EC01F62E642F6F
:100430008C810E94E3008D818F3F19F060E00E9463
:10044000E3000F2D10E08F8584FF25C06E0187E04B
:10045000C80ED11CF12CE12CB8010E2C02C07595F0
:1004600067950A94E2F76170F60181916F010E942D
:10047000E300FFEFEF1AFF0A88E0E816F10461F7E6
:10048000CE01DF91CF911F910F91FF90EF90DF9000
:10049000CF900C94CA01B80184E0759567958A9550
:1004A000E1F7CE010E94E0016F2DCE01DF91CF91E7
:1004B0001F910F91FF90EF90DF90CF900C94E0018F
:1004C00040E0682F86EF92E00C940D02CF93DF930B
:1004D000823029F4909105039860909305038093EE
:1004E000090310920A0380E480930B0380E1809358
:1004F0000C0380E580930D0361E08091FA020E9475
:100500003D018091FB028F3F19F061E00E943D01A7
:1005100061E08091FC020E943D01C6EFD2E09E01A5
:10052000265F32408091050384FD0BC084E090E09B
:1005300021962817390744F461E08E810E943D011D
:10054000EECF88E090E0F4CF8BE39DE00197F1F7E8
:1005500060E08091FA020E94E30060E08091FC027A
:100560000E94E3008091FB028F3F19F060E00E943F
:10057000E3008091050384FD39C063E086EF92E0DB
:100580000E94E001CBE4D6E4CE010197F1F763E0ED
:1005900086EF92E00E94E0012197F1F763E086EF99
:1005A00092E00E94E00183E592E00197F1F762E0BA
:1005B00086EF92E00E94E0018091050380620E9434
:1005C000600284E0809306038CE00E94600281E078
:1005D0000E9460028BE39FE10197F1F782E0809334
:1005E000070386E0DF91CF910C94600280620E9445
:1005F00060028BE496E40197F1F780910503806235
:100600000E94600283E592E00197F1F78091050373
:1006100080620E946002D0CF41E00E940D0281E022
:1006200090E008951F920F920FB60F9211242F930E
:100630003F934F935F936F937F938F939F93AF936A
:10064000BF93EF93FF938091EA029091EB02A09108
:10065000EC02B091ED02892B8A2B8B2BD1F190917A
:10066000E502E091E602F091E7028081892780832C
:100670008091EA029091EB02A091EC02B091ED0220
:10068000181619061A061B069CF48091EA0290912E
:10069000EB02A091EC02B091ED020197A109B10922
:1006A0008093EA029093EB02A093EC02B093ED02E8
:1006B000FF91EF91BF91AF919F918F917F916F913A
:1006C0005F914F913F912F910F900FBE0F901F9010
:1006D0001895809100010E941101EACF1F920F929C
:1006E0000FB60F9211242F933F938F939F93AF9345
:1006F000BF938091DD029091DE02A091DF02B09164
:10070000E0023091DC0223E0230F2D3758F50196EB
:10071000A11DB11D2093DC028093DD029093DE02C7
:10072000A093DF02B093E0028091E1029091E20297
:10073000A091E302B091E4020196A11DB11D809346
:10074000E1029093E202A093E302B093E402BF912E
:10075000AF919F918F913F912F910F900FBE0F906E
:100760001F90189526E8230F0296A11DB11DD2CF28
:10077000CF93DF93CDB7DEB729970FB6F894DEBFDE
:100780000FBECDBF789484B5826084BD84B581608E
:1007900084BD85B5826085BD85B5816085BD80914C
:1007A0006E00816080936E001092810080918100C4
:1007B00082608093810080918100816080938100BC
:1007C000809180008160809380008091B10084607E
:1007D0008093B1008091B00081608093B0008091DF
:1007E0007A00846080937A0080917A00826080939E
:1007F0007A0080917A00816080937A0080917A00FB
:10080000806880937A001092C10082E00E946602A4
:1008100081E00E9460028BE39FE10197F1F760E0C5
:100820008EE00E943D0160E08FE00E943D0161E0AA
:100830008CE00E943D0161E08DE00E943D0164EF8B
:1008400071E080E090E00E94930160E08CE00E9403
:10085000E30060E08DE00E94E300E1E080910903A5
:100860008111E0E0E195F0E0EA50FD4F8489806875
:100870000E9460024AE050E065EC72E086EF92E090
:100880000E948D00E0910903E23008F0C7C0E150FA
:10089000F0E0EA50FD4F848980680E9460024AE0DF
:1008A00050E060ED72E086EF92E00E948D00EAE891
:1008B000F0E08491EEE9F0E0E491ECEBF0E02491DB
:1008C0002983222369F081110E94BA003981E32F24
:1008D000F0E0EE0FFF1FEE58FF4FA591B4918C9101
:1008E00081E091E09A838983EDEDF1E0F887EF8371
:1008F000E981FA8161917191FA83E98380EB94E057
:100900000E9431088B012B01770F66087708EF8171
:10091000F88521903190F887EF838091000189302C
:1009200009F07EC0E2ECF0E0F491F987F7FD63C1D5
:1009300061E089E00E943D01F985FF2321F02985CE
:10094000223009F07FC14101B12CA12C60E072E19D
:100950008AE790E0A50191010E9467082B833C8300
:100960004D835E8369017A0131E0C31AD108E10841
:10097000F1088FEFC816D104E104F10409F00CF47A
:1009800012C160E472E48FE090E0A50191010E9441
:10099000670869017A0191E0C91AD108E108F108F4
:1009A000E985E23009F0B3C082E0FFEFCF16D10451
:1009B000E104F10409F00CF4FEC160E970ED83E09C
:1009C00090E0A50191010E94670869017A0181E028
:1009D000C81AD108E108F10883E09FEFC916D104D5
:1009E000E104F10409F00CF4E6C168E478EE81E07A
:1009F00090E0A50191010E94670869017A0181E0F8
:100A0000C81AD108E108F1089FEFC916D104E10422
:100A1000F10411F00CF09FC084E0CDC1E1E038CFCB
:100A20008F3F09F0E8C089E080930001E2ECF0E03C
:100A3000F491F987FF3F09F4DEC0F13031F158F04D
:100A4000F23009F441C0398537FDD5C061E089E055
:100A50000E943D0174CF14BC15BC84B5826084BD76
:100A600085B5816085BDE7EBF0E08491E82FF0E08B
:100A7000EE0FFF1FEC55FF4F85919491E9E9F0E0EF
:100A800084918093E902198653CF109280001092CE
:100A90008100809181008860809381008091810035
:100AA000816080938100E7EBF0E08491E82FF0E033
:100AB000EE0FFF1FEC55FF4F85919491E9E9F0E0AF
:100AC00084918093E80234CF1092B0001092B1006C
:100AD0008091B00082608093B0008091B10081600D
:100AE0008093B100E7EBF0E08491E82FF0E0EE0FA7
:100AF000FF1FEC55FF4F859194919093E7028093EF
:100B0000E602E9E9F0E084918093E50211CFEFEF8E
:100B1000CE16D104E104F10409F00CF491C068E4AC
:100B200078EE81E090E0A50191010E9467086901DB
:100B30007A01F1E0CF1AD108E108F10829852223D2
:100B400009F405C12FEFC216D104E104F10411F03C
:100B50000CF006C161CF64E274EF80E090E0A50183
:100B600094010E94670869017A0181E0C81AD108DE
:100B7000E108F10885E09FEFC916D104E104F10412
:100B800009F008F418C162E17AE780E090E0A5017D
:100B900094010E94670869017A01E1E0CE1AD10848
:100BA000E108F108EFC081E02985211104C195B564
:100BB000987F892B85BD2FEF3FEFA9014114510488
:100BC0006104710409F068C08985813009F482C02C
:100BD000823009F491C081110EC0C7BC2093F2028B
:100BE0003093F3024093F4025093F50280916E002B
:100BF000826080936E00C301B2010E94380726E62E
:100C000036E646EA5FE30E949C070E940007072E33
:100C1000000C880B990B0E94930189E00E9411013E
:100C2000EDEDF1E029813A81E217F30709F060CE9A
:100C300080E090E0892B09F402CE0E940000FFCDF5
:100C400082E0B2CFB12CA12C60E072E18AE790E0A3
:100C5000A50191010E94670869017A0181E0C81A23
:100C6000D108E108F108C114D10491E0E906F104CA
:100C700004F591E0F985F13009F09DCF8091810074
:100C8000887F892B809381002FEF3FEFA9014114CA
:100C9000510461047104F1F09101220F331FD80156
:100CA0000E94860828EE33E040E050E00E944508AC
:100CB0008BCF68E478EE81E090E0A50191010E947D
:100CC000670869017A01E1E0CE1AD108E108F1086C
:100CD00093E0D0CFD0928900C09288002093EE029A
:100CE0003093EF024093F0025093F10280916F0035
:100CF000826080936F007FCFC092B3002093EA029E
:100D00003093EB024093EC025093ED02809170001F
:100D10008260809370006FCF84E0FFEFCF16D10424
:100D2000E104F10409F008F442CFCB80DC80ED80CF
:100D3000FE808AE0F594E794D794C7948A95D1F71A
:100D4000E1E0CE1AD108E108F10885E030CF83E078
:100D5000FFEFCF16D104E104F10409F00CF427CF22
:100D600062E17AE780E090E0A50194010E946708C3
:100D700069017A01E1E0CE1AD108E108F108F985AC
:100D8000FF2351F286E09FEFC916D104E104F1047C
:100D900091F088F0CB80DC80ED80FE809AE0F594C5
:100DA000E794D794C7949A95D1F781E0C81AD108EF
:100DB000E108F10887E09091B100987F892B80933A
:100DC000B100F9CEE6EFF2E0138212828DEB92E0F1
:100DD0009183808382E084838FEF858383E08683A1
:100DE00084E0878385E0808786E0818787E082874B
:100DF0001386148615861686178681E00C94660283
:100E00000E9407076894B1110C94960708950E94F8
:100E10007B0788F09F5798F0B92F9927B751B0F00A
:100E2000E1F0660F771F881F991F1AF0BA95C9F76E
:100E300014C0B13091F00E949507B1E008950C9470
:100E40009507672F782F8827B85F39F0B93FCCF323
:100E5000869577956795B395D9F73EF490958095EB
:100E6000709561957F4F8F4F9F4F0895E89409C00B
:100E700097FB3EF490958095709561957F4F8F4FCD
:100E80009F4F9923A9F0F92F96E9BB279395F695E3
:100E9000879577956795B795F111F8CFFAF4BB0F61
:100EA00011F460FF1BC06F5F7F4F8F4F9F4F16C0C5
:100EB000882311F096E911C0772321F09EE8872F4F
:100EC000762F05C0662371F096E8862F70E060E00B
:100ED0002AF09A95660F771F881FDAF7880F969584
:100EE000879597F9089557FD9058440F551F59F06D
:100EF0005F3F71F04795880F97FB991F61F09F3F07
:100F000079F087950895121613061406551FF2CF2F
:100F10004695F1DF08C0161617061806991FF1CF7F
:100F200086957105610508940895E894BB276627A6
:100F30007727CB0197F908950E94AF070C942008FA
:100F40000E94120838F00E94190820F0952311F031
:100F50000C9409080C940F0811240C9496070E9415
:100F6000730770F3959FC1F3950F50E0551F629F73
:100F7000F001729FBB27F00DB11D639FAA27F00DF2
:100F8000B11DAA1F649F6627B00DA11D661F829F19
:100F90002227B00DA11D621F739FB00DA11D621FFE
:100FA000839FA00D611D221F749F3327A00D611D1B
:100FB000231F849F600D211D822F762F6A2F1124FD
:100FC0009F5750409AF0F1F088234AF0EE0FFF1F30
:100FD000BB1F661F771F881F91505040A9F79E3F87
:100FE000510580F00C9409080C9496075F3FE4F3D8
:100FF000983ED4F3869577956795B795F795E795DD
:101000009F5FC1F7FE2B880F911D9695879597F9E5
:10101000089597F99F6780E870E060E008959FEF7A
:1010200080EC089500240A9416161706180609067F
:10103000089500240A94121613061406050608954E
:10104000092E0394000C11F4882352F0BB0F40F4D6
:10105000BF2B11F460FF04C06F5F7F4F8F4F9F4F16
:10106000089597FB072E16F4009407D077FD09D05A
:101070000E948D0807FC05D03EF4909581959F4F06
:101080000895709561957F4F0895A1E21A2EAA1BCD
:10109000BB1BFD010DC0AA1FBB1FEE1FFF1FA21728
:1010A000B307E407F50720F0A21BB30BE40BF50B25
:1010B000661F771F881F991F1A9469F760957095AE
:1010C000809590959B01AC01BD01CF010895052E3F
:1010D00097FB1EF400940E947E0857FD07D00E94E3
:1010E000450807FC03D04EF40C947E0850954095BB
:1010F000309521953F4F4F4F5F4F089590958095C4
:10110000709561957F4F8F4F9F4F08950E94A7085C
:10111000B7FF0895821B930B0895AA1BBB1B51E1D7
:1011200007C0AA1FBB1FA617B70710F0A61BB70B57
:10113000881F991F5A95A9F780959095BC01CD01FC
:101140000895EE0FFF1F0590F491E02D0994A29FE2
:10115000B001B39FC001A39F700D811D1124911D8B
:10116000B29F700D811D1124911D0895F894FFCF39
:10117000FF06000600060006000600060006000640
:101180000004000600060006000600040006000633
:101190000006000600040006000600060006000621
:1011A0000006000600060006000600040006000611
:1011B0000006000600040006000600060006000403
:1011C00000060006000600060003000600060006F2
:1011D00000030006000600060003000600060006E5
:1011E00000040006000600060006000600060006D1
:1011F00000060006000600060006000600060006BF
:1012000000060006000600060006000400060006B0
:1012100000060006000400060006000600060004A2
:10122000000600060006000600060006000600068E
:101230000006000600040006000600060006000482
:10124000000600060006000600020004002705DD77
:10125000042705DD042705DC039704170470030148
:10126000000B0293027003DC03010093023F03DCD6
:10127000031704010093022705DD042705DD042779
:1012800005DC0397041704700301000B029302703E
:1012900003DC03010093021704DC0370030100DC8C
:1012A000031704970427051003750527059704BA4B
:1012B00002270597041704930297041704DC03011F
:1012C00000930227050100010027054D0A0100DDFA
:1012D0000427050100DD042705DD042705DD0427BB
:1012E00005DC0397041704700301000B02930270DE
:1012F00003DC03010093023F03DC031704010093A6
:10130000022705DD042705DD042705DC0397041704
:1013100004700301000B0293027003DC03010093CD
:10132000021704DC0370030100000000000C038DB1
:1013300000C701C6015061726120456C697361008C
:0C13400042656574686F7665656E00009C
:107E0000112484B714BE81FFF0D085E080938100F7
:107E100082E08093C00088E18093C10086E0809377
:107E2000C20080E18093C4008EE0C9D0259A86E02C
:107E300020E33CEF91E0309385002093840096BBD3
:107E4000B09BFECF1D9AA8958150A9F7CC24DD24C4
:107E500088248394B5E0AB2EA1E19A2EF3E0BF2EE7
:107E6000A2D0813461F49FD0082FAFD0023811F036
:107E7000013811F484E001C083E08DD089C08234E0
:107E800011F484E103C0853419F485E0A6D080C0E4
:107E9000853579F488D0E82EFF2485D0082F10E0AE
:107EA000102F00270E291F29000F111F8ED06801E7
:107EB0006FC0863521F484E090D080E0DECF843638
:107EC00009F040C070D06FD0082F6DD080E0C81688
:107ED00080E7D80618F4F601B7BEE895C0E0D1E017
:107EE00062D089930C17E1F7F0E0CF16F0E7DF06D8
:107EF00018F0F601B7BEE89568D007B600FCFDCFD4
:107F0000A601A0E0B1E02C9130E011968C91119780
:107F100090E0982F8827822B932B1296FA010C0160
:107F200087BEE89511244E5F5F4FF1E0A038BF0790
:107F300051F7F601A7BEE89507B600FCFDCF97BE46
:107F4000E89526C08437B1F42ED02DD0F82E2BD052
:107F50003CD0F601EF2C8F010F5F1F4F84911BD097
:107F6000EA94F801C1F70894C11CD11CFA94CF0C13
:107F7000D11C0EC0853739F428D08EE10CD085E9AC
:107F80000AD08FE07ACF813511F488E018D01DD067
:107F900080E101D065CF982F8091C00085FFFCCF94
:107FA0009093C60008958091C00087FFFCCF809118
:107FB000C00084FD01C0A8958091C6000895E0E648
:107FC000F0E098E1908380830895EDDF803219F02E
:107FD00088E0F5DFFFCF84E1DECF1F93182FE3DFCA
:107FE0001150E9F7F2DF1F91089580E0E8DFEE27F6
:047FF000FF270994CA
:027FFE00040479
:00000001FF
