:100000000C9427010C9458010C9458010C9458013D
:100010000C9458010C9458010C9458010C945801FC
:100020000C9458010C9458010C9458010C945801EC
:100030000C9458010C94CA070C9458010C94580164
:100040000C9458010C9458010C9458010C945801CC
:100050000C9458010C9458010C9458010C9480078E
:100060000C9458010C9458010C9458010C945801AC
:100070000C9458010C9458010C9458010C9458019C
:100080000C9458010C9458010C9458010C9458018C
:100090000C9458010C9458010C9458010C9458017C
:1000A0000C9458010C9458010C9458010C9458016C
:1000B0000C9458010C9458010C9458010C9458015C
:1000C0000C9458010C9458010C9458010C9458014C
:1000D0000C9458010C9458010C9458010C9458013C
:1000E0000C9458010C94AB010C94B9010C94B80118
:1000F0000C94A5010C94A1010C9478010C94B3010B
:100100000C948D010C947E010C94AF010C9486012B
:100110000C9417090C948A010C9482010C9493019D
:100120000C9497010C949D010C94BD0100002100DA
:10013000240027002A002D003000330001010000B8
:10014000040107010A0100002200250028002B00FD
:100150002E003100340002010000050108010B01EE
:10016000000020002300260029002C002F00320070
:100170000001000003010601090105050505070549
:1001800008080808020202020A0A08080404040413
:10019000010101010101010103030303030303033F
:1001A000040707070C0C0C0C0C0C0C0C02020202CE
:1001B00006060606060606060B0B0B0B0B0B0B0BB7
:1001C0000102102020080810204010204080020169
:1001D000020108040201010204081020408080404E
:1001E000201008040201800402018040201008044D
:1001F00002010804020101020408102040800102EB
:1002000004081020408000000A0B02090C0D0E08A3
:1002100007030401000000000000000000000000CF
:1002200000000000000000000000000000000000CE
:10023000000012111000000000000000000000008B
:100240000000000000000000000000001709112459
:100250001FBECFEFD1E2DEBFCDBF00E00CBF1FE07D
:10026000A0E0B2E0E2E8F3E100E00BBF02C00790DB
:100270000D92A630B107D9F720E1A6E0BFE001C09A
:100280001D92A331B207E1F711E0C7E2D1E000E02F
:1002900006C021970109802FFE010E94A309C632E2
:1002A000D10780E00807A9F70E94D4070C94BF0982
:1002B0000C9400008150823108F05AC0E82FF0E021
:1002C0008827EA59FE4F8F4F0C94A30986018A01B3
:1002D00078017E018201B8018D01930197019D0192
:1002E000A101A501AB01AF01B801B301B901BD0185
:1002F000809180008F7780938000089580918000A6
:100300008F7DF9CF80918000877FF5CF84B58F777F
:1003100084BD089584B58F7DFBCF8091B0008F7729
:100320008093B00008958091B0008F7DF9CF8091C7
:1003300090008F77809390000895809190008F7D3A
:10034000F9CF80919000877FF5CF8091A0008F77C3
:100350008093A00008958091A0008F7DF9CF8091B7
:10036000A000877FF5CF809120018F7780932001B7
:100370000895809120018F7DF9CF80912001877FA2
:10038000F5CFCF93DF93282F30E0F901EA5FFD4FDF
:100390008491F901E054FE4FD491F901E658FE4FE3
:1003A000C491CC23A1F081110E945A01EC2FF0E0FE
:1003B000EE0FFF1FE05AFE4FA591B491EC91ED2393
:1003C00081E090E009F480E0DF91CF91089580E032
:1003D00090E0FACF1F93CF93DF93282F30E0F901FD
:1003E000EA5FFD4F8491F901E054FE4FD491F90189
:1003F000E658FE4FC491CC23A9F0162F81110E941C
:100400005A01EC2FF0E0EE0FFF1FEA5BFE4FA591C3
:10041000B4918FB7F894EC91111108C0D095DE23F8
:10042000DC938FBFDF91CF911F910895DE2BF8CF22
:10043000CF93DF9390E0FC01E054FE4F2491865867
:100440009E4FFC0184918823D1F090E0880F991F82
:10045000FC01E45DFE4FA591B491FC01EA5BFE4F07
:10046000C591D49161110EC09FB7F8948C91E22F81
:10047000E0958E238C932881E223E8839FBFDF9150
:10048000CF9108958FB7F894EC91E22BEC938FBF46
:10049000F6CF3FB7F8948091A00F9091A10FA09153
:1004A000A20FB091A30F26B5A89B05C02F3F19F04E
:1004B0000196A11DB11D3FBFBA2FA92F982F8827E4
:1004C000BC01CD01620F711D811D911D42E0660FBF
:1004D000771F881F991F4A95D1F708958F929F9291
:1004E000AF92BF92CF92DF92EF92FF926B017C01AD
:1004F0000E9449024B015C01C114D104E104F104E2
:10050000B9F00E944902681979098A099B09683E75
:1005100073408105910580F321E0C21AD108E108FA
:10052000F10888EE880E83E0981EA11CB11CE4CF70
:10053000FF90EF90DF90CF90BF90AF909F908F9003
:1005400008958BE19FE030E020E0FC01E20FF31F13
:1005500010822F5F3F4F20313105B9F740962FE0D1
:100560008B39920781F708956F927F928F929F92B5
:10057000BF92CF92DF92EF92FF920F931F93CF9390
:10058000DF932091AA0F3091AB0FBC017695762FA7
:10059000662777956795620F731F6B5F7D4F0BE141
:1005A0001FE0D0E0C0E04C0153E0880C991C5A9544
:1005B000E1F750E040E0F0E0E0E0D401AC0FBD1F17
:1005C00084E0AA0FBB1F8A95E1F7CD018B5F9D4F99
:1005D0003C016801C40ED51E7A01E20EF31E90E1C3
:1005E000E916F1043CF5BB24B3947B01E40EF51E3F
:1005F000D701FC90F11001C0B12CD601BC924F5F25
:100600005F4F4031510529F72196605F7F4F005FB2
:100610001F4FC830D10569F680910402882381F10B
:1006200020313105BCF42F5F3F4F3093AB0F209347
:10063000AA0F14C07F01BFEFEB1AFB0AE60DF71DEE
:10064000BB24B394E081E11101C0B12CF601B0826A
:10065000F701D5CF1092AB0F1092AA0F1092A90FED
:100660001092A80FDF91CF911F910F91FF90EF9003
:10067000DF90CF90BF909F908F907F906F90089564
:10068000121613061CF421503109CFCF5093AB0F33
:100690004093AA0FE3CFCF92DF92EF92FF920F9396
:1006A0001F93CF93DF931F921F92CDB7DEB769835D
:1006B0004A83880F991F0091111010911210000F9A
:1006C000111FEBEBFFE09F012B5B3F402017310731
:1006D00014F41192F8CF2981FC01E554F04F2183E5
:1006E0008A81808360E080910F100E94EA011016D9
:1006F000110604F501501109F801E554F04FE080AE
:10070000D0900D10C0900B1088E0F82E6E2D661F53
:100710006627661F8C2D0E94EA01EE0C61E08D2D8C
:100720000E94EA0160E08D2D0E94EA01FA94F11026
:10073000EDCFDDCF61E080910F100F900F90DF9132
:10074000CF911F910F91FF90EF90DF90CF900C947D
:10075000EA01EF92FF920F931F93CF937C018C01DC
:1007600083E0000F111F8A95E1F70553104FC1E098
:10077000F80111928F0140E06C2FC7010E944B03DA
:10078000CF5FC930A9F7CF911F910F91FF90EF90E4
:1007900008959F92AF92BF92CF92DF92EF92FF9215
:1007A0000F931F93CF93DF938091170F9091180FA2
:1007B00001969093180F8093170F089789F48091F2
:1007C000A40F9091A50F019665E170E00E948F093A
:1007D0009093A50F8093A40F1092180F1092170FEB
:1007E000CBEBDFE00BE11FE078019924939490E8D4
:1007F000C92ED12C88E0A82EB12CC50108972091D4
:10080000111030911210F701EA0DFB1D40814423B5
:1008100009F462C01216130674F4960102C03595ED
:1008200027958A95E2F74889422B488B692D90E0FD
:1008300080E00E944B033FEFA31AB30A80E1A816A1
:10084000B104D9F621969394E0E1EE0EF11CF9E0A3
:100850009F12D0CFC6E17801D6E2F70181917F01E6
:1008600061E0811101C060E08D2F0E94EA01DE5F2E
:10087000D63399F760E08C2F0E94EA0162E070E0C5
:1008800080E090E00E946E0261E08C2F0E94EA01FD
:10089000CE5F005F1F4FC632F1F68091111090912C
:1008A00012101816190624F490E080E00E94A903A3
:1008B000C6E260E08C2F0E94EA01CE5FC633C9F722
:1008C000DF91CF911F910F91FF90EF90DF90CF902C
:1008D000BF90AF909F900895121613060CF0ABCF07
:1008E000A60102C0559547958A95E2F740958889FB
:1008F00048239BCFCF93DF930E94A10280919B0F4F
:1009000090919C0F9695982F8827979587958B5750
:10091000934F4BE15FE0BA0130E020E0EB01C20F02
:10092000D31FA1E0FC01E20FF31FE081E11101C040
:10093000A0E0A8832F5F3F4F2830310579F740961C
:10094000605F7F4F2FE06B39720731F78091190F8D
:1009500090911A0F9695982F8827979587958B5782
:10096000934F28E030E0DA01A20FB31FF901389766
:10097000E80FF91F61E07081711101C060E06C93B4
:100980002F5F3F4F2031310571F74096405F5F4F39
:100990002FE04B39520729F7C9E1D0E00E94C90383
:1009A0002197E1F7DF91CF910895CF93DF9388E00E
:1009B0000E94C101EC0189E00E94C101CD2B51F0E0
:1009C0002091AC0F3091AD0F2E5F3F4F3093AD0FA4
:1009D0002093AC0F892B49F08091AC0F9091AD0F13
:1009E00002979093AD0F8093AC0F8091AC0F9091D4
:1009F000AD0F8430910569F134F5009779F18230BB
:100A0000910539F18091A80F9091A90F2091A60F1F
:100A10003091A70F8217930734F18091A40F909122
:100A2000A50F0E94B4020E94C9038AE00E94C1017E
:100A3000892B31F0809104028823D9F010920402AE
:100A4000DF91CF9108958630910519F08830910596
:100A5000C9F69093A70F8093A60FD4CF1092A70F3B
:100A60001092A60FCFCF01969093A90F8093A80F55
:100A7000DACF81E080930402E3CFAF92BF92CF92AE
:100A8000DF92EF92FF920F931F93CF93DF93109219
:100A90009C0F10929B0F10921A0F1092190F0E9428
:100AA000A1020E94C903FF24F394EE24E39495E08D
:100AB000A92EB12CCC24C394D12C8091BA0F8823B9
:100AC00009F484C087E00E94C1012091160F0197AC
:100AD00009F03FC021113FC0E092160F62E070E0C4
:100AE00080E090E00E946E0287E00E94C1010197C1
:100AF00009F054C02FB7F8948091AE0F9091AF0FCA
:100B0000A091B00FB091B10F2FBF80930A0F9093B7
:100B10000B0FA0930C0FB0930D0F87E00E94C10143
:100B2000019709F52FB7F8948091AE0F9091AF0F10
:100B3000A091B00FB091B10F2FBF8093060F90938B
:100B4000070FA093080FB093090F87E00E94C1011F
:100B5000E4CF222349F287E00E94C101019721F6E8
:100B60001092160FBBCF8091060F9091070FA091A6
:100B7000080FB091090F40910A0F50910B0F60912F
:100B80000C0F70910D0F841B950BA60BB70B8C32BD
:100B90009140A105B10528F11092BA0FC091190F2B
:100BA000D0911A0FC430D10539F000919B0F1091EC
:100BB0009C0F04301105C1F40E947A046CE271E0CC
:100BC00080E090E00E946E021092BA0FDF91CF9108
:100BD0001F910F91FF90EF90DF90CF90BF90AF905B
:100BE0000895E092BA0FDACF8091160F882309F4A6
:100BF0004AC00E94A1021695102F0027179507954D
:100C00000B57134F2BE13FE0A90190E080E0DA01A0
:100C1000A80FB91F61E0F801E80FF91F7081711189
:100C200001C060E06C9301968830910581F7005F08
:100C30001F4F405F5F4F8FE04B39580731F7D69514
:100C4000DC2FCC27D795C795CB57D34F88E090E0C2
:100C5000D901A80FB91FFC013897EC0FFD1F41E027
:100C60005081511101C040E04C93019680319105B3
:100C700079F76096205F3F4F8FE02B39380731F7C7
:100C80000E94C9031ACF0E94A10280919D0F9091EA
:100C90009E0F009709F02EC18091000290910102F1
:100CA0002091100F3091110F232B09F0D6C001961F
:100CB00090930102809300028091020290910302BE
:100CC00020910E0F30910F0F232B09F0C8C0019611
:100CD000909303028093020280910202909103029A
:100CE0008730910521F4D0920F0FC0920E0F209102
:100CF0000002309101022F30310509F0BEC0D092C0
:100D0000110FC092100F009709F4ABC02091120F81
:100D10003091130F2817390709F0D6C0B0929E0FF3
:100D2000A0929D0F82E10E94C101892B61F0809108
:100D3000140F9091150F8530910529F0019690932D
:100D4000150F8093140F83E10E94C101892B59F084
:100D50008091140F9091150F009729F001979093AF
:100D6000150F8093140F84E10E94C101892B61F05B
:100D70008091120F9091130F8530910529F0019603
:100D80009093130F8093120F85E10E94C101892B6C
:100D900059F08091120F9091130F009729F001974D
:100DA0009093130F8093120F8091140F9091150F51
:100DB000FC0124E0EE0FFF1F2A95E1F7E55CF04F00
:100DC000F082FC0134E0EE0FFF1F3A95E1F7E55D9C
:100DD000F04FF08244E0880F991F4A95E1F7FC013B
:100DE000E55EF04FF0828091120F9091130FFC019D
:100DF00054E0EE0FFF1F5A95E1F7E55CF04FF786E0
:100E0000FC0164E0EE0FFF1F6A95E1F7E55DF04F2E
:100E1000F78674E0880F991F7A95E1F7FC01E55E8B
:100E2000F04FF786E0910202F0910302A4E0EE0F8A
:100E3000FF1FAA95E1F7E55EF04F809100029091C7
:100E40000102E80FF91FF0820E94C90362E070E01E
:100E500080E090E00E946E0230CE019729CF01978A
:100E600037CF10920F0F10920E0F2115310551F050
:100E70002F30310509F44ACF51CF009791F3232B3E
:100E800009F04CCF4091120F5091130F1092110F97
:100E90001092100F2091140F3091150F2817390759
:100EA00009F43CCF2F5F3F4F2817390709F436CF9D
:100EB0004E5F5F4F4817590709F430CF2196D09302
:100EC0001A0FC093190F13C0A9014F5F5F4F481746
:100ED000590709F423CF2E5F3F4F2817390709F42C
:100EE0001DCF0F5F1F4F10939C0F00939B0F0E940D
:100EF0007A0414CF019790939E0F80939D0F12CF89
:100F00001F920F920FB60F9211242F933F938F933E
:100F10009F93AF93BF938091AE0F9091AF0FA0912D
:100F2000B00FB091B10F30919F0F23E0230F2D37F9
:100F300058F50196A11DB11D20939F0F8093AE0F10
:100F40009093AF0FA093B00FB093B10F8091A00F0B
:100F50009091A10FA091A20FB091A30F0196A11D96
:100F6000B11D8093A00F9093A10FA093A20FB093F7
:100F7000A30FBF91AF919F918F913F912F910F90B0
:100F80000FBE0F901F90189526E8230F0296A11D03
:100F9000B11DD2CF1F920F920FB60F9211240F9056
:100FA0000FBE0F901F901895789484B5826084BD11
:100FB00084B5816084BD85B5826085BD85B581605D
:100FC00085BD80916E00816080936E0010928100DB
:100FD0008091810082608093810080918100816096
:100FE0008093810080918000816080938000809157
:100FF000B10084608093B1008091B00081608093E3
:10100000B000809191008260809391008091910066
:101010008160809391008091900081608093900026
:101020008091A10082608093A1008091A1008160E5
:101030008093A1008091A00081608093A0008091A6
:101040002101826080932101809121018160809340
:1010500021018091200181608093200180917A009C
:10106000846080937A0080917A00826080937A0015
:1010700080917A00816080937A0080917A00806804
:1010800080937A001092C10060E08AE00E9418020A
:1010900060E082E10E94180260E083E10E94180291
:1010A00060E085E10E94180260E084E10E9418027D
:1010B00060E083E00E941802C6E1D0E061E08C2F7E
:1010C0000E941802C432D10524F461E08C2F0E94E2
:1010D000EA012296C433D10589F784E090E0909329
:1010E000AD0F8093AC0F1092AB0F1092AA0F90939C
:1010F000A90F8093A80F9093A70F8093A60F8091BC
:101100001110909112101816190634F441E06CE099
:1011100090E080E00E944B0380911110909112109A
:101120001816190634F448E06AE090E080E00E9466
:101130004B0380911110909112101816190624F487
:1011400090E080E00E94A9030E94A1028091A40F78
:101150009091A50F0E94B40260E087E00E941802FF
:10116000C0E0D0E011E087E00E94C101019709F0E2
:101170004CC02FB7F8948091AE0F9091AF0FA09113
:10118000B00FB091B10F2FBF8093B60F9093B70FF0
:10119000A093B80FB093B90F87E00E94C1010197E7
:1011A000B9F42FB7F8948091AE0F9091AF0FA09142
:1011B000B00FB091B10F2FBF8093B20F9093B30FC8
:1011C000A093B40FB093B50F87E00E94C101E4CFA4
:1011D0008091B20F9091B30FA091B40FB091B50F61
:1011E0004091B60F5091B70F6091B80F7091B90F41
:1011F000841B950BA60BB70B883B9B40A105B10543
:1012000080F01093BA0F0E943D058091BA0F813093
:1012100059F40E943D05209709F4A5CF0E940000D3
:10122000A2CF0E94D504F1CF0E94D504F4CFCF9372
:10123000DF93CDE0D0E0D0930C10C0930B108BE087
:1012400090E090930E1080930D108CE090E09093BE
:10125000101080930F1081E090E090931210809313
:10126000111061E08DE00E94180261E080910D1084
:101270000E94180261E080910F100E94180261E044
:1012800080910F100E94EA01D0930C10C0930B10B4
:10129000EBECFFE0119280E1EB30F807D9F7D0E0FA
:1012A000C0E08091111090911210C817D90774F501
:1012B00040E06FE0CE010E944B03809111109091AD
:1012C0001210C817D9072CF447E06BE0CE010E943A
:1012D0004B0340E069E0CE010E944B038091111066
:1012E00090911210C817D9071CF4CE010E94A903CF
:1012F0008091111090911210C817D9072CF440E07A
:101300006CE0CE010E944B032196CBCF85E090E0AC
:1013100090939E0F80939D0FDF91CF91089597FB3F
:10132000072E16F4009407D077FD09D00E94AB0970
:1013300007FC05D03EF4909581959F4F08957095D8
:1013400061957F4F0895EE0FFF1F881F8BBF079099
:10135000F691E02D1994AA1BBB1B51E107C0AA1FEF
:10136000BB1FA617B70710F0A61BB70B881F991F46
:101370005A95A9F780959095BC01CD010895F894F0
:02138000FFCF9D
:101382000400010001000000000000000000000055
:10139200000000000000000000010000000000004A
:1013A2000000000000000001000100010000000038
:1013B2000000000000000000010101000000000028
:1013C2000000000000000101010101010100000014
:1013D2000000000000000000010101000000000008
:1013E20000000000000000010001000100000000F8
:1013F20000000000000000000001000000000000EA
:1014020000000000000000000000000000000000DA
:1014120000000000000001010101010100000000C4
:1014220000000000000001010101010100000000B4
:1014320000000000000000000101000000000000A8
:101442000000000000000000010100000000000098
:101452000000000000000000010100000000000088
:101462000000000000000000010100000000000078
:101472000000000000000000010100000000000068
:10148200000000000000000000000000000000005A
:101492000000000000000101010101000000000045
:1014A2000000000000000101000001010000000036
:1014B2000000000000000101000001010000000026
:1014C2000000000000000101000001010000000016
:1014D2000000000000000101010101000000000005
:1014E20000000000000001010000000000000000F8
:1014F20000000000000001010000000000000000E8
:1015020000000000000000000000000000000000D9
:1015120000000000000000000101000000000000C7
:1015220000000000000000000101000000000000B7
:1015320000000000000000010101000000000000A6
:101542000000000000000000010100000000000097
:101552000000000000000000010100000000000087
:101562000000000000000000010100000000000077
:101572000000000000000101010101010000000063
:101582000000000000000000000000000000000059
:101592000000000000000000000000000000000049
:1015A2000000000000000000000000000000000039
:1015B2000000000000000101010101010000000023
:1015C2000000000000000101010101010000000013
:1015D2000000000000000000000000000000000009
:1015E20000000000000000000000000000000000F9
:1015F20000000000000000000000000000000000E9
:1016020000000000000000000000000000000000D8
:1016120000000000000000010101010000000000C4
:1016220000000000000001010000010100000000B4
:1016320000000000000001010000000000000000A6
:101642000000000000000101000000000000000096
:101652000000000000000101000101010000000083
:101662000000000000000101000001010000000074
:101672000000000000000001010101000000000064
:101682000000000000000000000000000000000058
:101692000000000000000101010101000000000043
:1016A2000000000000000101000001010000000034
:1016B2000000000000000101000001010000000024
:1016C2000000000000000101010101000000000013
:1016D2000000000000000101010100000000000004
:1016E20000000000000001010001010000000000F4
:1016F20000000000000001010000010100000000E4
:1017020000000000000000000000000000000000D7
:1017120000000000000001010000010100000000C3
:1017220000000000000001010000010100000000B3
:1017320000000000000001010000010100000000A3
:101742000000000000000101000001010000000093
:101752000000000000000101000001010000000083
:101762000000000000000101000001010000000073
:101772000000000000000001010101010000000062
:101782000000000000000000000000000000000057
:101792000000000000000101010101000000000042
:1017A2000000000000000101000001010000000033
:1017B2000000000000000101000001010000000023
:1017C2000000000000000101000001010000000013
:1017D2000000000000000101010101000000000002
:1017E20000000000000001010000000000000000F5
:1017F20000000000000001010000000000000000E5
:1018020000000000000000000000000000000000D6
:1018120000000000000000010101010000000000C2
:1018220000000000000001010000010100000000B2
:1018320000000000000001010000010100000000A2
:101842000000000000000101000001010000000092
:101852000000000000000101000001010000000082
:101862000000000000000101000001010000000072
:101872000000000000000001010101000000000062
:101882000000000000000000000000000000000056
:101892000000000000000001010101000000000042
:1018A2000000000000000101000001010000000032
:1018B2000000000000000000000001010000000024
:1018C2000000000000000000010101000000000013
:1018D2000000000000000000000001010000000004
:1018E20000000000000001010000010100000000F2
:1018F20000000000000000010101010100000000E1
:1019020000000000000000000000000000000000D5
:1019120000000000000000000000000000000000C5
:1019220000000000000000000000000000000000B5
:10193200000000000000010101010101000000009F
:10194200000000000000010101010101000000008F
:101952000000000000000000000000000000000085
:101962000000000000000000000000000000000075
:101972000000000000000000000000000000000065
:101982000000000000000000010100000000000053
:101992000000000000000001010101000000000041
:1019A2000000000000000101000001000000000032
:1019B2000000000000000001000000000000000024
:1019C2000000000000000000010100000000000013
:1019D2000000000000000100000101000000000002
:1019E20000000000000001010001010000000000F1
:1019F20000000000000000010101000000000000E2
:101A020000000000000000000000000000000000D4
:101A120000000000000001010101010000000000BF
:101A220000000000000001010000000000000000B2
:101A320000000000000001010000000000000000A2
:101A4200000000000000010101010100000000008F
:101A52000000000000000101000000000000000082
:101A62000000000000000101000000000000000072
:101A7200000000000000010101010100000000005F
:101A82000000000000000000000000000000000054
:101A92000000000000000000010100000000000042
:101AA2000000000000000001010101000000000030
:101AB2000000000000000001000000010000000022
:101AC2000000000000000101000000000000000012
:101AD2000000000000000101000000010000000001
:101AE20000000000000000010101010000000000F0
:101AF20000000000000000000101000000000000E2
:101B020000000000000000000000000000000000D3
:101B120000000000000000000101000000000000C1
:101B220000000000000000010101010000000000AF
:101B320000000000000000010000000100000000A1
:101B42000000000000000101000000000000000091
:101B52000000000000000101000000010000000080
:101B6200000000000000000101010100000000006F
:101B72000000000000000000010100000000000061
:101B82000000000000000000000000000000000053
:101B9200000000000000000101010100000000003F
:101BA2000000000000000000010100000000000031
:101BB2000000000000000000010100000000000021
:101BC2000000000000000000010100000000000011
:101BD2000000000000000000010100000000000001
:101BE20000000000000000000101000000000000F1
:101BF20000000000000000010101010000000000DF
:101C020000000000000000000000000000000000D2
:101C120000000000000000010101010000000000BE
:101C220000000000000001010000010100000000AE
:101C3200000000000000010100000101000000009E
:101C4200000000000000010100000101000000008E
:101C5200000000000000010100000101000000007E
:101C6200000000000000010100000101000000006E
:101C7200000000000000000101010100000000005E
:101C82000000000000000000000000000000000052
:101C9200000000000000010000000001010000003F
:101CA200000000000000010100000001010000002E
:101CB200000000000000010101000001010000001D
:101CC200000000000000010100010001010000000D
:101CD20000000000000001010000010101000000FD
:101CE20000000000000001010000000101000000EE
:101CF20000000000000001010000000001000000DF
:101D020000000000000000000000000000000000D1
:101D120000000000000001010101010000000000BC
:101D220000000000000001010000010100000000AD
:101D3200000000000000010100000101000000009D
:101D4200000000000000010101010100000000008C
:101D5200000000000000010100000101000000007D
:101D6200000000000000010100000101000000006D
:101D7200000000000000010101010100000000005C
:101D82000000000000000000000000000000000051
:101D92000000000000000000000100000000000040
:101DA200000000000000000100010001000000002E
:101DB200000000000000000001010100000000001E
:101DC200000000000000010101010101010000000A
:101DD20000000000000000000101010000000000FE
:101DE20000000000000000010001000100000000EE
:101DF20000000000000000000001000000000000E0
:101E020000000000000000000000000000000000D0
:101E120000000000000000010101010000000000BC
:101E220000000000000001010000010100000000AC
:101E3200000000000000010100010101000000009B
:101E4200000000000000010101000101000000008B
:101E5200000000000000010100000101000000007C
:101E6200000000000000010100000101000000006C
:101E7200000000000000000101010100000000005C
:101E82000000000000000000000000000000000050
:101E9200000000000000000001010000000000003E
:101EA200000000000000000001010000000000002E
:101EB200000000000000000101010000000000001D
:101EC200000000000000000001010000000000000E
:101ED20000000000000000000101000000000000FE
:101EE20000000000000000000101000000000000EE
:101EF20000000000000001010101010100000000DA
:101F020000000000000000000000000000000000CF
:101F120000000000000000010101010000000000BB
:101F220000000000000001000000010100000000AC
:101F3200000000000000000000000101000000009D
:101F4200000000000000000000010100000000008D
:101F5200000000000000000101000000000000007D
:101F6200000000000000010100000000000000006D
:101F72000000000000000101010101010000000059
:101F8200000000000000000000000000000000004F
:101F9200000000000000000101010100000000003B
:101FA200000000000000010100000101000000002B
:101FB200000000000000000000000101000000001D
:101FC200000000000000000001010100000000000C
:101FD20000000000000000000000010100000000FD
:101FE20000000000000001010000010100000000EB
:101FF20000000000000000010101010100000000DA
:1020020000000000000000000000000000000000CE
:1020120000000000000000000001010000000000BC
:1020220000000000000000000101010000000000AB
:10203200000000000000000100010100000000009B
:10204200000000000000010000010100000000008B
:102052000000000000000101010101010000000078
:10206200000000000000000000010100000000006C
:10207200000000000000000000010100000000005C
:0620820000000000000058
:00000001FF
