:100000000C9451010C9482010C9482010C94820195
:100010000C9482010C9482010C9482010C94820154
:100020000C9482010C9482010C9482010C94820144
:100030000C9482010C9482010C9482010C94820134
:100040000C9482010C9482010C9482010C94820124
:100050000C9482010C9482010C9482010C94B707D9
:100060000C9482010C9481070C9457070C94820124
:100070000C9482010C9482010C9482010C948201F4
:100080000C9482010C9482010C9482010C948201E4
:100090000C9482010C9482010C9482010C9401084E
:1000A0000C9482010C9482010C9482010C948201C4
:1000B0000C9482010C9482010C9482010C948201B4
:1000C0000C9482010C9482010C9482010C948201A4
:1000D0000C9482010C9482010C9482010C94820194
:1000E0000C9482010C940E040C9410050C94900353
:1000F0000C940F050C9425070C9494030C94710335
:100100000C9432050C947D060C9498030C947D039A
:100110000C9479030C9455020C941F050C947503F0
:100120000C9419020C944E040C9425090C9418029A
:100130000C949E030C94A2030C94A6030C948603C7
:100140000C94AB030C948A030C9480030C94690206
:100150000C9417020C94FC020C94DD030C946B03BA
:100160000C947C060C94AF020C9477020C946605F8
:100170000C94B0030C94AC030C9439050C94460217
:1001800000002100240027002A002D003000330049
:1001900001010000040107010A01000022002500FE
:1001A00028002B002E003100340002010000050160
:1001B00008010B01000020002300260029002C006C
:1001C0002F003200000100000301060109010505AE
:1001D0000505070508080808020202020A0A0808BD
:1001E00004040404010101010101010103030303EB
:1001F00003030303040707070C0C0C0C0C0C0C0C7A
:100200000202020206060606060606060B0B0B0B8A
:100210000B0B0B0B010210202008081020401020AF
:1002200040800201020108040201010204081020BA
:1002300040808040201008040201800402018040B8
:100240002010080402010804020101020408102021
:100250004080010204081020408000000A0B0209BF
:100260000C0D0E0807030401000000000000000050
:10027000000000000000000000000000000000007E
:10028000000000000000121110000000000000003B
:10029000000000000000000000000000000000005E
:1002A000250911241FBECFEFD1E2DEBFCDBF00E094
:1002B0000CBF12E0A0E0B2E0E4E6F9E100E00BBF21
:1002C00002C007900D92A23AB107D9F724E0A2EA42
:1002D000B2E001C01D92A139B207E1F711E0C1E51A
:1002E000D1E000E006C021970109802FFE010E94A5
:1002F000A80CC035D10780E00807A9F70E94D909EA
:100300000C94B00C0C94000096E0899FD00111244D
:10031000AA5EBB4F90967C936E935F9791E0919607
:100320009C939197E0918304F091840490918204CE
:10033000992339F0309751F0811108C0809132042F
:100340001994309719F05C968C91FACF0895CF925A
:10035000DF92EF92FF920F931F9396E0899FF00137
:100360001124EA5EFB4F11A2278D30A12130310507
:1003700051F178F02230310509F451C023303105B4
:1003800009F452C01F910F91FF90EF90DF90CF9032
:1003900008956623B9F361E070E00E9484012FB7ED
:1003A000F8948091690390916A03A0916B03B091D6
:1003B0006C032FBF80936E0490936F04A09370041E
:1003C000B0937104DFCF9FB7F894C0906903D090C9
:1003D0006A03E0906B03F0906C039FBF00916E0482
:1003E00010916F042091700430917104C01AD10AE9
:1003F000E20AF30A009180041091810430E020E0C9
:100400000C151D052E053F0550F462E070E01F91AC
:100410000F91FF90EF90DF90CF900C9484016111C9
:10042000B1CF63E070E0F3CF70E060E0F0CF08950B
:100430000895AF92BF92CF92DF92EF92FF920F9307
:100440001F93CF93DF936C017B018B01040F151F6A
:10045000EB015E01AE18BF08C017D10759F06991D2
:10046000D601ED91FC910190F081E02DC601199526
:10047000892B79F7C501DF91CF911F910F91FF90E3
:10048000EF90DF90CF90BF90AF900895FC01538D17
:10049000448D252F30E0842F90E0821B930B54175E
:1004A00010F0CF96089501970895FC01918D828DEB
:1004B000981761F0A28DAE0FBF2FB11D5D968C9184
:1004C000928D9F5F9F73928F90E008958FEF9FEFC3
:1004D0000895FC01918D828D981731F0828DE80F7F
:1004E000F11D858D90E008958FEF9FEF0895FC0139
:1004F000918D228D892F90E0805C9F4F821B910906
:100500008F73992708958DE693E00E94770221E08A
:10051000892B09F420E0822F0895FC01A48DA80FF7
:10052000B92FB11DA35ABF4F2C91848D90E0019635
:100530008F739927848FA689B7892C93A089B18955
:100540008C91837080648C93938D848D981306C0F6
:100550000288F389E02D80818F7D80830895EF925A
:10056000FF920F931F93CF93DF93EC0181E0888F6D
:100570009B8D8C8D98131AC0E889F989808185FF3D
:1005800015C09FB7F894EE89FF896083E889F989DF
:1005900080818370806480839FBF81E090E0DF91E1
:1005A000CF911F910F91FF90EF900895F62E0B8D34
:1005B00010E00F5F1F4F0F731127E02E8C8D8E11EF
:1005C0000CC00FB607FCFACFE889F989808185FF56
:1005D000F5CFCE010E948D02F1CFEB8DEC0FFD2FF8
:1005E000F11DE35AFF4FF0829FB7F8940B8FEA8911
:1005F000FB8980818062CFCFCF93DF93EC01888D20
:100600008823B9F0AA89BB89E889F9898C9185FD8D
:1006100003C0808186FD0DC00FB607FCF7CF8C911B
:1006200085FFF2CF808185FFEDCFCE010E948D0244
:10063000E9CFDF91CF91089580E090E0892B29F0F8
:100640000E94830281110E94000080E090E0892BCB
:1006500049F080E090E0892B29F00E940000811190
:100660000E94000080E090E0892B49F080E090E05B
:10067000892B29F00E94000081110E94000080E077
:1006800090E0892B49F080E090E0892B29F00E94CE
:10069000000081110C94000008958150823108F00F
:1006A0005AC0E82FF0E08827E75AFC4F8F4F0C9490
:1006B000A80C79037D036B0371037503AB038003FF
:1006C00086038A039003940398039E03A203AB035B
:1006D000A603AC03B003809180008F7780938000E5
:1006E0000895809180008F7DF9CF80918000877F71
:1006F000F5CF84B58F7784BD089584B58F7DFBCF0A
:100700008091B0008F778093B00008958091B00001
:100710008F7DF9CF809190008F778093900008951E
:10072000809190008F7DF9CF80919000877FF5CFE9
:100730008091A0008F778093A00008958091A00001
:100740008F7DF9CF8091A000877FF5CF8091200128
:100750008F77809320010895809120018F7DF9CFBC
:1007600080912001877FF5CFCF93DF93282F30E052
:10077000F901E65AFD4F8491F901EC5EFD4FD491E9
:10078000F901E253FE4FC491CC23A1F081110E94E4
:100790004D03EC2FF0E0EE0FFF1FEC54FE4FA59140
:1007A000B491EC91ED2381E090E009F480E0DF91D9
:1007B000CF91089580E090E0FACF862F0C94B40397
:1007C0001F93CF93DF93282F30E0F901E65AFD4FB6
:1007D0008491F901EC5EFD4FD491F901E253FE4F93
:1007E000C491CC23A9F0162F81110E944D03EC2F48
:1007F000F0E0EE0FFF1FE656FE4FA591B4918FB7C4
:10080000F894EC91111108C0D095DE23DC938FBFD2
:10081000DF91CF911F910895DE2BF8CF862F642FA3
:100820000C94E003CF93DF9390E0FC01EC5EFD4F6E
:10083000249182539E4FFC0184918823C9F090E05B
:10084000880F991FFC01E058FE4FA591B491FC015F
:10085000E656FE4FC591D49161110DC09FB7F89433
:100860008C91209582238C938881282328839FBF95
:10087000DF91CF910895623051F49FB7F8943C9185
:10088000822F809583238C93E8812E2BEFCF8FB717
:10089000F894EC912E2B2C938FBFEACF862F642FE8
:1008A0000C9412043FB7F89480915503909156032D
:1008B000A0915703B091580326B5A89B05C02F3FC0
:1008C00019F00196A11DB11D3FBFBA2FA92F982F76
:1008D0008827BC01CD01620F711D811D911D42E071
:1008E000660F771F881F991F4A95D1F708958F9239
:1008F0009F92AF92BF92CF92DF92EF92FF924B0105
:100900005C010E9452046B017C010E9452046C192C
:100910007D098E099F09683E734081059105A8F302
:1009200021E0821A9108A108B10888EEC80E83E080
:10093000D81EE11CF11C81149104A104B10429F713
:10094000FF90EF90DF90CF90BF90AF909F908F90EF
:10095000089520910A03260F3327331F21323105D2
:10096000ECF420912E03FC0190E080E0243069F04B
:1009700082E00895A0910A032191AC0146515D4F98
:10098000A40FB52FB11D2C930196861798F3809173
:100990000A03680F60930A0380E0089581E00895D8
:1009A00010922E0381E08093300310922F0361E0B8
:1009B00084E10E94E00361E085E10E94E003E9EB4D
:1009C000F0E080818E7F808380818D7F808388E4CA
:1009D0008093B80085E48093BC000895CF93DF93A3
:1009E00091E09093E9028823B9F0C091B800D091CA
:1009F000BA008091BC008A7B8093BC0060E084E1F7
:100A00000E94E00360E085E10E94E0030E94D004C0
:100A1000D093BA00C093B800DF91CF9108950895A4
:100A2000E091600380915F03E81730F4F0E0EC534D
:100A3000FD4F808190E008958FEF9FEF0895909192
:100A4000600380915F032FEF3FEF981748F4E92F81
:100A5000F0E0EC53FD4F208130E09F5F9093600306
:100A6000C901089580915F0390916003891B990BE0
:100A70000895CF92DF92EF92FF920F931F93CF933F
:100A8000DF937C01CB018A012091C302222389F0EC
:100A9000EB016B01C40ED51ECC15DD0569F0699123
:100AA000D701ED91FC910190F081E02DC7011995DE
:100AB000F3CF642F0E94A904C801DF91CF911F9149
:100AC0000F91FF90EF90DF90CF900895CF93DF9339
:100AD0001F92CDB7DEB769832091C3022223F9F0BC
:100AE00020915D03203258F021E030E0FC01338397
:100AF000228390E080E00F90DF91CF910895809164
:100B00005E03E82FF0E0ED55FD4F998190838F5FF4
:100B100080935E0380935D0381E090E0ECCF61E021
:100B2000CE0101960E94A904F7CFCF92DF92EF92F7
:100B3000FF920F931F93CF93DF93FC01C48121E0B9
:100B40002093C302C093A20210925E0310925D0331
:100B50008385682B8AE094E00E946605D0915D034E
:100B6000D13208F092C00E9452046B017C01809146
:100B70002E03811165C082E080932E0381E0809373
:100B800030038FEF80932D0310925203D0935103C3
:100B9000A3EAB2E0E1E3F3E080E0D81385C010926D
:100BA000530380915303CC0FC82BC0935303809100
:100BB0002F03813009F07CC010922F030E94520451
:100BC0006B017C01809153038093BB008091E5020F
:100BD0009091E602A091E702B091E802892B8A2B5E
:100BE0008B2B99F00E9452040091E5021091E602CD
:100BF0002091E7023091E8026C197D098E099F0966
:100C00000617170728073907E0F18091BC0083FD1C
:100C1000D9CF85EC8093BC000E9452046B017C010B
:100C200080912E03823009F445C080912D038F3FBF
:100C300061F180912D03803241F180912D0325C017
:100C40008091E5029091E602A091E702B091E8025E
:100C5000892B8A2B8B2B09F48ACF0E945204009196
:100C6000E5021091E6022091E7023091E8026C194A
:100C70007D098E099F09061717072807390708F00D
:100C800076CF8091E4020E94EE0410925E031092EF
:100C90005D031092C302DF91CF911F910F91FF90DE
:100CA000EF90DF90CF9008959D9191938F5F75CFD6
:100CB00085EEB0CF8091E5029091E602A091E70227
:100CC000B091E802892B8A2B8B2B09F4A9CF0E94C3
:100CD00052040091E5021091E6022091E702309162
:100CE000E8026C197D098E099F0906171707280766
:100CF000390708F095CFC5CF089590E080E00895BA
:100D000085ED8093BC008091E5029091E602A09170
:100D1000E702B091E8020796A11DB11D23E0B69548
:100D2000A795979587952A95D1F72091BC0024FD2A
:100D300003C010922E0308954091E5025091E602FF
:100D40006091E7027091E802452B462B472B69F32F
:100D50000097A105B10541F025E32A95F1F70000C0
:100D60000197A109B109E1CF8091E4020C94EE044E
:100D70000F931F93CF938C01C62F0E9495056C2F64
:100D80006460C8010E9495056C2F6B7FC8010E94AA
:100D9000950583EC90E00197F1F7CF911F910F91AA
:100DA00008950F931F93CF93DF938C01D62FC42FF9
:100DB000607F642B0E94B80680E1D89FB0011124A7
:100DC0006C2BC801DF91CF911F910F910C94B80645
:100DD000CF93DF9300D000D01F921F92CDB7DEB724
:100DE00098E0E8E1F2E0DE01119601900D929A950B
:100DF000E1F790918D04961710F46FEF690F262F8D
:100E000030E0220F331F41E050E04C0F5D1F240FF4
:100E1000351FF9016081680F606840E085E894E063
:100E200028960FB6F894DEBF0FBECDBFDF91CF91ED
:100E30000C94D10640E061E085E894E00E94D10680
:100E40008BE39FE10197F1F7089541E00E94D106FD
:100E500081E090E00895FF920F931F93CF93DF936B
:100E6000EC01F62E80E00E94E8068E01FE01019062
:100E70000020E9F73197EC1BFD0BC8018C1B9D0B83
:100E80008E179F0770F4F80161918F0141E085E8AA
:100E900094E00E94D1066F2D802F8C1B0E94E806E3
:100EA000E5CFDF91CF911F910F91FF9008951F9291
:100EB0000F920FB60F9211240BB60F922F933F9300
:100EC0004F935F936F937F938F939F93AF93BF9352
:100ED000EF93FF938DE693E00E948D02FF91EF91D7
:100EE000BF91AF919F918F917F916F915F914F9142
:100EF0003F912F910F900BBE0F900FBE0F901F9040
:100F000018951F920F920FB60F9211240BB60F92E5
:100F10002F938F939F93EF93FF93E0917D03F09135
:100F20007E038081E0918303F091840382FD1DC0E4
:100F30009081809186038F5F8F7320918703821742
:100F400041F0E0918603F0E0E359FC4F958F8093E8
:100F50008603FF91EF919F918F912F910F900BBE80
:100F60000F900FBE0F901F9018958081F2CF1F92A7
:100F70000F920FB60F9211242F933F938F939F934D
:100F8000AF93BF938091690390916A03A0916B0323
:100F9000B0916C033091540323E0230F2D3758F5A3
:100FA0000196A11DB11D2093540380936903909372
:100FB0006A03A0936B03B0936C03809155039091E7
:100FC0005603A0915703B09158030196A11DB11D7E
:100FD0008093550390935603A0935703B0935803FF
:100FE000BF91AF919F918F913F912F910F900FBE25
:100FF0000F901F90189526E8230F0296A11DB11D92
:10100000D2CF1F920F920FB60F9211240BB60F92F0
:101010002F933F934F935F936F937F938F939F9300
:10102000AF93BF93EF93FF938091B900887F803691
:1010300009F44DC008F040C0883209F4A9C028F571
:10104000803109F49DC0C8F4882309F4FBC08830BE
:1010500009F496C0FF91EF91BF91AF919F918F914D
:101060007F916F915F914F913F912F910F900BBEA8
:101070000F900FBE0F901F901895883109F488C00B
:10108000803241F780932D0314C0803409F49DC051
:1010900040F48033B9F38833E9F680932D0385EC6F
:1010A000B0C0803509F485C0883509F496C088340D
:1010B00089F60E948006CECF883909F48CC038F5B5
:1010C000883729F050F4883611F0803719F683E01C
:1010D00080932E0310922C0357C0883809F47BC0EC
:1010E000803919F0803809F0B5CF80912C03803217
:1010F00008F071C0E0912C0381E08E0F80932C03E7
:101100008091BB00F0E0E45FFC4F80833DC0803BFA
:1011100039F0E0F4803A09F479C0883A09F09ACFBE
:1011200084E080932E0310920B0310920A03E09147
:101130005B03F0915C03199580910A0381110FC044
:1011400081E080930A031092EA0209C0803C09F40E
:10115000A6CF883C09F4A3CF883B09F07BCFE09170
:101160000B0381E08E0F80930B03F0E0E651FD4FFF
:1011700080818093BB0090910B0380910A0329C06A
:10118000809153038093BB0085EC8093BC0062CFB9
:101190009091520380915103981758F5E0915203B2
:1011A00081E08E0F80935203F0E0EF5CFC4F808172
:1011B000E9CFE091520381E08E0F8093520380913A
:1011C000BB00F0E0EF5CFC4F808390915203809174
:1011D00051039817C8F285E8D8CFE091520381E017
:1011E0008E0F809352038091BB00F0E0EF5CFC4FC8
:1011F00080838091300381115CCF81E080932F0345
:1012000084EA8093BC0010922E0324CF85EC809357
:10121000BC0010922E0380912C03803230F4E091B8
:101220002C03F0E0E45FFC4F108260912C0370E02F
:10123000E0915903F0915A038CE093E019951092D4
:101240002C0308CF10922D0334CF1092700310920C
:101250006F0388EE93E0A0E0B0E080937103909379
:101260007203A0937303B09374032AE232E03093C5
:101270006E0320936D0325EC30E030937A032093C6
:10128000790324EC30E030937C0320937B0320EC43
:1012900030E030937E0320937D0321EC30E03093E7
:1012A000800320937F0322EC30E03093820320936D
:1012B000810326EC30E03093840320938303109263
:1012C000860310928703109288031092890310926C
:1012D0000D0410920C0480930E0490930F04A093BD
:1012E0001004B09311048CE392E090930B0480936C
:1012F0000A04109288041092870488E592E0909383
:1013000086048093850487E28093890484E1809336
:101310008E0484E080938F0410929004109218043D
:1013200010921C0410921B0410921D048EE492E093
:101330009093170480931604E2E3F4E01082148281
:1013400013821582369684E0EE36F807B9F784E00A
:1013500092E0909379048093780480E092E09093F7
:101360007B0480937A0484E080937C0480937D04E2
:1013700088E092E090937704809376048AE090E08E
:1013800090937F0480937E0484EF91E09093810496
:10139000809380041092840410928304109272044B
:1013A00010927304109274041092750410928204C7
:1013B0000895789484B5826084BD84B5816084BDCD
:1013C00085B5826085BD85B5816085BD80916E00E3
:1013D000816080936E001092810080918100826014
:1013E0008093810080918100816080938100809151
:1013F00080008160809380008091B1008460809340
:10140000B1008091B00081608093B0008091910024
:10141000826080939100809191008160809391001F
:10142000809190008160809390008091A100826003
:101430008093A1008091A10081608093A1008091A0
:10144000A00081608093A000809121018260809340
:1014500021018091210181608093210180912001EF
:1014600081608093200180917A00846080937A006B
:1014700080917A00826080937A0080917A00816006
:1014800080937A0080917A00806880937A0010922D
:10149000C100E0917D03F0917E0382E08083E091C2
:1014A0007903F0917A031082E0917B03F0917C0341
:1014B0008FEC808310928503E0918103F091820389
:1014C00086E08083E0917F03F091800380818061DA
:1014D0008083E0917F03F091800380818860808326
:1014E000E0917F03F0918003808180688083E091A8
:1014F0007F03F091800380818F7D80831092600351
:1015000010925F0310925E0310925D030E94D0045C
:1015100087E192E090935C0380935B0388E192E023
:1015200090935A038093590310928A0480918F04F8
:10153000823018F098E090938A0480938D0462E3DF
:1015400070E080E090E00E9477046091900485E86C
:1015500094E00E94950568EE73E080E090E00E94C0
:10156000770460E385E894E00E94B806CBE4D6E413
:10157000CE010197F1F760E385E894E00E94B80698
:101580002197F1F760E385E894E00E94B80683E5CF
:1015900092E00197F1F760E285E894E00E94B806D6
:1015A00060918A04606240E085E894E00E94D10680
:1015B00084E080938B0440E06CE085E894E00E9436
:1015C000D1060E941A0782E080938C0440E066E016
:1015D00085E894E00E94D10640E062E085E894E06E
:1015E0000E94D1068BE39FE10197F1F788E0809399
:1015F000900460E085E894E00E94950560E081E059
:101600000E94E8064AE050E060E672E085E894E077
:101610000E94190261E081E00E94E80648E050E083
:101620006BE672E085E894E00E941902812C912C0F
:101630005401839444244A94542C56E2652E52E07B
:10164000752E51E0509382048FB7F894409169034E
:1016500050916A0360916B0370916C038FBF80910E
:10166000720490917304A0917404B0917504481BA6
:10167000590B6A0B7B0B80917E0490917F04B0E044
:10168000A0E084179507A607B70708F029C1C0E0B6
:1016900080917C04C81760F4E0917804F09179049B
:1016A000EC0FF11D62E080810E941204CF5FF0CF49
:1016B000312C80917D04381608F05FC0032D10E0B6
:1016C000E0917A04F0917B04E00FF11F61E08081EA
:1016D0000E941204E0917A04F0917B04E00FF11F64
:1016E00060E080810E94E003D501C401032C04C0A6
:1016F000880F991FAA1FBB1F0A94D2F76C017C01A7
:10170000E094F094212C80917C042816F8F4C22DEA
:10171000D0E0E0917804F0917904EC0FFD1F808116
:101720000E94B4032496CC0FDD1FCA5EDB4F892BC9
:1017300041F4888199818C299D29998388832394F8
:10174000E2CF888199818E219F21F7CFE0917A04A1
:10175000F0917B04E00FF11F61E080810E94E003C3
:1017600080917A0490917B04080F191F60E0F801C2
:1017700080810E94120433949CCF96E1E92E94E07C
:10178000F92EE7018F8D98A1892B21F41C8E5E8E96
:101790004D8E19A22696F4E0C235DF0799F7D12CB9
:1017A00080917C04D81608F051C0C12C0D2D10E09A
:1017B000000F111F025E1B4F20917D04C21608F01E
:1017C00043C0F801608171810C2C02C07695679549
:1017D0000A94E2F7D29E900111242C0D311DE6E10E
:1017E000F4E080E0458D568D2417350709F493C049
:1017F0008F5F36968A30B1F760FF24C0E6E1F4E0EF
:1018000090E080E0448D411118C0E0917604F091A1
:101810007704E20FF31F408156E0589FF001599F73
:10182000F00D1124EA5EFB4F448F368F258F10A2F6
:10183000178E61E00E94A70105C0019636968A3096
:10184000910501F7C394B8CFD394AACF80E0F701F4
:1018500091A19111892FF6E0EF0EF11CCE15DF0555
:10186000B1F79FB7F8944091690350916A03609172
:101870006B0370916C039FBF409372045093730489
:101880006093740470937504882351F18091370438
:10189000882331F18091350490913604019701F548
:1018A00020913204E0E2F2E0A1E6B3E02A32E9F06E
:1018B0002223C1F08091670390916803FC01EF59E6
:1018C000FC4F2083019690936803809367030697EB
:1018D00049F410926703109268031092670302C0E4
:1018E000109282040E941C03ACCE91918D919813AA
:1018F00014C06E167F06C9F70E941A0770E060E0F8
:1019000084E792E00E942B0761E070E080E892E0BB
:101910000E942B07E7CF61708DCF0E941A0770E0FD
:1019200060E088E892E00E942B0761E070E082E9C5
:1019300092E00E942B0768EB7BE080E090E00E9441
:1019400077040E941A0761E070E081E693E0E0CF3F
:10195000EE0FFF1F881F8BBF0790F691E02D1994A3
:04196000F894FFCF29
:10196400090807060D0C0B0A31323341343536426F
:10197400373839432A30234400004000140054000F
:1019840032303231303100000000AF021902460219
:10199400FC02770255026902000000006605390561
:1019A4007D060F0532051F051005000000004E04DA
:1019B4000E04DD0300000000250719027D067C06E5
:1019C4004341534120414359453100422D47303171
:1019D4002D5332004249454E56454E49444F20004E
:1019E40041204341534120004552524F5220454E1D
:1019F4002000434F4E54524153454E4941203A2012
:021A04000000E0
:00000001FF
